{"abi":[{"inputs":[{"internalType":"uint256","name":"minimum","type":"uint256"},{"internalType":"address","name":"creator","type":"address"}],"stateMutability":"nonpayable","type":"constructor"},{"anonymous":false,"inputs":[{"indexed":false,"internalType":"uint256","name":"index","type":"uint256"},{"indexed":false,"internalType":"address","name":"approver","type":"address"}],"name":"RequestApproved","type":"event"},{"anonymous":false,"inputs":[{"indexed":false,"internalType":"string","name":"description","type":"string"},{"indexed":false,"internalType":"uint256","name":"value","type":"uint256"},{"indexed":false,"internalType":"address","name":"recipient","type":"address"}],"name":"RequestCreated","type":"event"},{"anonymous":false,"inputs":[{"indexed":false,"internalType":"uint256","name":"index","type":"uint256"},{"indexed":false,"internalType":"address","name":"recipient","type":"address"}],"name":"RequestFinalized","type":"event"},{"inputs":[{"internalType":"uint256","name":"index","type":"uint256"}],"name":"approveRequest","outputs":[],"stateMutability":"nonpayable","type":"function"},{"inputs":[{"internalType":"address","name":"","type":"address"}],"name":"approvers","outputs":[{"internalType":"bool","name":"","type":"bool"}],"stateMutability":"view","type":"function"},{"inputs":[],"name":"approversCount","outputs":[{"internalType":"uint256","name":"","type":"uint256"}],"stateMutability":"view","type":"function"},{"inputs":[],"name":"contribute","outputs":[],"stateMutability":"payable","type":"function"},{"inputs":[{"internalType":"string","name":"description","type":"string"},{"internalType":"uint256","name":"value","type":"uint256"},{"internalType":"address payable","name":"recipient","type":"address"}],"name":"createRequest","outputs":[],"stateMutability":"nonpayable","type":"function"},{"inputs":[{"internalType":"uint256","name":"index","type":"uint256"}],"name":"finalizeRequest","outputs":[],"stateMutability":"nonpayable","type":"function"},{"inputs":[{"internalType":"uint256","name":"index","type":"uint256"}],"name":"getRequest","outputs":[{"internalType":"string","name":"description","type":"string"},{"internalType":"uint256","name":"value","type":"uint256"},{"internalType":"address","name":"recipient","type":"address"},{"internalType":"bool","name":"complete","type":"bool"},{"internalType":"uint256","name":"approvalCount","type":"uint256"}],"stateMutability":"view","type":"function"},{"inputs":[],"name":"manager","outputs":[{"internalType":"address","name":"","type":"address"}],"stateMutability":"view","type":"function"},{"inputs":[],"name":"minimumContribution","outputs":[{"internalType":"uint256","name":"","type":"uint256"}],"stateMutability":"view","type":"function"},{"inputs":[{"internalType":"uint256","name":"","type":"uint256"}],"name":"requests","outputs":[{"internalType":"string","name":"description","type":"string"},{"internalType":"uint256","name":"value","type":"uint256"},{"internalType":"address payable","name":"recipient","type":"address"},{"internalType":"bool","name":"complete","type":"bool"},{"internalType":"uint256","name":"approvalCount","type":"uint256"}],"stateMutability":"view","type":"function"}],"devdoc":{"kind":"dev","methods":{},"version":1},"evm":{"assembly":"    /* \"Campaign.sol\":74:3356  contract Campaign {... */\n  mstore(0x40, 0x80)\n    /* \"Campaign.sol\":884:1003  constructor(uint minimum, address creator) {... */\n  callvalue\n  dup1\n  iszero\n  tag_1\n  jumpi\n  0x00\n  dup1\n  revert\ntag_1:\n  pop\n  mload(0x40)\n  sub(codesize, bytecodeSize)\n  dup1\n  bytecodeSize\n  dup4\n  codecopy\n  dup2\n  dup2\n  add\n  0x40\n  mstore\n  dup2\n  add\n  swap1\n  tag_2\n  swap2\n  swap1\n  tag_3\n  jump\t// in\ntag_2:\n    /* \"Campaign.sol\":948:955  creator */\n  dup1\n    /* \"Campaign.sol\":938:945  manager */\n  0x00\n  dup1\n    /* \"Campaign.sol\":938:955  manager = creator */\n  0x0100\n  exp\n  dup2\n  sload\n  dup2\n  0xffffffffffffffffffffffffffffffffffffffff\n  mul\n  not\n  and\n  swap1\n  dup4\n  0xffffffffffffffffffffffffffffffffffffffff\n  and\n  mul\n  or\n  swap1\n  sstore\n  pop\n    /* \"Campaign.sol\":988:995  minimum */\n  dup2\n    /* \"Campaign.sol\":966:985  minimumContribution */\n  0x01\n    /* \"Campaign.sol\":966:995  minimumContribution = minimum */\n  dup2\n  swap1\n  sstore\n  pop\n    /* \"Campaign.sol\":884:1003  constructor(uint minimum, address creator) {... */\n  pop\n  pop\n    /* \"Campaign.sol\":74:3356  contract Campaign {... */\n  jump(tag_6)\n    /* \"#utility.yul\":88:205   */\ntag_8:\n    /* \"#utility.yul\":197:198   */\n  0x00\n    /* \"#utility.yul\":194:195   */\n  dup1\n    /* \"#utility.yul\":187:199   */\n  revert\n    /* \"#utility.yul\":334:411   */\ntag_10:\n    /* \"#utility.yul\":371:378   */\n  0x00\n    /* \"#utility.yul\":400:405   */\n  dup2\n    /* \"#utility.yul\":389:405   */\n  swap1\n  pop\n    /* \"#utility.yul\":334:411   */\n  swap2\n  swap1\n  pop\n  jump\t// out\n    /* \"#utility.yul\":417:539   */\ntag_11:\n    /* \"#utility.yul\":490:514   */\n  tag_23\n    /* \"#utility.yul\":508:513   */\n  dup2\n    /* \"#utility.yul\":490:514   */\n  tag_10\n  jump\t// in\ntag_23:\n    /* \"#utility.yul\":483:488   */\n  dup2\n    /* \"#utility.yul\":480:515   */\n  eq\n    /* \"#utility.yul\":470:533   */\n  tag_24\n  jumpi\n    /* \"#utility.yul\":529:530   */\n  0x00\n    /* \"#utility.yul\":526:527   */\n  dup1\n    /* \"#utility.yul\":519:531   */\n  revert\n    /* \"#utility.yul\":470:533   */\ntag_24:\n    /* \"#utility.yul\":417:539   */\n  pop\n  jump\t// out\n    /* \"#utility.yul\":545:688   */\ntag_12:\n    /* \"#utility.yul\":602:607   */\n  0x00\n    /* \"#utility.yul\":633:639   */\n  dup2\n    /* \"#utility.yul\":627:640   */\n  mload\n    /* \"#utility.yul\":618:640   */\n  swap1\n  pop\n    /* \"#utility.yul\":649:682   */\n  tag_26\n    /* \"#utility.yul\":676:681   */\n  dup2\n    /* \"#utility.yul\":649:682   */\n  tag_11\n  jump\t// in\ntag_26:\n    /* \"#utility.yul\":545:688   */\n  swap3\n  swap2\n  pop\n  pop\n  jump\t// out\n    /* \"#utility.yul\":694:820   */\ntag_13:\n    /* \"#utility.yul\":731:738   */\n  0x00\n    /* \"#utility.yul\":771:813   */\n  0xffffffffffffffffffffffffffffffffffffffff\n    /* \"#utility.yul\":764:769   */\n  dup3\n    /* \"#utility.yul\":760:814   */\n  and\n    /* \"#utility.yul\":749:814   */\n  swap1\n  pop\n    /* \"#utility.yul\":694:820   */\n  swap2\n  swap1\n  pop\n  jump\t// out\n    /* \"#utility.yul\":826:922   */\ntag_14:\n    /* \"#utility.yul\":863:870   */\n  0x00\n    /* \"#utility.yul\":892:916   */\n  tag_29\n    /* \"#utility.yul\":910:915   */\n  dup3\n    /* \"#utility.yul\":892:916   */\n  tag_13\n  jump\t// in\ntag_29:\n    /* \"#utility.yul\":881:916   */\n  swap1\n  pop\n    /* \"#utility.yul\":826:922   */\n  swap2\n  swap1\n  pop\n  jump\t// out\n    /* \"#utility.yul\":928:1050   */\ntag_15:\n    /* \"#utility.yul\":1001:1025   */\n  tag_31\n    /* \"#utility.yul\":1019:1024   */\n  dup2\n    /* \"#utility.yul\":1001:1025   */\n  tag_14\n  jump\t// in\ntag_31:\n    /* \"#utility.yul\":994:999   */\n  dup2\n    /* \"#utility.yul\":991:1026   */\n  eq\n    /* \"#utility.yul\":981:1044   */\n  tag_32\n  jumpi\n    /* \"#utility.yul\":1040:1041   */\n  0x00\n    /* \"#utility.yul\":1037:1038   */\n  dup1\n    /* \"#utility.yul\":1030:1042   */\n  revert\n    /* \"#utility.yul\":981:1044   */\ntag_32:\n    /* \"#utility.yul\":928:1050   */\n  pop\n  jump\t// out\n    /* \"#utility.yul\":1056:1199   */\ntag_16:\n    /* \"#utility.yul\":1113:1118   */\n  0x00\n    /* \"#utility.yul\":1144:1150   */\n  dup2\n    /* \"#utility.yul\":1138:1151   */\n  mload\n    /* \"#utility.yul\":1129:1151   */\n  swap1\n  pop\n    /* \"#utility.yul\":1160:1193   */\n  tag_34\n    /* \"#utility.yul\":1187:1192   */\n  dup2\n    /* \"#utility.yul\":1160:1193   */\n  tag_15\n  jump\t// in\ntag_34:\n    /* \"#utility.yul\":1056:1199   */\n  swap3\n  swap2\n  pop\n  pop\n  jump\t// out\n    /* \"#utility.yul\":1205:1712   */\ntag_3:\n    /* \"#utility.yul\":1284:1290   */\n  0x00\n    /* \"#utility.yul\":1292:1298   */\n  dup1\n    /* \"#utility.yul\":1341:1343   */\n  0x40\n    /* \"#utility.yul\":1329:1338   */\n  dup4\n    /* \"#utility.yul\":1320:1327   */\n  dup6\n    /* \"#utility.yul\":1316:1339   */\n  sub\n    /* \"#utility.yul\":1312:1344   */\n  slt\n    /* \"#utility.yul\":1309:1428   */\n  iszero\n  tag_36\n  jumpi\n    /* \"#utility.yul\":1347:1426   */\n  tag_37\n  tag_8\n  jump\t// in\ntag_37:\n    /* \"#utility.yul\":1309:1428   */\ntag_36:\n    /* \"#utility.yul\":1467:1468   */\n  0x00\n    /* \"#utility.yul\":1492:1556   */\n  tag_38\n    /* \"#utility.yul\":1548:1555   */\n  dup6\n    /* \"#utility.yul\":1539:1545   */\n  dup3\n    /* \"#utility.yul\":1528:1537   */\n  dup7\n    /* \"#utility.yul\":1524:1546   */\n  add\n    /* \"#utility.yul\":1492:1556   */\n  tag_12\n  jump\t// in\ntag_38:\n    /* \"#utility.yul\":1482:1556   */\n  swap3\n  pop\n    /* \"#utility.yul\":1438:1566   */\n  pop\n    /* \"#utility.yul\":1605:1607   */\n  0x20\n    /* \"#utility.yul\":1631:1695   */\n  tag_39\n    /* \"#utility.yul\":1687:1694   */\n  dup6\n    /* \"#utility.yul\":1678:1684   */\n  dup3\n    /* \"#utility.yul\":1667:1676   */\n  dup7\n    /* \"#utility.yul\":1663:1685   */\n  add\n    /* \"#utility.yul\":1631:1695   */\n  tag_16\n  jump\t// in\ntag_39:\n    /* \"#utility.yul\":1621:1695   */\n  swap2\n  pop\n    /* \"#utility.yul\":1576:1705   */\n  pop\n    /* \"#utility.yul\":1205:1712   */\n  swap3\n  pop\n  swap3\n  swap1\n  pop\n  jump\t// out\n    /* \"Campaign.sol\":74:3356  contract Campaign {... */\ntag_6:\n  dataSize(sub_0)\n  dup1\n  dataOffset(sub_0)\n  0x00\n  codecopy\n  0x00\n  return\nstop\n\nsub_0: assembly {\n        /* \"Campaign.sol\":74:3356  contract Campaign {... */\n      mstore(0x40, 0x80)\n      jumpi(tag_1, lt(calldatasize, 0x04))\n      shr(0xe0, calldataload(0x00))\n      dup1\n      0x8a9cfd55\n      gt\n      tag_12\n      jumpi\n      dup1\n      0x8a9cfd55\n      eq\n      tag_7\n      jumpi\n      dup1\n      0x937e09b1\n      eq\n      tag_8\n      jumpi\n      dup1\n      0xc58343ef\n      eq\n      tag_9\n      jumpi\n      dup1\n      0xd7bb99ba\n      eq\n      tag_10\n      jumpi\n      dup1\n      0xd7d1bbdb\n      eq\n      tag_11\n      jumpi\n      jump(tag_1)\n    tag_12:\n      dup1\n      0x03441006\n      eq\n      tag_2\n      jumpi\n      dup1\n      0x0a144391\n      eq\n      tag_3\n      jumpi\n      dup1\n      0x481c6a75\n      eq\n      tag_4\n      jumpi\n      dup1\n      0x81d12c58\n      eq\n      tag_5\n      jumpi\n      dup1\n      0x82fde093\n      eq\n      tag_6\n      jumpi\n    tag_1:\n      0x00\n      dup1\n      revert\n        /* \"Campaign.sol\":2273:2896  function finalizeRequest(uint index) public restricted {... */\n    tag_2:\n      callvalue\n      dup1\n      iszero\n      tag_13\n      jumpi\n      0x00\n      dup1\n      revert\n    tag_13:\n      pop\n      tag_14\n      0x04\n      dup1\n      calldatasize\n      sub\n      dup2\n      add\n      swap1\n      tag_15\n      swap2\n      swap1\n      tag_16\n      jump\t// in\n    tag_15:\n      tag_17\n      jump\t// in\n    tag_14:\n      stop\n        /* \"Campaign.sol\":381:422  mapping(address => bool) public approvers */\n    tag_3:\n      callvalue\n      dup1\n      iszero\n      tag_18\n      jumpi\n      0x00\n      dup1\n      revert\n    tag_18:\n      pop\n      tag_19\n      0x04\n      dup1\n      calldatasize\n      sub\n      dup2\n      add\n      swap1\n      tag_20\n      swap2\n      swap1\n      tag_21\n      jump\t// in\n    tag_20:\n      tag_22\n      jump\t// in\n    tag_19:\n      mload(0x40)\n      tag_23\n      swap2\n      swap1\n      tag_24\n      jump\t// in\n    tag_23:\n      mload(0x40)\n      dup1\n      swap2\n      sub\n      swap1\n      return\n        /* \"Campaign.sol\":314:336  address public manager */\n    tag_4:\n      callvalue\n      dup1\n      iszero\n      tag_25\n      jumpi\n      0x00\n      dup1\n      revert\n    tag_25:\n      pop\n      tag_26\n      tag_27\n      jump\t// in\n    tag_26:\n      mload(0x40)\n      tag_28\n      swap2\n      swap1\n      tag_29\n      jump\t// in\n    tag_28:\n      mload(0x40)\n      dup1\n      swap2\n      sub\n      swap1\n      return\n        /* \"Campaign.sol\":429:454  Request[] public requests */\n    tag_5:\n      callvalue\n      dup1\n      iszero\n      tag_30\n      jumpi\n      0x00\n      dup1\n      revert\n    tag_30:\n      pop\n      tag_31\n      0x04\n      dup1\n      calldatasize\n      sub\n      dup2\n      add\n      swap1\n      tag_32\n      swap2\n      swap1\n      tag_16\n      jump\t// in\n    tag_32:\n      tag_33\n      jump\t// in\n    tag_31:\n      mload(0x40)\n      tag_34\n      swap6\n      swap5\n      swap4\n      swap3\n      swap2\n      swap1\n      tag_35\n      jump\t// in\n    tag_34:\n      mload(0x40)\n      dup1\n      swap2\n      sub\n      swap1\n      return\n        /* \"Campaign.sol\":461:487  uint public approversCount */\n    tag_6:\n      callvalue\n      dup1\n      iszero\n      tag_36\n      jumpi\n      0x00\n      dup1\n      revert\n    tag_36:\n      pop\n      tag_37\n      tag_38\n      jump\t// in\n    tag_37:\n      mload(0x40)\n      tag_39\n      swap2\n      swap1\n      tag_40\n      jump\t// in\n    tag_39:\n      mload(0x40)\n      dup1\n      swap2\n      sub\n      swap1\n      return\n        /* \"Campaign.sol\":1274:1777  function createRequest(string calldata description, uint value, address payable recipient) public restricted {... */\n    tag_7:\n      callvalue\n      dup1\n      iszero\n      tag_41\n      jumpi\n      0x00\n      dup1\n      revert\n    tag_41:\n      pop\n      tag_42\n      0x04\n      dup1\n      calldatasize\n      sub\n      dup2\n      add\n      swap1\n      tag_43\n      swap2\n      swap1\n      tag_44\n      jump\t// in\n    tag_43:\n      tag_45\n      jump\t// in\n    tag_42:\n      stop\n        /* \"Campaign.sol\":343:374  uint public minimumContribution */\n    tag_8:\n      callvalue\n      dup1\n      iszero\n      tag_46\n      jumpi\n      0x00\n      dup1\n      revert\n    tag_46:\n      pop\n      tag_47\n      tag_48\n      jump\t// in\n    tag_47:\n      mload(0x40)\n      tag_49\n      swap2\n      swap1\n      tag_40\n      jump\t// in\n    tag_49:\n      mload(0x40)\n      dup1\n      swap2\n      sub\n      swap1\n      return\n        /* \"Campaign.sol\":2905:3353  function getRequest(uint index) public view returns (... */\n    tag_9:\n      callvalue\n      dup1\n      iszero\n      tag_50\n      jumpi\n      0x00\n      dup1\n      revert\n    tag_50:\n      pop\n      tag_51\n      0x04\n      dup1\n      calldatasize\n      sub\n      dup2\n      add\n      swap1\n      tag_52\n      swap2\n      swap1\n      tag_16\n      jump\t// in\n    tag_52:\n      tag_53\n      jump\t// in\n    tag_51:\n      mload(0x40)\n      tag_54\n      swap6\n      swap5\n      swap4\n      swap3\n      swap2\n      swap1\n      tag_55\n      jump\t// in\n    tag_54:\n      mload(0x40)\n      dup1\n      swap2\n      sub\n      swap1\n      return\n        /* \"Campaign.sol\":1011:1266  function contribute() public payable {... */\n    tag_10:\n      tag_56\n      tag_57\n      jump\t// in\n    tag_56:\n      stop\n        /* \"Campaign.sol\":1785:2265  function approveRequest(uint index) public {... */\n    tag_11:\n      callvalue\n      dup1\n      iszero\n      tag_58\n      jumpi\n      0x00\n      dup1\n      revert\n    tag_58:\n      pop\n      tag_59\n      0x04\n      dup1\n      calldatasize\n      sub\n      dup2\n      add\n      swap1\n      tag_60\n      swap2\n      swap1\n      tag_16\n      jump\t// in\n    tag_60:\n      tag_61\n      jump\t// in\n    tag_59:\n      stop\n        /* \"Campaign.sol\":2273:2896  function finalizeRequest(uint index) public restricted {... */\n    tag_17:\n        /* \"Campaign.sol\":805:812  manager */\n      0x00\n      dup1\n      sload\n      swap1\n      0x0100\n      exp\n      swap1\n      div\n      0xffffffffffffffffffffffffffffffffffffffff\n      and\n        /* \"Campaign.sol\":791:812  msg.sender == manager */\n      0xffffffffffffffffffffffffffffffffffffffff\n      and\n        /* \"Campaign.sol\":791:801  msg.sender */\n      caller\n        /* \"Campaign.sol\":791:812  msg.sender == manager */\n      0xffffffffffffffffffffffffffffffffffffffff\n      and\n      eq\n        /* \"Campaign.sol\":783:856  require(msg.sender == manager, \"Only the manager can call this function\") */\n      tag_63\n      jumpi\n      mload(0x40)\n      0x08c379a000000000000000000000000000000000000000000000000000000000\n      dup2\n      mstore\n      0x04\n      add\n      tag_64\n      swap1\n      tag_65\n      jump\t// in\n    tag_64:\n      mload(0x40)\n      dup1\n      swap2\n      sub\n      swap1\n      revert\n    tag_63:\n        /* \"Campaign.sol\":2339:2369  Request storage currentRequest */\n      0x00\n        /* \"Campaign.sol\":2372:2380  requests */\n      0x03\n        /* \"Campaign.sol\":2381:2386  index */\n      dup3\n        /* \"Campaign.sol\":2372:2387  requests[index] */\n      dup2\n      sload\n      dup2\n      lt\n      tag_67\n      jumpi\n      tag_68\n      tag_69\n      jump\t// in\n    tag_68:\n    tag_67:\n      swap1\n      0x00\n      mstore\n      keccak256(0x00, 0x20)\n      swap1\n      0x05\n      mul\n      add\n        /* \"Campaign.sol\":2339:2387  Request storage currentRequest = requests[index] */\n      swap1\n      pop\n        /* \"Campaign.sol\":2409:2423  currentRequest */\n      dup1\n        /* \"Campaign.sol\":2409:2432  currentRequest.complete */\n      0x02\n      add\n      0x14\n      swap1\n      sload\n      swap1\n      0x0100\n      exp\n      swap1\n      div\n      0xff\n      and\n        /* \"Campaign.sol\":2408:2432  !currentRequest.complete */\n      iszero\n        /* \"Campaign.sol\":2400:2465  require(!currentRequest.complete, \"Request is already completed\") */\n      tag_71\n      jumpi\n      mload(0x40)\n      0x08c379a000000000000000000000000000000000000000000000000000000000\n      dup2\n      mstore\n      0x04\n      add\n      tag_72\n      swap1\n      tag_73\n      jump\t// in\n    tag_72:\n      mload(0x40)\n      dup1\n      swap2\n      sub\n      swap1\n      revert\n    tag_71:\n        /* \"Campaign.sol\":2533:2534  2 */\n      0x02\n        /* \"Campaign.sol\":2516:2530  approversCount */\n      sload(0x04)\n        /* \"Campaign.sol\":2516:2534  approversCount / 2 */\n      tag_74\n      swap2\n      swap1\n      tag_75\n      jump\t// in\n    tag_74:\n        /* \"Campaign.sol\":2484:2498  currentRequest */\n      dup2\n        /* \"Campaign.sol\":2484:2512  currentRequest.approvalCount */\n      0x03\n      add\n      sload\n        /* \"Campaign.sol\":2484:2535  currentRequest.approvalCount > (approversCount / 2) */\n      gt\n        /* \"Campaign.sol\":2476:2559  require(currentRequest.approvalCount > (approversCount / 2), \"Need more approvals\") */\n      tag_76\n      jumpi\n      mload(0x40)\n      0x08c379a000000000000000000000000000000000000000000000000000000000\n      dup2\n      mstore\n      0x04\n      add\n      tag_77\n      swap1\n      tag_78\n      jump\t// in\n    tag_77:\n      mload(0x40)\n      dup1\n      swap2\n      sub\n      swap1\n      revert\n    tag_76:\n        /* \"Campaign.sol\":2603:2617  currentRequest */\n      dup1\n        /* \"Campaign.sol\":2603:2623  currentRequest.value */\n      0x01\n      add\n      sload\n        /* \"Campaign.sol\":2578:2599  address(this).balance */\n      selfbalance\n        /* \"Campaign.sol\":2578:2623  address(this).balance >= currentRequest.value */\n      lt\n      iszero\n        /* \"Campaign.sol\":2570:2642  require(address(this).balance >= currentRequest.value, \"Not enough ETH\") */\n      tag_79\n      jumpi\n      mload(0x40)\n      0x08c379a000000000000000000000000000000000000000000000000000000000\n      dup2\n      mstore\n      0x04\n      add\n      tag_80\n      swap1\n      tag_81\n      jump\t// in\n    tag_80:\n      mload(0x40)\n      dup1\n      swap2\n      sub\n      swap1\n      revert\n    tag_79:\n        /* \"Campaign.sol\":2681:2685  true */\n      0x01\n        /* \"Campaign.sol\":2655:2669  currentRequest */\n      dup2\n        /* \"Campaign.sol\":2655:2678  currentRequest.complete */\n      0x02\n      add\n      0x14\n        /* \"Campaign.sol\":2655:2685  currentRequest.complete = true */\n      0x0100\n      exp\n      dup2\n      sload\n      dup2\n      0xff\n      mul\n      not\n      and\n      swap1\n      dup4\n      iszero\n      iszero\n      mul\n      or\n      swap1\n      sstore\n      pop\n        /* \"Campaign.sol\":2696:2710  currentRequest */\n      dup1\n        /* \"Campaign.sol\":2696:2720  currentRequest.recipient */\n      0x02\n      add\n      0x00\n      swap1\n      sload\n      swap1\n      0x0100\n      exp\n      swap1\n      div\n      0xffffffffffffffffffffffffffffffffffffffff\n      and\n        /* \"Campaign.sol\":2696:2729  currentRequest.recipient.transfer */\n      0xffffffffffffffffffffffffffffffffffffffff\n      and\n        /* \"Campaign.sol\":2696:2751  currentRequest.recipient.transfer(currentRequest.value) */\n      0x08fc\n        /* \"Campaign.sol\":2730:2744  currentRequest */\n      dup3\n        /* \"Campaign.sol\":2730:2750  currentRequest.value */\n      0x01\n      add\n      sload\n        /* \"Campaign.sol\":2696:2751  currentRequest.recipient.transfer(currentRequest.value) */\n      swap1\n      dup2\n      iszero\n      mul\n      swap1\n      mload(0x40)\n      0x00\n      mload(0x40)\n      dup1\n      dup4\n      sub\n      dup2\n      dup6\n      dup9\n      dup9\n      call\n      swap4\n      pop\n      pop\n      pop\n      pop\n      iszero\n      dup1\n      iszero\n      tag_83\n      jumpi\n      returndatasize\n      0x00\n      dup1\n      returndatacopy\n      revert(0x00, returndatasize)\n    tag_83:\n      pop\n        /* \"Campaign.sol\":2769:2818  RequestFinalized(index, currentRequest.recipient) */\n      0x9b7a7ab138570b3419ea6a5de03585eecb36f1f124c5d06628dc6a80c6bd090d\n        /* \"Campaign.sol\":2786:2791  index */\n      dup3\n        /* \"Campaign.sol\":2793:2807  currentRequest */\n      dup3\n        /* \"Campaign.sol\":2793:2817  currentRequest.recipient */\n      0x02\n      add\n      0x00\n      swap1\n      sload\n      swap1\n      0x0100\n      exp\n      swap1\n      div\n      0xffffffffffffffffffffffffffffffffffffffff\n      and\n        /* \"Campaign.sol\":2769:2818  RequestFinalized(index, currentRequest.recipient) */\n      mload(0x40)\n      tag_84\n      swap3\n      swap2\n      swap1\n      tag_85\n      jump\t// in\n    tag_84:\n      mload(0x40)\n      dup1\n      swap2\n      sub\n      swap1\n      log1\n        /* \"Campaign.sol\":2328:2896  {... */\n      pop\n        /* \"Campaign.sol\":2273:2896  function finalizeRequest(uint index) public restricted {... */\n      pop\n      jump\t// out\n        /* \"Campaign.sol\":381:422  mapping(address => bool) public approvers */\n    tag_22:\n      mstore(0x20, 0x02)\n      dup1\n      0x00\n      mstore\n      keccak256(0x00, 0x40)\n      0x00\n      swap2\n      pop\n      sload\n      swap1\n      0x0100\n      exp\n      swap1\n      div\n      0xff\n      and\n      dup2\n      jump\t// out\n        /* \"Campaign.sol\":314:336  address public manager */\n    tag_27:\n      0x00\n      dup1\n      sload\n      swap1\n      0x0100\n      exp\n      swap1\n      div\n      0xffffffffffffffffffffffffffffffffffffffff\n      and\n      dup2\n      jump\t// out\n        /* \"Campaign.sol\":429:454  Request[] public requests */\n    tag_33:\n      0x03\n      dup2\n      dup2\n      sload\n      dup2\n      lt\n      tag_86\n      jumpi\n      0x00\n      dup1\n      revert\n    tag_86:\n      swap1\n      0x00\n      mstore\n      keccak256(0x00, 0x20)\n      swap1\n      0x05\n      mul\n      add\n      0x00\n      swap2\n      pop\n      swap1\n      pop\n      dup1\n      0x00\n      add\n      dup1\n      sload\n      tag_88\n      swap1\n      tag_89\n      jump\t// in\n    tag_88:\n      dup1\n      0x1f\n      add\n      0x20\n      dup1\n      swap2\n      div\n      mul\n      0x20\n      add\n      mload(0x40)\n      swap1\n      dup2\n      add\n      0x40\n      mstore\n      dup1\n      swap3\n      swap2\n      swap1\n      dup2\n      dup2\n      mstore\n      0x20\n      add\n      dup3\n      dup1\n      sload\n      tag_90\n      swap1\n      tag_89\n      jump\t// in\n    tag_90:\n      dup1\n      iszero\n      tag_91\n      jumpi\n      dup1\n      0x1f\n      lt\n      tag_92\n      jumpi\n      0x0100\n      dup1\n      dup4\n      sload\n      div\n      mul\n      dup4\n      mstore\n      swap2\n      0x20\n      add\n      swap2\n      jump(tag_91)\n    tag_92:\n      dup3\n      add\n      swap2\n      swap1\n      0x00\n      mstore\n      keccak256(0x00, 0x20)\n      swap1\n    tag_93:\n      dup2\n      sload\n      dup2\n      mstore\n      swap1\n      0x01\n      add\n      swap1\n      0x20\n      add\n      dup1\n      dup4\n      gt\n      tag_93\n      jumpi\n      dup3\n      swap1\n      sub\n      0x1f\n      and\n      dup3\n      add\n      swap2\n    tag_91:\n      pop\n      pop\n      pop\n      pop\n      pop\n      swap1\n      dup1\n      0x01\n      add\n      sload\n      swap1\n      dup1\n      0x02\n      add\n      0x00\n      swap1\n      sload\n      swap1\n      0x0100\n      exp\n      swap1\n      div\n      0xffffffffffffffffffffffffffffffffffffffff\n      and\n      swap1\n      dup1\n      0x02\n      add\n      0x14\n      swap1\n      sload\n      swap1\n      0x0100\n      exp\n      swap1\n      div\n      0xff\n      and\n      swap1\n      dup1\n      0x03\n      add\n      sload\n      swap1\n      pop\n      dup6\n      jump\t// out\n        /* \"Campaign.sol\":461:487  uint public approversCount */\n    tag_38:\n      sload(0x04)\n      dup2\n      jump\t// out\n        /* \"Campaign.sol\":1274:1777  function createRequest(string calldata description, uint value, address payable recipient) public restricted {... */\n    tag_45:\n        /* \"Campaign.sol\":805:812  manager */\n      0x00\n      dup1\n      sload\n      swap1\n      0x0100\n      exp\n      swap1\n      div\n      0xffffffffffffffffffffffffffffffffffffffff\n      and\n        /* \"Campaign.sol\":791:812  msg.sender == manager */\n      0xffffffffffffffffffffffffffffffffffffffff\n      and\n        /* \"Campaign.sol\":791:801  msg.sender */\n      caller\n        /* \"Campaign.sol\":791:812  msg.sender == manager */\n      0xffffffffffffffffffffffffffffffffffffffff\n      and\n      eq\n        /* \"Campaign.sol\":783:856  require(msg.sender == manager, \"Only the manager can call this function\") */\n      tag_95\n      jumpi\n      mload(0x40)\n      0x08c379a000000000000000000000000000000000000000000000000000000000\n      dup2\n      mstore\n      0x04\n      add\n      tag_96\n      swap1\n      tag_65\n      jump\t// in\n    tag_96:\n      mload(0x40)\n      dup1\n      swap2\n      sub\n      swap1\n      revert\n    tag_95:\n        /* \"Campaign.sol\":1394:1420  Request storage newRequest */\n      0x00\n        /* \"Campaign.sol\":1423:1431  requests */\n      0x03\n        /* \"Campaign.sol\":1423:1438  requests.push() */\n      0x01\n      dup2\n      0x01\n      dup2\n      sload\n      add\n      dup1\n      dup3\n      sstore\n      dup1\n      swap2\n      pop\n      pop\n      sub\n      swap1\n      0x00\n      mstore\n      keccak256(0x00, 0x20)\n      swap1\n      0x05\n      mul\n      add\n        /* \"Campaign.sol\":1394:1438  Request storage newRequest = requests.push() */\n      swap1\n      pop\n        /* \"Campaign.sol\":1474:1485  description */\n      dup5\n      dup5\n        /* \"Campaign.sol\":1449:1459  newRequest */\n      dup3\n        /* \"Campaign.sol\":1449:1471  newRequest.description */\n      0x00\n      add\n        /* \"Campaign.sol\":1449:1485  newRequest.description = description */\n      swap2\n      dup3\n      tag_99\n      swap3\n      swap2\n      swap1\n      tag_100\n      jump\t// in\n    tag_99:\n      pop\n        /* \"Campaign.sol\":1515:1520  value */\n      dup3\n        /* \"Campaign.sol\":1496:1506  newRequest */\n      dup2\n        /* \"Campaign.sol\":1496:1512  newRequest.value */\n      0x01\n      add\n        /* \"Campaign.sol\":1496:1520  newRequest.value = value */\n      dup2\n      swap1\n      sstore\n      pop\n        /* \"Campaign.sol\":1554:1563  recipient */\n      dup2\n        /* \"Campaign.sol\":1531:1541  newRequest */\n      dup2\n        /* \"Campaign.sol\":1531:1551  newRequest.recipient */\n      0x02\n      add\n      0x00\n        /* \"Campaign.sol\":1531:1563  newRequest.recipient = recipient */\n      0x0100\n      exp\n      dup2\n      sload\n      dup2\n      0xffffffffffffffffffffffffffffffffffffffff\n      mul\n      not\n      and\n      swap1\n      dup4\n      0xffffffffffffffffffffffffffffffffffffffff\n      and\n      mul\n      or\n      swap1\n      sstore\n      pop\n        /* \"Campaign.sol\":1596:1601  false */\n      0x00\n        /* \"Campaign.sol\":1574:1584  newRequest */\n      dup2\n        /* \"Campaign.sol\":1574:1593  newRequest.complete */\n      0x02\n      add\n      0x14\n        /* \"Campaign.sol\":1574:1601  newRequest.complete = false */\n      0x0100\n      exp\n      dup2\n      sload\n      dup2\n      0xff\n      mul\n      not\n      and\n      swap1\n      dup4\n      iszero\n      iszero\n      mul\n      or\n      swap1\n      sstore\n      pop\n        /* \"Campaign.sol\":1639:1640  0 */\n      0x00\n        /* \"Campaign.sol\":1612:1622  newRequest */\n      dup2\n        /* \"Campaign.sol\":1612:1636  newRequest.approvalCount */\n      0x03\n      add\n        /* \"Campaign.sol\":1612:1640  newRequest.approvalCount = 0 */\n      dup2\n      swap1\n      sstore\n      pop\n        /* \"Campaign.sol\":1658:1703  RequestCreated(description, value, recipient) */\n      0x7c8193f35c0be0f0de85a76806a85eb113857a95308e004a23313fa4dda3293e\n        /* \"Campaign.sol\":1673:1684  description */\n      dup6\n      dup6\n        /* \"Campaign.sol\":1686:1691  value */\n      dup6\n        /* \"Campaign.sol\":1693:1702  recipient */\n      dup6\n        /* \"Campaign.sol\":1658:1703  RequestCreated(description, value, recipient) */\n      mload(0x40)\n      tag_101\n      swap5\n      swap4\n      swap3\n      swap2\n      swap1\n      tag_102\n      jump\t// in\n    tag_101:\n      mload(0x40)\n      dup1\n      swap2\n      sub\n      swap1\n      log1\n        /* \"Campaign.sol\":1383:1777  {... */\n      pop\n        /* \"Campaign.sol\":1274:1777  function createRequest(string calldata description, uint value, address payable recipient) public restricted {... */\n      pop\n      pop\n      pop\n      pop\n      jump\t// out\n        /* \"Campaign.sol\":343:374  uint public minimumContribution */\n    tag_48:\n      sload(0x01)\n      dup2\n      jump\t// out\n        /* \"Campaign.sol\":2905:3353  function getRequest(uint index) public view returns (... */\n    tag_53:\n        /* \"Campaign.sol\":2968:2993  string memory description */\n      0x60\n        /* \"Campaign.sol\":3004:3014  uint value */\n      0x00\n        /* \"Campaign.sol\":3025:3042  address recipient */\n      dup1\n        /* \"Campaign.sol\":3053:3066  bool complete */\n      0x00\n        /* \"Campaign.sol\":3077:3095  uint approvalCount */\n      dup1\n        /* \"Campaign.sol\":3114:3137  Request storage request */\n      0x00\n        /* \"Campaign.sol\":3140:3148  requests */\n      0x03\n        /* \"Campaign.sol\":3149:3154  index */\n      dup8\n        /* \"Campaign.sol\":3140:3155  requests[index] */\n      dup2\n      sload\n      dup2\n      lt\n      tag_104\n      jumpi\n      tag_105\n      tag_69\n      jump\t// in\n    tag_105:\n    tag_104:\n      swap1\n      0x00\n      mstore\n      keccak256(0x00, 0x20)\n      swap1\n      0x05\n      mul\n      add\n        /* \"Campaign.sol\":3114:3155  Request storage request = requests[index] */\n      swap1\n      pop\n        /* \"Campaign.sol\":3188:3195  request */\n      dup1\n        /* \"Campaign.sol\":3188:3207  request.description */\n      0x00\n      add\n        /* \"Campaign.sol\":3222:3229  request */\n      dup2\n        /* \"Campaign.sol\":3222:3235  request.value */\n      0x01\n      add\n      sload\n        /* \"Campaign.sol\":3250:3257  request */\n      dup3\n        /* \"Campaign.sol\":3250:3267  request.recipient */\n      0x02\n      add\n      0x00\n      swap1\n      sload\n      swap1\n      0x0100\n      exp\n      swap1\n      div\n      0xffffffffffffffffffffffffffffffffffffffff\n      and\n        /* \"Campaign.sol\":3282:3289  request */\n      dup4\n        /* \"Campaign.sol\":3282:3298  request.complete */\n      0x02\n      add\n      0x14\n      swap1\n      sload\n      swap1\n      0x0100\n      exp\n      swap1\n      div\n      0xff\n      and\n        /* \"Campaign.sol\":3313:3320  request */\n      dup5\n        /* \"Campaign.sol\":3313:3334  request.approvalCount */\n      0x03\n      add\n      sload\n        /* \"Campaign.sol\":3166:3345  return (... */\n      dup5\n      dup1\n      sload\n      tag_107\n      swap1\n      tag_89\n      jump\t// in\n    tag_107:\n      dup1\n      0x1f\n      add\n      0x20\n      dup1\n      swap2\n      div\n      mul\n      0x20\n      add\n      mload(0x40)\n      swap1\n      dup2\n      add\n      0x40\n      mstore\n      dup1\n      swap3\n      swap2\n      swap1\n      dup2\n      dup2\n      mstore\n      0x20\n      add\n      dup3\n      dup1\n      sload\n      tag_108\n      swap1\n      tag_89\n      jump\t// in\n    tag_108:\n      dup1\n      iszero\n      tag_109\n      jumpi\n      dup1\n      0x1f\n      lt\n      tag_110\n      jumpi\n      0x0100\n      dup1\n      dup4\n      sload\n      div\n      mul\n      dup4\n      mstore\n      swap2\n      0x20\n      add\n      swap2\n      jump(tag_109)\n    tag_110:\n      dup3\n      add\n      swap2\n      swap1\n      0x00\n      mstore\n      keccak256(0x00, 0x20)\n      swap1\n    tag_111:\n      dup2\n      sload\n      dup2\n      mstore\n      swap1\n      0x01\n      add\n      swap1\n      0x20\n      add\n      dup1\n      dup4\n      gt\n      tag_111\n      jumpi\n      dup3\n      swap1\n      sub\n      0x1f\n      and\n      dup3\n      add\n      swap2\n    tag_109:\n      pop\n      pop\n      pop\n      pop\n      pop\n      swap5\n      pop\n      swap6\n      pop\n      swap6\n      pop\n      swap6\n      pop\n      swap6\n      pop\n      swap6\n      pop\n      pop\n        /* \"Campaign.sol\":2905:3353  function getRequest(uint index) public view returns (... */\n      swap2\n      swap4\n      swap6\n      swap1\n      swap3\n      swap5\n      pop\n      jump\t// out\n        /* \"Campaign.sol\":1011:1266  function contribute() public payable {... */\n    tag_57:\n        /* \"Campaign.sol\":1080:1099  minimumContribution */\n      sload(0x01)\n        /* \"Campaign.sol\":1067:1076  msg.value */\n      callvalue\n        /* \"Campaign.sol\":1067:1099  msg.value >= minimumContribution */\n      lt\n      iszero\n        /* \"Campaign.sol\":1059:1132  require(msg.value >= minimumContribution, \"Minimum contribution not met\") */\n      tag_113\n      jumpi\n      mload(0x40)\n      0x08c379a000000000000000000000000000000000000000000000000000000000\n      dup2\n      mstore\n      0x04\n      add\n      tag_114\n      swap1\n      tag_115\n      jump\t// in\n    tag_114:\n      mload(0x40)\n      dup1\n      swap2\n      sub\n      swap1\n      revert\n    tag_113:\n        /* \"Campaign.sol\":1150:1159  approvers */\n      0x02\n        /* \"Campaign.sol\":1150:1171  approvers[msg.sender] */\n      0x00\n        /* \"Campaign.sol\":1160:1170  msg.sender */\n      caller\n        /* \"Campaign.sol\":1150:1171  approvers[msg.sender] */\n      0xffffffffffffffffffffffffffffffffffffffff\n      and\n      0xffffffffffffffffffffffffffffffffffffffff\n      and\n      dup2\n      mstore\n      0x20\n      add\n      swap1\n      dup2\n      mstore\n      0x20\n      add\n      0x00\n      keccak256\n      0x00\n      swap1\n      sload\n      swap1\n      0x0100\n      exp\n      swap1\n      div\n      0xff\n      and\n        /* \"Campaign.sol\":1145:1259  if (!approvers[msg.sender]) {... */\n      tag_116\n      jumpi\n        /* \"Campaign.sol\":1212:1216  true */\n      0x01\n        /* \"Campaign.sol\":1188:1197  approvers */\n      0x02\n        /* \"Campaign.sol\":1188:1209  approvers[msg.sender] */\n      0x00\n        /* \"Campaign.sol\":1198:1208  msg.sender */\n      caller\n        /* \"Campaign.sol\":1188:1209  approvers[msg.sender] */\n      0xffffffffffffffffffffffffffffffffffffffff\n      and\n      0xffffffffffffffffffffffffffffffffffffffff\n      and\n      dup2\n      mstore\n      0x20\n      add\n      swap1\n      dup2\n      mstore\n      0x20\n      add\n      0x00\n      keccak256\n      0x00\n        /* \"Campaign.sol\":1188:1216  approvers[msg.sender] = true */\n      0x0100\n      exp\n      dup2\n      sload\n      dup2\n      0xff\n      mul\n      not\n      and\n      swap1\n      dup4\n      iszero\n      iszero\n      mul\n      or\n      swap1\n      sstore\n      pop\n        /* \"Campaign.sol\":1231:1245  approversCount */\n      0x04\n      0x00\n        /* \"Campaign.sol\":1231:1247  approversCount++ */\n      dup2\n      sload\n      dup1\n      swap3\n      swap2\n      swap1\n      tag_117\n      swap1\n      tag_118\n      jump\t// in\n    tag_117:\n      swap2\n      swap1\n      pop\n      sstore\n      pop\n        /* \"Campaign.sol\":1145:1259  if (!approvers[msg.sender]) {... */\n    tag_116:\n        /* \"Campaign.sol\":1011:1266  function contribute() public payable {... */\n      jump\t// out\n        /* \"Campaign.sol\":1785:2265  function approveRequest(uint index) public {... */\n    tag_61:\n        /* \"Campaign.sol\":1839:1869  Request storage currentRequest */\n      0x00\n        /* \"Campaign.sol\":1872:1880  requests */\n      0x03\n        /* \"Campaign.sol\":1881:1886  index */\n      dup3\n        /* \"Campaign.sol\":1872:1887  requests[index] */\n      dup2\n      sload\n      dup2\n      lt\n      tag_120\n      jumpi\n      tag_121\n      tag_69\n      jump\t// in\n    tag_121:\n    tag_120:\n      swap1\n      0x00\n      mstore\n      keccak256(0x00, 0x20)\n      swap1\n      0x05\n      mul\n      add\n        /* \"Campaign.sol\":1839:1887  Request storage currentRequest = requests[index] */\n      swap1\n      pop\n        /* \"Campaign.sol\":1908:1917  approvers */\n      0x02\n        /* \"Campaign.sol\":1908:1929  approvers[msg.sender] */\n      0x00\n        /* \"Campaign.sol\":1918:1928  msg.sender */\n      caller\n        /* \"Campaign.sol\":1908:1929  approvers[msg.sender] */\n      0xffffffffffffffffffffffffffffffffffffffff\n      and\n      0xffffffffffffffffffffffffffffffffffffffff\n      and\n      dup2\n      mstore\n      0x20\n      add\n      swap1\n      dup2\n      mstore\n      0x20\n      add\n      0x00\n      keccak256\n      0x00\n      swap1\n      sload\n      swap1\n      0x0100\n      exp\n      swap1\n      div\n      0xff\n      and\n        /* \"Campaign.sol\":1900:1959  require(approvers[msg.sender], \"You are not a contributor\") */\n      tag_123\n      jumpi\n      mload(0x40)\n      0x08c379a000000000000000000000000000000000000000000000000000000000\n      dup2\n      mstore\n      0x04\n      add\n      tag_124\n      swap1\n      tag_125\n      jump\t// in\n    tag_124:\n      mload(0x40)\n      dup1\n      swap2\n      sub\n      swap1\n      revert\n    tag_123:\n        /* \"Campaign.sol\":1979:1993  currentRequest */\n      dup1\n        /* \"Campaign.sol\":1979:2003  currentRequest.approvals */\n      0x04\n      add\n        /* \"Campaign.sol\":1979:2015  currentRequest.approvals[msg.sender] */\n      0x00\n        /* \"Campaign.sol\":2004:2014  msg.sender */\n      caller\n        /* \"Campaign.sol\":1979:2015  currentRequest.approvals[msg.sender] */\n      0xffffffffffffffffffffffffffffffffffffffff\n      and\n      0xffffffffffffffffffffffffffffffffffffffff\n      and\n      dup2\n      mstore\n      0x20\n      add\n      swap1\n      dup2\n      mstore\n      0x20\n      add\n      0x00\n      keccak256\n      0x00\n      swap1\n      sload\n      swap1\n      0x0100\n      exp\n      swap1\n      div\n      0xff\n      and\n        /* \"Campaign.sol\":1978:2015  !currentRequest.approvals[msg.sender] */\n      iszero\n        /* \"Campaign.sol\":1970:2036  require(!currentRequest.approvals[msg.sender], \"Already approved\") */\n      tag_126\n      jumpi\n      mload(0x40)\n      0x08c379a000000000000000000000000000000000000000000000000000000000\n      dup2\n      mstore\n      0x04\n      add\n      tag_127\n      swap1\n      tag_128\n      jump\t// in\n    tag_127:\n      mload(0x40)\n      dup1\n      swap2\n      sub\n      swap1\n      revert\n    tag_126:\n        /* \"Campaign.sol\":2088:2092  true */\n      0x01\n        /* \"Campaign.sol\":2049:2063  currentRequest */\n      dup2\n        /* \"Campaign.sol\":2049:2073  currentRequest.approvals */\n      0x04\n      add\n        /* \"Campaign.sol\":2049:2085  currentRequest.approvals[msg.sender] */\n      0x00\n        /* \"Campaign.sol\":2074:2084  msg.sender */\n      caller\n        /* \"Campaign.sol\":2049:2085  currentRequest.approvals[msg.sender] */\n      0xffffffffffffffffffffffffffffffffffffffff\n      and\n      0xffffffffffffffffffffffffffffffffffffffff\n      and\n      dup2\n      mstore\n      0x20\n      add\n      swap1\n      dup2\n      mstore\n      0x20\n      add\n      0x00\n      keccak256\n      0x00\n        /* \"Campaign.sol\":2049:2092  currentRequest.approvals[msg.sender] = true */\n      0x0100\n      exp\n      dup2\n      sload\n      dup2\n      0xff\n      mul\n      not\n      and\n      swap1\n      dup4\n      iszero\n      iszero\n      mul\n      or\n      swap1\n      sstore\n      pop\n        /* \"Campaign.sol\":2103:2117  currentRequest */\n      dup1\n        /* \"Campaign.sol\":2103:2131  currentRequest.approvalCount */\n      0x03\n      add\n      0x00\n        /* \"Campaign.sol\":2103:2133  currentRequest.approvalCount++ */\n      dup2\n      sload\n      dup1\n      swap3\n      swap2\n      swap1\n      tag_129\n      swap1\n      tag_118\n      jump\t// in\n    tag_129:\n      swap2\n      swap1\n      pop\n      sstore\n      pop\n        /* \"Campaign.sol\":2151:2185  RequestApproved(index, msg.sender) */\n      0xf3dc904660a0ea05aba8dfa1e21fbc4fb2914be2a3029da7b0fdd3e5eee20ddb\n        /* \"Campaign.sol\":2167:2172  index */\n      dup3\n        /* \"Campaign.sol\":2174:2184  msg.sender */\n      caller\n        /* \"Campaign.sol\":2151:2185  RequestApproved(index, msg.sender) */\n      mload(0x40)\n      tag_130\n      swap3\n      swap2\n      swap1\n      tag_131\n      jump\t// in\n    tag_130:\n      mload(0x40)\n      dup1\n      swap2\n      sub\n      swap1\n      log1\n        /* \"Campaign.sol\":1828:2265  {... */\n      pop\n        /* \"Campaign.sol\":1785:2265  function approveRequest(uint index) public {... */\n      pop\n      jump\t// out\n        /* \"#utility.yul\":88:205   */\n    tag_133:\n        /* \"#utility.yul\":197:198   */\n      0x00\n        /* \"#utility.yul\":194:195   */\n      dup1\n        /* \"#utility.yul\":187:199   */\n      revert\n        /* \"#utility.yul\":211:328   */\n    tag_134:\n        /* \"#utility.yul\":320:321   */\n      0x00\n        /* \"#utility.yul\":317:318   */\n      dup1\n        /* \"#utility.yul\":310:322   */\n      revert\n        /* \"#utility.yul\":334:411   */\n    tag_135:\n        /* \"#utility.yul\":371:378   */\n      0x00\n        /* \"#utility.yul\":400:405   */\n      dup2\n        /* \"#utility.yul\":389:405   */\n      swap1\n      pop\n        /* \"#utility.yul\":334:411   */\n      swap2\n      swap1\n      pop\n      jump\t// out\n        /* \"#utility.yul\":417:539   */\n    tag_136:\n        /* \"#utility.yul\":490:514   */\n      tag_205\n        /* \"#utility.yul\":508:513   */\n      dup2\n        /* \"#utility.yul\":490:514   */\n      tag_135\n      jump\t// in\n    tag_205:\n        /* \"#utility.yul\":483:488   */\n      dup2\n        /* \"#utility.yul\":480:515   */\n      eq\n        /* \"#utility.yul\":470:533   */\n      tag_206\n      jumpi\n        /* \"#utility.yul\":529:530   */\n      0x00\n        /* \"#utility.yul\":526:527   */\n      dup1\n        /* \"#utility.yul\":519:531   */\n      revert\n        /* \"#utility.yul\":470:533   */\n    tag_206:\n        /* \"#utility.yul\":417:539   */\n      pop\n      jump\t// out\n        /* \"#utility.yul\":545:684   */\n    tag_137:\n        /* \"#utility.yul\":591:596   */\n      0x00\n        /* \"#utility.yul\":629:635   */\n      dup2\n        /* \"#utility.yul\":616:636   */\n      calldataload\n        /* \"#utility.yul\":607:636   */\n      swap1\n      pop\n        /* \"#utility.yul\":645:678   */\n      tag_208\n        /* \"#utility.yul\":672:677   */\n      dup2\n        /* \"#utility.yul\":645:678   */\n      tag_136\n      jump\t// in\n    tag_208:\n        /* \"#utility.yul\":545:684   */\n      swap3\n      swap2\n      pop\n      pop\n      jump\t// out\n        /* \"#utility.yul\":690:1019   */\n    tag_16:\n        /* \"#utility.yul\":749:755   */\n      0x00\n        /* \"#utility.yul\":798:800   */\n      0x20\n        /* \"#utility.yul\":786:795   */\n      dup3\n        /* \"#utility.yul\":777:784   */\n      dup5\n        /* \"#utility.yul\":773:796   */\n      sub\n        /* \"#utility.yul\":769:801   */\n      slt\n        /* \"#utility.yul\":766:885   */\n      iszero\n      tag_210\n      jumpi\n        /* \"#utility.yul\":804:883   */\n      tag_211\n      tag_133\n      jump\t// in\n    tag_211:\n        /* \"#utility.yul\":766:885   */\n    tag_210:\n        /* \"#utility.yul\":924:925   */\n      0x00\n        /* \"#utility.yul\":949:1002   */\n      tag_212\n        /* \"#utility.yul\":994:1001   */\n      dup5\n        /* \"#utility.yul\":985:991   */\n      dup3\n        /* \"#utility.yul\":974:983   */\n      dup6\n        /* \"#utility.yul\":970:992   */\n      add\n        /* \"#utility.yul\":949:1002   */\n      tag_137\n      jump\t// in\n    tag_212:\n        /* \"#utility.yul\":939:1002   */\n      swap2\n      pop\n        /* \"#utility.yul\":895:1012   */\n      pop\n        /* \"#utility.yul\":690:1019   */\n      swap3\n      swap2\n      pop\n      pop\n      jump\t// out\n        /* \"#utility.yul\":1025:1151   */\n    tag_138:\n        /* \"#utility.yul\":1062:1069   */\n      0x00\n        /* \"#utility.yul\":1102:1144   */\n      0xffffffffffffffffffffffffffffffffffffffff\n        /* \"#utility.yul\":1095:1100   */\n      dup3\n        /* \"#utility.yul\":1091:1145   */\n      and\n        /* \"#utility.yul\":1080:1145   */\n      swap1\n      pop\n        /* \"#utility.yul\":1025:1151   */\n      swap2\n      swap1\n      pop\n      jump\t// out\n        /* \"#utility.yul\":1157:1253   */\n    tag_139:\n        /* \"#utility.yul\":1194:1201   */\n      0x00\n        /* \"#utility.yul\":1223:1247   */\n      tag_215\n        /* \"#utility.yul\":1241:1246   */\n      dup3\n        /* \"#utility.yul\":1223:1247   */\n      tag_138\n      jump\t// in\n    tag_215:\n        /* \"#utility.yul\":1212:1247   */\n      swap1\n      pop\n        /* \"#utility.yul\":1157:1253   */\n      swap2\n      swap1\n      pop\n      jump\t// out\n        /* \"#utility.yul\":1259:1381   */\n    tag_140:\n        /* \"#utility.yul\":1332:1356   */\n      tag_217\n        /* \"#utility.yul\":1350:1355   */\n      dup2\n        /* \"#utility.yul\":1332:1356   */\n      tag_139\n      jump\t// in\n    tag_217:\n        /* \"#utility.yul\":1325:1330   */\n      dup2\n        /* \"#utility.yul\":1322:1357   */\n      eq\n        /* \"#utility.yul\":1312:1375   */\n      tag_218\n      jumpi\n        /* \"#utility.yul\":1371:1372   */\n      0x00\n        /* \"#utility.yul\":1368:1369   */\n      dup1\n        /* \"#utility.yul\":1361:1373   */\n      revert\n        /* \"#utility.yul\":1312:1375   */\n    tag_218:\n        /* \"#utility.yul\":1259:1381   */\n      pop\n      jump\t// out\n        /* \"#utility.yul\":1387:1526   */\n    tag_141:\n        /* \"#utility.yul\":1433:1438   */\n      0x00\n        /* \"#utility.yul\":1471:1477   */\n      dup2\n        /* \"#utility.yul\":1458:1478   */\n      calldataload\n        /* \"#utility.yul\":1449:1478   */\n      swap1\n      pop\n        /* \"#utility.yul\":1487:1520   */\n      tag_220\n        /* \"#utility.yul\":1514:1519   */\n      dup2\n        /* \"#utility.yul\":1487:1520   */\n      tag_140\n      jump\t// in\n    tag_220:\n        /* \"#utility.yul\":1387:1526   */\n      swap3\n      swap2\n      pop\n      pop\n      jump\t// out\n        /* \"#utility.yul\":1532:1861   */\n    tag_21:\n        /* \"#utility.yul\":1591:1597   */\n      0x00\n        /* \"#utility.yul\":1640:1642   */\n      0x20\n        /* \"#utility.yul\":1628:1637   */\n      dup3\n        /* \"#utility.yul\":1619:1626   */\n      dup5\n        /* \"#utility.yul\":1615:1638   */\n      sub\n        /* \"#utility.yul\":1611:1643   */\n      slt\n        /* \"#utility.yul\":1608:1727   */\n      iszero\n      tag_222\n      jumpi\n        /* \"#utility.yul\":1646:1725   */\n      tag_223\n      tag_133\n      jump\t// in\n    tag_223:\n        /* \"#utility.yul\":1608:1727   */\n    tag_222:\n        /* \"#utility.yul\":1766:1767   */\n      0x00\n        /* \"#utility.yul\":1791:1844   */\n      tag_224\n        /* \"#utility.yul\":1836:1843   */\n      dup5\n        /* \"#utility.yul\":1827:1833   */\n      dup3\n        /* \"#utility.yul\":1816:1825   */\n      dup6\n        /* \"#utility.yul\":1812:1834   */\n      add\n        /* \"#utility.yul\":1791:1844   */\n      tag_141\n      jump\t// in\n    tag_224:\n        /* \"#utility.yul\":1781:1844   */\n      swap2\n      pop\n        /* \"#utility.yul\":1737:1854   */\n      pop\n        /* \"#utility.yul\":1532:1861   */\n      swap3\n      swap2\n      pop\n      pop\n      jump\t// out\n        /* \"#utility.yul\":1867:1957   */\n    tag_142:\n        /* \"#utility.yul\":1901:1908   */\n      0x00\n        /* \"#utility.yul\":1944:1949   */\n      dup2\n        /* \"#utility.yul\":1937:1950   */\n      iszero\n        /* \"#utility.yul\":1930:1951   */\n      iszero\n        /* \"#utility.yul\":1919:1951   */\n      swap1\n      pop\n        /* \"#utility.yul\":1867:1957   */\n      swap2\n      swap1\n      pop\n      jump\t// out\n        /* \"#utility.yul\":1963:2072   */\n    tag_143:\n        /* \"#utility.yul\":2044:2065   */\n      tag_227\n        /* \"#utility.yul\":2059:2064   */\n      dup2\n        /* \"#utility.yul\":2044:2065   */\n      tag_142\n      jump\t// in\n    tag_227:\n        /* \"#utility.yul\":2039:2042   */\n      dup3\n        /* \"#utility.yul\":2032:2066   */\n      mstore\n        /* \"#utility.yul\":1963:2072   */\n      pop\n      pop\n      jump\t// out\n        /* \"#utility.yul\":2078:2288   */\n    tag_24:\n        /* \"#utility.yul\":2165:2169   */\n      0x00\n        /* \"#utility.yul\":2203:2205   */\n      0x20\n        /* \"#utility.yul\":2192:2201   */\n      dup3\n        /* \"#utility.yul\":2188:2206   */\n      add\n        /* \"#utility.yul\":2180:2206   */\n      swap1\n      pop\n        /* \"#utility.yul\":2216:2281   */\n      tag_229\n        /* \"#utility.yul\":2278:2279   */\n      0x00\n        /* \"#utility.yul\":2267:2276   */\n      dup4\n        /* \"#utility.yul\":2263:2280   */\n      add\n        /* \"#utility.yul\":2254:2260   */\n      dup5\n        /* \"#utility.yul\":2216:2281   */\n      tag_143\n      jump\t// in\n    tag_229:\n        /* \"#utility.yul\":2078:2288   */\n      swap3\n      swap2\n      pop\n      pop\n      jump\t// out\n        /* \"#utility.yul\":2294:2412   */\n    tag_144:\n        /* \"#utility.yul\":2381:2405   */\n      tag_231\n        /* \"#utility.yul\":2399:2404   */\n      dup2\n        /* \"#utility.yul\":2381:2405   */\n      tag_139\n      jump\t// in\n    tag_231:\n        /* \"#utility.yul\":2376:2379   */\n      dup3\n        /* \"#utility.yul\":2369:2406   */\n      mstore\n        /* \"#utility.yul\":2294:2412   */\n      pop\n      pop\n      jump\t// out\n        /* \"#utility.yul\":2418:2640   */\n    tag_29:\n        /* \"#utility.yul\":2511:2515   */\n      0x00\n        /* \"#utility.yul\":2549:2551   */\n      0x20\n        /* \"#utility.yul\":2538:2547   */\n      dup3\n        /* \"#utility.yul\":2534:2552   */\n      add\n        /* \"#utility.yul\":2526:2552   */\n      swap1\n      pop\n        /* \"#utility.yul\":2562:2633   */\n      tag_233\n        /* \"#utility.yul\":2630:2631   */\n      0x00\n        /* \"#utility.yul\":2619:2628   */\n      dup4\n        /* \"#utility.yul\":2615:2632   */\n      add\n        /* \"#utility.yul\":2606:2612   */\n      dup5\n        /* \"#utility.yul\":2562:2633   */\n      tag_144\n      jump\t// in\n    tag_233:\n        /* \"#utility.yul\":2418:2640   */\n      swap3\n      swap2\n      pop\n      pop\n      jump\t// out\n        /* \"#utility.yul\":2646:2745   */\n    tag_145:\n        /* \"#utility.yul\":2698:2704   */\n      0x00\n        /* \"#utility.yul\":2732:2737   */\n      dup2\n        /* \"#utility.yul\":2726:2738   */\n      mload\n        /* \"#utility.yul\":2716:2738   */\n      swap1\n      pop\n        /* \"#utility.yul\":2646:2745   */\n      swap2\n      swap1\n      pop\n      jump\t// out\n        /* \"#utility.yul\":2751:2920   */\n    tag_146:\n        /* \"#utility.yul\":2835:2846   */\n      0x00\n        /* \"#utility.yul\":2869:2875   */\n      dup3\n        /* \"#utility.yul\":2864:2867   */\n      dup3\n        /* \"#utility.yul\":2857:2876   */\n      mstore\n        /* \"#utility.yul\":2909:2913   */\n      0x20\n        /* \"#utility.yul\":2904:2907   */\n      dup3\n        /* \"#utility.yul\":2900:2914   */\n      add\n        /* \"#utility.yul\":2885:2914   */\n      swap1\n      pop\n        /* \"#utility.yul\":2751:2920   */\n      swap3\n      swap2\n      pop\n      pop\n      jump\t// out\n        /* \"#utility.yul\":2926:3065   */\n    tag_147:\n        /* \"#utility.yul\":3015:3021   */\n      dup3\n        /* \"#utility.yul\":3010:3013   */\n      dup2\n        /* \"#utility.yul\":3005:3008   */\n      dup4\n        /* \"#utility.yul\":2999:3022   */\n      mcopy\n        /* \"#utility.yul\":3056:3057   */\n      0x00\n        /* \"#utility.yul\":3047:3053   */\n      dup4\n        /* \"#utility.yul\":3042:3045   */\n      dup4\n        /* \"#utility.yul\":3038:3054   */\n      add\n        /* \"#utility.yul\":3031:3058   */\n      mstore\n        /* \"#utility.yul\":2926:3065   */\n      pop\n      pop\n      pop\n      jump\t// out\n        /* \"#utility.yul\":3071:3173   */\n    tag_148:\n        /* \"#utility.yul\":3112:3118   */\n      0x00\n        /* \"#utility.yul\":3163:3165   */\n      0x1f\n        /* \"#utility.yul\":3159:3166   */\n      not\n        /* \"#utility.yul\":3154:3156   */\n      0x1f\n        /* \"#utility.yul\":3147:3152   */\n      dup4\n        /* \"#utility.yul\":3143:3157   */\n      add\n        /* \"#utility.yul\":3139:3167   */\n      and\n        /* \"#utility.yul\":3129:3167   */\n      swap1\n      pop\n        /* \"#utility.yul\":3071:3173   */\n      swap2\n      swap1\n      pop\n      jump\t// out\n        /* \"#utility.yul\":3179:3556   */\n    tag_149:\n        /* \"#utility.yul\":3267:3270   */\n      0x00\n        /* \"#utility.yul\":3295:3334   */\n      tag_239\n        /* \"#utility.yul\":3328:3333   */\n      dup3\n        /* \"#utility.yul\":3295:3334   */\n      tag_145\n      jump\t// in\n    tag_239:\n        /* \"#utility.yul\":3350:3421   */\n      tag_240\n        /* \"#utility.yul\":3414:3420   */\n      dup2\n        /* \"#utility.yul\":3409:3412   */\n      dup6\n        /* \"#utility.yul\":3350:3421   */\n      tag_146\n      jump\t// in\n    tag_240:\n        /* \"#utility.yul\":3343:3421   */\n      swap4\n      pop\n        /* \"#utility.yul\":3430:3495   */\n      tag_241\n        /* \"#utility.yul\":3488:3494   */\n      dup2\n        /* \"#utility.yul\":3483:3486   */\n      dup6\n        /* \"#utility.yul\":3476:3480   */\n      0x20\n        /* \"#utility.yul\":3469:3474   */\n      dup7\n        /* \"#utility.yul\":3465:3481   */\n      add\n        /* \"#utility.yul\":3430:3495   */\n      tag_147\n      jump\t// in\n    tag_241:\n        /* \"#utility.yul\":3520:3549   */\n      tag_242\n        /* \"#utility.yul\":3542:3548   */\n      dup2\n        /* \"#utility.yul\":3520:3549   */\n      tag_148\n      jump\t// in\n    tag_242:\n        /* \"#utility.yul\":3515:3518   */\n      dup5\n        /* \"#utility.yul\":3511:3550   */\n      add\n        /* \"#utility.yul\":3504:3550   */\n      swap2\n      pop\n        /* \"#utility.yul\":3271:3556   */\n      pop\n        /* \"#utility.yul\":3179:3556   */\n      swap3\n      swap2\n      pop\n      pop\n      jump\t// out\n        /* \"#utility.yul\":3562:3680   */\n    tag_150:\n        /* \"#utility.yul\":3649:3673   */\n      tag_244\n        /* \"#utility.yul\":3667:3672   */\n      dup2\n        /* \"#utility.yul\":3649:3673   */\n      tag_135\n      jump\t// in\n    tag_244:\n        /* \"#utility.yul\":3644:3647   */\n      dup3\n        /* \"#utility.yul\":3637:3674   */\n      mstore\n        /* \"#utility.yul\":3562:3680   */\n      pop\n      pop\n      jump\t// out\n        /* \"#utility.yul\":3686:3790   */\n    tag_151:\n        /* \"#utility.yul\":3731:3738   */\n      0x00\n        /* \"#utility.yul\":3760:3784   */\n      tag_246\n        /* \"#utility.yul\":3778:3783   */\n      dup3\n        /* \"#utility.yul\":3760:3784   */\n      tag_138\n      jump\t// in\n    tag_246:\n        /* \"#utility.yul\":3749:3784   */\n      swap1\n      pop\n        /* \"#utility.yul\":3686:3790   */\n      swap2\n      swap1\n      pop\n      jump\t// out\n        /* \"#utility.yul\":3796:3938   */\n    tag_152:\n        /* \"#utility.yul\":3899:3931   */\n      tag_248\n        /* \"#utility.yul\":3925:3930   */\n      dup2\n        /* \"#utility.yul\":3899:3931   */\n      tag_151\n      jump\t// in\n    tag_248:\n        /* \"#utility.yul\":3894:3897   */\n      dup3\n        /* \"#utility.yul\":3887:3932   */\n      mstore\n        /* \"#utility.yul\":3796:3938   */\n      pop\n      pop\n      jump\t// out\n        /* \"#utility.yul\":3944:4719   */\n    tag_35:\n        /* \"#utility.yul\":4179:4183   */\n      0x00\n        /* \"#utility.yul\":4217:4220   */\n      0xa0\n        /* \"#utility.yul\":4206:4215   */\n      dup3\n        /* \"#utility.yul\":4202:4221   */\n      add\n        /* \"#utility.yul\":4194:4221   */\n      swap1\n      pop\n        /* \"#utility.yul\":4267:4276   */\n      dup2\n        /* \"#utility.yul\":4261:4265   */\n      dup2\n        /* \"#utility.yul\":4257:4277   */\n      sub\n        /* \"#utility.yul\":4253:4254   */\n      0x00\n        /* \"#utility.yul\":4242:4251   */\n      dup4\n        /* \"#utility.yul\":4238:4255   */\n      add\n        /* \"#utility.yul\":4231:4278   */\n      mstore\n        /* \"#utility.yul\":4295:4373   */\n      tag_250\n        /* \"#utility.yul\":4368:4372   */\n      dup2\n        /* \"#utility.yul\":4359:4365   */\n      dup9\n        /* \"#utility.yul\":4295:4373   */\n      tag_149\n      jump\t// in\n    tag_250:\n        /* \"#utility.yul\":4287:4373   */\n      swap1\n      pop\n        /* \"#utility.yul\":4383:4455   */\n      tag_251\n        /* \"#utility.yul\":4451:4453   */\n      0x20\n        /* \"#utility.yul\":4440:4449   */\n      dup4\n        /* \"#utility.yul\":4436:4454   */\n      add\n        /* \"#utility.yul\":4427:4433   */\n      dup8\n        /* \"#utility.yul\":4383:4455   */\n      tag_150\n      jump\t// in\n    tag_251:\n        /* \"#utility.yul\":4465:4553   */\n      tag_252\n        /* \"#utility.yul\":4549:4551   */\n      0x40\n        /* \"#utility.yul\":4538:4547   */\n      dup4\n        /* \"#utility.yul\":4534:4552   */\n      add\n        /* \"#utility.yul\":4525:4531   */\n      dup7\n        /* \"#utility.yul\":4465:4553   */\n      tag_152\n      jump\t// in\n    tag_252:\n        /* \"#utility.yul\":4563:4629   */\n      tag_253\n        /* \"#utility.yul\":4625:4627   */\n      0x60\n        /* \"#utility.yul\":4614:4623   */\n      dup4\n        /* \"#utility.yul\":4610:4628   */\n      add\n        /* \"#utility.yul\":4601:4607   */\n      dup6\n        /* \"#utility.yul\":4563:4629   */\n      tag_143\n      jump\t// in\n    tag_253:\n        /* \"#utility.yul\":4639:4712   */\n      tag_254\n        /* \"#utility.yul\":4707:4710   */\n      0x80\n        /* \"#utility.yul\":4696:4705   */\n      dup4\n        /* \"#utility.yul\":4692:4711   */\n      add\n        /* \"#utility.yul\":4683:4689   */\n      dup5\n        /* \"#utility.yul\":4639:4712   */\n      tag_150\n      jump\t// in\n    tag_254:\n        /* \"#utility.yul\":3944:4719   */\n      swap7\n      swap6\n      pop\n      pop\n      pop\n      pop\n      pop\n      pop\n      jump\t// out\n        /* \"#utility.yul\":4725:4947   */\n    tag_40:\n        /* \"#utility.yul\":4818:4822   */\n      0x00\n        /* \"#utility.yul\":4856:4858   */\n      0x20\n        /* \"#utility.yul\":4845:4854   */\n      dup3\n        /* \"#utility.yul\":4841:4859   */\n      add\n        /* \"#utility.yul\":4833:4859   */\n      swap1\n      pop\n        /* \"#utility.yul\":4869:4940   */\n      tag_256\n        /* \"#utility.yul\":4937:4938   */\n      0x00\n        /* \"#utility.yul\":4926:4935   */\n      dup4\n        /* \"#utility.yul\":4922:4939   */\n      add\n        /* \"#utility.yul\":4913:4919   */\n      dup5\n        /* \"#utility.yul\":4869:4940   */\n      tag_150\n      jump\t// in\n    tag_256:\n        /* \"#utility.yul\":4725:4947   */\n      swap3\n      swap2\n      pop\n      pop\n      jump\t// out\n        /* \"#utility.yul\":4953:5070   */\n    tag_153:\n        /* \"#utility.yul\":5062:5063   */\n      0x00\n        /* \"#utility.yul\":5059:5060   */\n      dup1\n        /* \"#utility.yul\":5052:5064   */\n      revert\n        /* \"#utility.yul\":5076:5193   */\n    tag_154:\n        /* \"#utility.yul\":5185:5186   */\n      0x00\n        /* \"#utility.yul\":5182:5183   */\n      dup1\n        /* \"#utility.yul\":5175:5187   */\n      revert\n        /* \"#utility.yul\":5199:5316   */\n    tag_155:\n        /* \"#utility.yul\":5308:5309   */\n      0x00\n        /* \"#utility.yul\":5305:5306   */\n      dup1\n        /* \"#utility.yul\":5298:5310   */\n      revert\n        /* \"#utility.yul\":5336:5889   */\n    tag_156:\n        /* \"#utility.yul\":5394:5402   */\n      0x00\n        /* \"#utility.yul\":5404:5410   */\n      dup1\n        /* \"#utility.yul\":5454:5457   */\n      dup4\n        /* \"#utility.yul\":5447:5451   */\n      0x1f\n        /* \"#utility.yul\":5439:5445   */\n      dup5\n        /* \"#utility.yul\":5435:5452   */\n      add\n        /* \"#utility.yul\":5431:5458   */\n      slt\n        /* \"#utility.yul\":5421:5543   */\n      tag_261\n      jumpi\n        /* \"#utility.yul\":5462:5541   */\n      tag_262\n      tag_153\n      jump\t// in\n    tag_262:\n        /* \"#utility.yul\":5421:5543   */\n    tag_261:\n        /* \"#utility.yul\":5575:5581   */\n      dup3\n        /* \"#utility.yul\":5562:5582   */\n      calldataload\n        /* \"#utility.yul\":5552:5582   */\n      swap1\n      pop\n        /* \"#utility.yul\":5605:5623   */\n      0xffffffffffffffff\n        /* \"#utility.yul\":5597:5603   */\n      dup2\n        /* \"#utility.yul\":5594:5624   */\n      gt\n        /* \"#utility.yul\":5591:5708   */\n      iszero\n      tag_263\n      jumpi\n        /* \"#utility.yul\":5627:5706   */\n      tag_264\n      tag_154\n      jump\t// in\n    tag_264:\n        /* \"#utility.yul\":5591:5708   */\n    tag_263:\n        /* \"#utility.yul\":5741:5745   */\n      0x20\n        /* \"#utility.yul\":5733:5739   */\n      dup4\n        /* \"#utility.yul\":5729:5746   */\n      add\n        /* \"#utility.yul\":5717:5746   */\n      swap2\n      pop\n        /* \"#utility.yul\":5795:5798   */\n      dup4\n        /* \"#utility.yul\":5787:5791   */\n      0x01\n        /* \"#utility.yul\":5779:5785   */\n      dup3\n        /* \"#utility.yul\":5775:5792   */\n      mul\n        /* \"#utility.yul\":5765:5773   */\n      dup4\n        /* \"#utility.yul\":5761:5793   */\n      add\n        /* \"#utility.yul\":5758:5799   */\n      gt\n        /* \"#utility.yul\":5755:5883   */\n      iszero\n      tag_265\n      jumpi\n        /* \"#utility.yul\":5802:5881   */\n      tag_266\n      tag_155\n      jump\t// in\n    tag_266:\n        /* \"#utility.yul\":5755:5883   */\n    tag_265:\n        /* \"#utility.yul\":5336:5889   */\n      swap3\n      pop\n      swap3\n      swap1\n      pop\n      jump\t// out\n        /* \"#utility.yul\":5895:6033   */\n    tag_157:\n        /* \"#utility.yul\":5976:6008   */\n      tag_268\n        /* \"#utility.yul\":6002:6007   */\n      dup2\n        /* \"#utility.yul\":5976:6008   */\n      tag_151\n      jump\t// in\n    tag_268:\n        /* \"#utility.yul\":5969:5974   */\n      dup2\n        /* \"#utility.yul\":5966:6009   */\n      eq\n        /* \"#utility.yul\":5956:6027   */\n      tag_269\n      jumpi\n        /* \"#utility.yul\":6023:6024   */\n      0x00\n        /* \"#utility.yul\":6020:6021   */\n      dup1\n        /* \"#utility.yul\":6013:6025   */\n      revert\n        /* \"#utility.yul\":5956:6027   */\n    tag_269:\n        /* \"#utility.yul\":5895:6033   */\n      pop\n      jump\t// out\n        /* \"#utility.yul\":6039:6194   */\n    tag_158:\n        /* \"#utility.yul\":6093:6098   */\n      0x00\n        /* \"#utility.yul\":6131:6137   */\n      dup2\n        /* \"#utility.yul\":6118:6138   */\n      calldataload\n        /* \"#utility.yul\":6109:6138   */\n      swap1\n      pop\n        /* \"#utility.yul\":6147:6188   */\n      tag_271\n        /* \"#utility.yul\":6182:6187   */\n      dup2\n        /* \"#utility.yul\":6147:6188   */\n      tag_157\n      jump\t// in\n    tag_271:\n        /* \"#utility.yul\":6039:6194   */\n      swap3\n      swap2\n      pop\n      pop\n      jump\t// out\n        /* \"#utility.yul\":6200:7035   */\n    tag_44:\n        /* \"#utility.yul\":6297:6303   */\n      0x00\n        /* \"#utility.yul\":6305:6311   */\n      dup1\n        /* \"#utility.yul\":6313:6319   */\n      0x00\n        /* \"#utility.yul\":6321:6327   */\n      dup1\n        /* \"#utility.yul\":6370:6372   */\n      0x60\n        /* \"#utility.yul\":6358:6367   */\n      dup6\n        /* \"#utility.yul\":6349:6356   */\n      dup8\n        /* \"#utility.yul\":6345:6368   */\n      sub\n        /* \"#utility.yul\":6341:6373   */\n      slt\n        /* \"#utility.yul\":6338:6457   */\n      iszero\n      tag_273\n      jumpi\n        /* \"#utility.yul\":6376:6455   */\n      tag_274\n      tag_133\n      jump\t// in\n    tag_274:\n        /* \"#utility.yul\":6338:6457   */\n    tag_273:\n        /* \"#utility.yul\":6524:6525   */\n      0x00\n        /* \"#utility.yul\":6513:6522   */\n      dup6\n        /* \"#utility.yul\":6509:6526   */\n      add\n        /* \"#utility.yul\":6496:6527   */\n      calldataload\n        /* \"#utility.yul\":6554:6572   */\n      0xffffffffffffffff\n        /* \"#utility.yul\":6546:6552   */\n      dup2\n        /* \"#utility.yul\":6543:6573   */\n      gt\n        /* \"#utility.yul\":6540:6657   */\n      iszero\n      tag_275\n      jumpi\n        /* \"#utility.yul\":6576:6655   */\n      tag_276\n      tag_134\n      jump\t// in\n    tag_276:\n        /* \"#utility.yul\":6540:6657   */\n    tag_275:\n        /* \"#utility.yul\":6689:6754   */\n      tag_277\n        /* \"#utility.yul\":6746:6753   */\n      dup8\n        /* \"#utility.yul\":6737:6743   */\n      dup3\n        /* \"#utility.yul\":6726:6735   */\n      dup9\n        /* \"#utility.yul\":6722:6744   */\n      add\n        /* \"#utility.yul\":6689:6754   */\n      tag_156\n      jump\t// in\n    tag_277:\n        /* \"#utility.yul\":6671:6754   */\n      swap5\n      pop\n      swap5\n      pop\n        /* \"#utility.yul\":6467:6764   */\n      pop\n        /* \"#utility.yul\":6803:6805   */\n      0x20\n        /* \"#utility.yul\":6829:6882   */\n      tag_278\n        /* \"#utility.yul\":6874:6881   */\n      dup8\n        /* \"#utility.yul\":6865:6871   */\n      dup3\n        /* \"#utility.yul\":6854:6863   */\n      dup9\n        /* \"#utility.yul\":6850:6872   */\n      add\n        /* \"#utility.yul\":6829:6882   */\n      tag_137\n      jump\t// in\n    tag_278:\n        /* \"#utility.yul\":6819:6882   */\n      swap3\n      pop\n        /* \"#utility.yul\":6774:6892   */\n      pop\n        /* \"#utility.yul\":6931:6933   */\n      0x40\n        /* \"#utility.yul\":6957:7018   */\n      tag_279\n        /* \"#utility.yul\":7010:7017   */\n      dup8\n        /* \"#utility.yul\":7001:7007   */\n      dup3\n        /* \"#utility.yul\":6990:6999   */\n      dup9\n        /* \"#utility.yul\":6986:7008   */\n      add\n        /* \"#utility.yul\":6957:7018   */\n      tag_158\n      jump\t// in\n    tag_279:\n        /* \"#utility.yul\":6947:7018   */\n      swap2\n      pop\n        /* \"#utility.yul\":6902:7028   */\n      pop\n        /* \"#utility.yul\":6200:7035   */\n      swap3\n      swap6\n      swap2\n      swap5\n      pop\n      swap3\n      pop\n      jump\t// out\n        /* \"#utility.yul\":7041:7784   */\n    tag_55:\n        /* \"#utility.yul\":7260:7264   */\n      0x00\n        /* \"#utility.yul\":7298:7301   */\n      0xa0\n        /* \"#utility.yul\":7287:7296   */\n      dup3\n        /* \"#utility.yul\":7283:7302   */\n      add\n        /* \"#utility.yul\":7275:7302   */\n      swap1\n      pop\n        /* \"#utility.yul\":7348:7357   */\n      dup2\n        /* \"#utility.yul\":7342:7346   */\n      dup2\n        /* \"#utility.yul\":7338:7358   */\n      sub\n        /* \"#utility.yul\":7334:7335   */\n      0x00\n        /* \"#utility.yul\":7323:7332   */\n      dup4\n        /* \"#utility.yul\":7319:7336   */\n      add\n        /* \"#utility.yul\":7312:7359   */\n      mstore\n        /* \"#utility.yul\":7376:7454   */\n      tag_281\n        /* \"#utility.yul\":7449:7453   */\n      dup2\n        /* \"#utility.yul\":7440:7446   */\n      dup9\n        /* \"#utility.yul\":7376:7454   */\n      tag_149\n      jump\t// in\n    tag_281:\n        /* \"#utility.yul\":7368:7454   */\n      swap1\n      pop\n        /* \"#utility.yul\":7464:7536   */\n      tag_282\n        /* \"#utility.yul\":7532:7534   */\n      0x20\n        /* \"#utility.yul\":7521:7530   */\n      dup4\n        /* \"#utility.yul\":7517:7535   */\n      add\n        /* \"#utility.yul\":7508:7514   */\n      dup8\n        /* \"#utility.yul\":7464:7536   */\n      tag_150\n      jump\t// in\n    tag_282:\n        /* \"#utility.yul\":7546:7618   */\n      tag_283\n        /* \"#utility.yul\":7614:7616   */\n      0x40\n        /* \"#utility.yul\":7603:7612   */\n      dup4\n        /* \"#utility.yul\":7599:7617   */\n      add\n        /* \"#utility.yul\":7590:7596   */\n      dup7\n        /* \"#utility.yul\":7546:7618   */\n      tag_144\n      jump\t// in\n    tag_283:\n        /* \"#utility.yul\":7628:7694   */\n      tag_284\n        /* \"#utility.yul\":7690:7692   */\n      0x60\n        /* \"#utility.yul\":7679:7688   */\n      dup4\n        /* \"#utility.yul\":7675:7693   */\n      add\n        /* \"#utility.yul\":7666:7672   */\n      dup6\n        /* \"#utility.yul\":7628:7694   */\n      tag_143\n      jump\t// in\n    tag_284:\n        /* \"#utility.yul\":7704:7777   */\n      tag_285\n        /* \"#utility.yul\":7772:7775   */\n      0x80\n        /* \"#utility.yul\":7761:7770   */\n      dup4\n        /* \"#utility.yul\":7757:7776   */\n      add\n        /* \"#utility.yul\":7748:7754   */\n      dup5\n        /* \"#utility.yul\":7704:7777   */\n      tag_150\n      jump\t// in\n    tag_285:\n        /* \"#utility.yul\":7041:7784   */\n      swap7\n      swap6\n      pop\n      pop\n      pop\n      pop\n      pop\n      pop\n      jump\t// out\n        /* \"#utility.yul\":7790:8016   */\n    tag_159:\n        /* \"#utility.yul\":7930:7964   */\n      0x4f6e6c7920746865206d616e616765722063616e2063616c6c20746869732066\n        /* \"#utility.yul\":7926:7927   */\n      0x00\n        /* \"#utility.yul\":7918:7924   */\n      dup3\n        /* \"#utility.yul\":7914:7928   */\n      add\n        /* \"#utility.yul\":7907:7965   */\n      mstore\n        /* \"#utility.yul\":7999:8008   */\n      0x756e6374696f6e00000000000000000000000000000000000000000000000000\n        /* \"#utility.yul\":7994:7996   */\n      0x20\n        /* \"#utility.yul\":7986:7992   */\n      dup3\n        /* \"#utility.yul\":7982:7997   */\n      add\n        /* \"#utility.yul\":7975:8009   */\n      mstore\n        /* \"#utility.yul\":7790:8016   */\n      pop\n      jump\t// out\n        /* \"#utility.yul\":8022:8388   */\n    tag_160:\n        /* \"#utility.yul\":8164:8167   */\n      0x00\n        /* \"#utility.yul\":8185:8252   */\n      tag_288\n        /* \"#utility.yul\":8249:8251   */\n      0x27\n        /* \"#utility.yul\":8244:8247   */\n      dup4\n        /* \"#utility.yul\":8185:8252   */\n      tag_146\n      jump\t// in\n    tag_288:\n        /* \"#utility.yul\":8178:8252   */\n      swap2\n      pop\n        /* \"#utility.yul\":8261:8354   */\n      tag_289\n        /* \"#utility.yul\":8350:8353   */\n      dup3\n        /* \"#utility.yul\":8261:8354   */\n      tag_159\n      jump\t// in\n    tag_289:\n        /* \"#utility.yul\":8379:8381   */\n      0x40\n        /* \"#utility.yul\":8374:8377   */\n      dup3\n        /* \"#utility.yul\":8370:8382   */\n      add\n        /* \"#utility.yul\":8363:8382   */\n      swap1\n      pop\n        /* \"#utility.yul\":8022:8388   */\n      swap2\n      swap1\n      pop\n      jump\t// out\n        /* \"#utility.yul\":8394:8813   */\n    tag_65:\n        /* \"#utility.yul\":8560:8564   */\n      0x00\n        /* \"#utility.yul\":8598:8600   */\n      0x20\n        /* \"#utility.yul\":8587:8596   */\n      dup3\n        /* \"#utility.yul\":8583:8601   */\n      add\n        /* \"#utility.yul\":8575:8601   */\n      swap1\n      pop\n        /* \"#utility.yul\":8647:8656   */\n      dup2\n        /* \"#utility.yul\":8641:8645   */\n      dup2\n        /* \"#utility.yul\":8637:8657   */\n      sub\n        /* \"#utility.yul\":8633:8634   */\n      0x00\n        /* \"#utility.yul\":8622:8631   */\n      dup4\n        /* \"#utility.yul\":8618:8635   */\n      add\n        /* \"#utility.yul\":8611:8658   */\n      mstore\n        /* \"#utility.yul\":8675:8806   */\n      tag_291\n        /* \"#utility.yul\":8801:8805   */\n      dup2\n        /* \"#utility.yul\":8675:8806   */\n      tag_160\n      jump\t// in\n    tag_291:\n        /* \"#utility.yul\":8667:8806   */\n      swap1\n      pop\n        /* \"#utility.yul\":8394:8813   */\n      swap2\n      swap1\n      pop\n      jump\t// out\n        /* \"#utility.yul\":8819:8999   */\n    tag_69:\n        /* \"#utility.yul\":8867:8944   */\n      0x4e487b7100000000000000000000000000000000000000000000000000000000\n        /* \"#utility.yul\":8864:8865   */\n      0x00\n        /* \"#utility.yul\":8857:8945   */\n      mstore\n        /* \"#utility.yul\":8964:8968   */\n      0x32\n        /* \"#utility.yul\":8961:8962   */\n      0x04\n        /* \"#utility.yul\":8954:8969   */\n      mstore\n        /* \"#utility.yul\":8988:8992   */\n      0x24\n        /* \"#utility.yul\":8985:8986   */\n      0x00\n        /* \"#utility.yul\":8978:8993   */\n      revert\n        /* \"#utility.yul\":9005:9183   */\n    tag_161:\n        /* \"#utility.yul\":9145:9175   */\n      0x5265717565737420697320616c726561647920636f6d706c6574656400000000\n        /* \"#utility.yul\":9141:9142   */\n      0x00\n        /* \"#utility.yul\":9133:9139   */\n      dup3\n        /* \"#utility.yul\":9129:9143   */\n      add\n        /* \"#utility.yul\":9122:9176   */\n      mstore\n        /* \"#utility.yul\":9005:9183   */\n      pop\n      jump\t// out\n        /* \"#utility.yul\":9189:9555   */\n    tag_162:\n        /* \"#utility.yul\":9331:9334   */\n      0x00\n        /* \"#utility.yul\":9352:9419   */\n      tag_295\n        /* \"#utility.yul\":9416:9418   */\n      0x1c\n        /* \"#utility.yul\":9411:9414   */\n      dup4\n        /* \"#utility.yul\":9352:9419   */\n      tag_146\n      jump\t// in\n    tag_295:\n        /* \"#utility.yul\":9345:9419   */\n      swap2\n      pop\n        /* \"#utility.yul\":9428:9521   */\n      tag_296\n        /* \"#utility.yul\":9517:9520   */\n      dup3\n        /* \"#utility.yul\":9428:9521   */\n      tag_161\n      jump\t// in\n    tag_296:\n        /* \"#utility.yul\":9546:9548   */\n      0x20\n        /* \"#utility.yul\":9541:9544   */\n      dup3\n        /* \"#utility.yul\":9537:9549   */\n      add\n        /* \"#utility.yul\":9530:9549   */\n      swap1\n      pop\n        /* \"#utility.yul\":9189:9555   */\n      swap2\n      swap1\n      pop\n      jump\t// out\n        /* \"#utility.yul\":9561:9980   */\n    tag_73:\n        /* \"#utility.yul\":9727:9731   */\n      0x00\n        /* \"#utility.yul\":9765:9767   */\n      0x20\n        /* \"#utility.yul\":9754:9763   */\n      dup3\n        /* \"#utility.yul\":9750:9768   */\n      add\n        /* \"#utility.yul\":9742:9768   */\n      swap1\n      pop\n        /* \"#utility.yul\":9814:9823   */\n      dup2\n        /* \"#utility.yul\":9808:9812   */\n      dup2\n        /* \"#utility.yul\":9804:9824   */\n      sub\n        /* \"#utility.yul\":9800:9801   */\n      0x00\n        /* \"#utility.yul\":9789:9798   */\n      dup4\n        /* \"#utility.yul\":9785:9802   */\n      add\n        /* \"#utility.yul\":9778:9825   */\n      mstore\n        /* \"#utility.yul\":9842:9973   */\n      tag_298\n        /* \"#utility.yul\":9968:9972   */\n      dup2\n        /* \"#utility.yul\":9842:9973   */\n      tag_162\n      jump\t// in\n    tag_298:\n        /* \"#utility.yul\":9834:9973   */\n      swap1\n      pop\n        /* \"#utility.yul\":9561:9980   */\n      swap2\n      swap1\n      pop\n      jump\t// out\n        /* \"#utility.yul\":9986:10166   */\n    tag_163:\n        /* \"#utility.yul\":10034:10111   */\n      0x4e487b7100000000000000000000000000000000000000000000000000000000\n        /* \"#utility.yul\":10031:10032   */\n      0x00\n        /* \"#utility.yul\":10024:10112   */\n      mstore\n        /* \"#utility.yul\":10131:10135   */\n      0x12\n        /* \"#utility.yul\":10128:10129   */\n      0x04\n        /* \"#utility.yul\":10121:10136   */\n      mstore\n        /* \"#utility.yul\":10155:10159   */\n      0x24\n        /* \"#utility.yul\":10152:10153   */\n      0x00\n        /* \"#utility.yul\":10145:10160   */\n      revert\n        /* \"#utility.yul\":10172:10352   */\n    tag_164:\n        /* \"#utility.yul\":10220:10297   */\n      0x4e487b7100000000000000000000000000000000000000000000000000000000\n        /* \"#utility.yul\":10217:10218   */\n      0x00\n        /* \"#utility.yul\":10210:10298   */\n      mstore\n        /* \"#utility.yul\":10317:10321   */\n      0x11\n        /* \"#utility.yul\":10314:10315   */\n      0x04\n        /* \"#utility.yul\":10307:10322   */\n      mstore\n        /* \"#utility.yul\":10341:10345   */\n      0x24\n        /* \"#utility.yul\":10338:10339   */\n      0x00\n        /* \"#utility.yul\":10331:10346   */\n      revert\n        /* \"#utility.yul\":10358:10543   */\n    tag_75:\n        /* \"#utility.yul\":10398:10399   */\n      0x00\n        /* \"#utility.yul\":10415:10435   */\n      tag_302\n        /* \"#utility.yul\":10433:10434   */\n      dup3\n        /* \"#utility.yul\":10415:10435   */\n      tag_135\n      jump\t// in\n    tag_302:\n        /* \"#utility.yul\":10410:10435   */\n      swap2\n      pop\n        /* \"#utility.yul\":10449:10469   */\n      tag_303\n        /* \"#utility.yul\":10467:10468   */\n      dup4\n        /* \"#utility.yul\":10449:10469   */\n      tag_135\n      jump\t// in\n    tag_303:\n        /* \"#utility.yul\":10444:10469   */\n      swap3\n      pop\n        /* \"#utility.yul\":10488:10489   */\n      dup3\n        /* \"#utility.yul\":10478:10513   */\n      tag_304\n      jumpi\n        /* \"#utility.yul\":10493:10511   */\n      tag_305\n      tag_163\n      jump\t// in\n    tag_305:\n        /* \"#utility.yul\":10478:10513   */\n    tag_304:\n        /* \"#utility.yul\":10535:10536   */\n      dup3\n        /* \"#utility.yul\":10532:10533   */\n      dup3\n        /* \"#utility.yul\":10528:10537   */\n      div\n        /* \"#utility.yul\":10523:10537   */\n      swap1\n      pop\n        /* \"#utility.yul\":10358:10543   */\n      swap3\n      swap2\n      pop\n      pop\n      jump\t// out\n        /* \"#utility.yul\":10549:10718   */\n    tag_165:\n        /* \"#utility.yul\":10689:10710   */\n      0x4e656564206d6f726520617070726f76616c7300000000000000000000000000\n        /* \"#utility.yul\":10685:10686   */\n      0x00\n        /* \"#utility.yul\":10677:10683   */\n      dup3\n        /* \"#utility.yul\":10673:10687   */\n      add\n        /* \"#utility.yul\":10666:10711   */\n      mstore\n        /* \"#utility.yul\":10549:10718   */\n      pop\n      jump\t// out\n        /* \"#utility.yul\":10724:11090   */\n    tag_166:\n        /* \"#utility.yul\":10866:10869   */\n      0x00\n        /* \"#utility.yul\":10887:10954   */\n      tag_308\n        /* \"#utility.yul\":10951:10953   */\n      0x13\n        /* \"#utility.yul\":10946:10949   */\n      dup4\n        /* \"#utility.yul\":10887:10954   */\n      tag_146\n      jump\t// in\n    tag_308:\n        /* \"#utility.yul\":10880:10954   */\n      swap2\n      pop\n        /* \"#utility.yul\":10963:11056   */\n      tag_309\n        /* \"#utility.yul\":11052:11055   */\n      dup3\n        /* \"#utility.yul\":10963:11056   */\n      tag_165\n      jump\t// in\n    tag_309:\n        /* \"#utility.yul\":11081:11083   */\n      0x20\n        /* \"#utility.yul\":11076:11079   */\n      dup3\n        /* \"#utility.yul\":11072:11084   */\n      add\n        /* \"#utility.yul\":11065:11084   */\n      swap1\n      pop\n        /* \"#utility.yul\":10724:11090   */\n      swap2\n      swap1\n      pop\n      jump\t// out\n        /* \"#utility.yul\":11096:11515   */\n    tag_78:\n        /* \"#utility.yul\":11262:11266   */\n      0x00\n        /* \"#utility.yul\":11300:11302   */\n      0x20\n        /* \"#utility.yul\":11289:11298   */\n      dup3\n        /* \"#utility.yul\":11285:11303   */\n      add\n        /* \"#utility.yul\":11277:11303   */\n      swap1\n      pop\n        /* \"#utility.yul\":11349:11358   */\n      dup2\n        /* \"#utility.yul\":11343:11347   */\n      dup2\n        /* \"#utility.yul\":11339:11359   */\n      sub\n        /* \"#utility.yul\":11335:11336   */\n      0x00\n        /* \"#utility.yul\":11324:11333   */\n      dup4\n        /* \"#utility.yul\":11320:11337   */\n      add\n        /* \"#utility.yul\":11313:11360   */\n      mstore\n        /* \"#utility.yul\":11377:11508   */\n      tag_311\n        /* \"#utility.yul\":11503:11507   */\n      dup2\n        /* \"#utility.yul\":11377:11508   */\n      tag_166\n      jump\t// in\n    tag_311:\n        /* \"#utility.yul\":11369:11508   */\n      swap1\n      pop\n        /* \"#utility.yul\":11096:11515   */\n      swap2\n      swap1\n      pop\n      jump\t// out\n        /* \"#utility.yul\":11521:11685   */\n    tag_167:\n        /* \"#utility.yul\":11661:11677   */\n      0x4e6f7420656e6f75676820455448000000000000000000000000000000000000\n        /* \"#utility.yul\":11657:11658   */\n      0x00\n        /* \"#utility.yul\":11649:11655   */\n      dup3\n        /* \"#utility.yul\":11645:11659   */\n      add\n        /* \"#utility.yul\":11638:11678   */\n      mstore\n        /* \"#utility.yul\":11521:11685   */\n      pop\n      jump\t// out\n        /* \"#utility.yul\":11691:12057   */\n    tag_168:\n        /* \"#utility.yul\":11833:11836   */\n      0x00\n        /* \"#utility.yul\":11854:11921   */\n      tag_314\n        /* \"#utility.yul\":11918:11920   */\n      0x0e\n        /* \"#utility.yul\":11913:11916   */\n      dup4\n        /* \"#utility.yul\":11854:11921   */\n      tag_146\n      jump\t// in\n    tag_314:\n        /* \"#utility.yul\":11847:11921   */\n      swap2\n      pop\n        /* \"#utility.yul\":11930:12023   */\n      tag_315\n        /* \"#utility.yul\":12019:12022   */\n      dup3\n        /* \"#utility.yul\":11930:12023   */\n      tag_167\n      jump\t// in\n    tag_315:\n        /* \"#utility.yul\":12048:12050   */\n      0x20\n        /* \"#utility.yul\":12043:12046   */\n      dup3\n        /* \"#utility.yul\":12039:12051   */\n      add\n        /* \"#utility.yul\":12032:12051   */\n      swap1\n      pop\n        /* \"#utility.yul\":11691:12057   */\n      swap2\n      swap1\n      pop\n      jump\t// out\n        /* \"#utility.yul\":12063:12482   */\n    tag_81:\n        /* \"#utility.yul\":12229:12233   */\n      0x00\n        /* \"#utility.yul\":12267:12269   */\n      0x20\n        /* \"#utility.yul\":12256:12265   */\n      dup3\n        /* \"#utility.yul\":12252:12270   */\n      add\n        /* \"#utility.yul\":12244:12270   */\n      swap1\n      pop\n        /* \"#utility.yul\":12316:12325   */\n      dup2\n        /* \"#utility.yul\":12310:12314   */\n      dup2\n        /* \"#utility.yul\":12306:12326   */\n      sub\n        /* \"#utility.yul\":12302:12303   */\n      0x00\n        /* \"#utility.yul\":12291:12300   */\n      dup4\n        /* \"#utility.yul\":12287:12304   */\n      add\n        /* \"#utility.yul\":12280:12327   */\n      mstore\n        /* \"#utility.yul\":12344:12475   */\n      tag_317\n        /* \"#utility.yul\":12470:12474   */\n      dup2\n        /* \"#utility.yul\":12344:12475   */\n      tag_168\n      jump\t// in\n    tag_317:\n        /* \"#utility.yul\":12336:12475   */\n      swap1\n      pop\n        /* \"#utility.yul\":12063:12482   */\n      swap2\n      swap1\n      pop\n      jump\t// out\n        /* \"#utility.yul\":12488:12548   */\n    tag_169:\n        /* \"#utility.yul\":12516:12519   */\n      0x00\n        /* \"#utility.yul\":12537:12542   */\n      dup2\n        /* \"#utility.yul\":12530:12542   */\n      swap1\n      pop\n        /* \"#utility.yul\":12488:12548   */\n      swap2\n      swap1\n      pop\n      jump\t// out\n        /* \"#utility.yul\":12554:12696   */\n    tag_170:\n        /* \"#utility.yul\":12604:12613   */\n      0x00\n        /* \"#utility.yul\":12637:12690   */\n      tag_320\n        /* \"#utility.yul\":12655:12689   */\n      tag_321\n        /* \"#utility.yul\":12664:12688   */\n      tag_322\n        /* \"#utility.yul\":12682:12687   */\n      dup5\n        /* \"#utility.yul\":12664:12688   */\n      tag_138\n      jump\t// in\n    tag_322:\n        /* \"#utility.yul\":12655:12689   */\n      tag_169\n      jump\t// in\n    tag_321:\n        /* \"#utility.yul\":12637:12690   */\n      tag_138\n      jump\t// in\n    tag_320:\n        /* \"#utility.yul\":12624:12690   */\n      swap1\n      pop\n        /* \"#utility.yul\":12554:12696   */\n      swap2\n      swap1\n      pop\n      jump\t// out\n        /* \"#utility.yul\":12702:12828   */\n    tag_171:\n        /* \"#utility.yul\":12752:12761   */\n      0x00\n        /* \"#utility.yul\":12785:12822   */\n      tag_324\n        /* \"#utility.yul\":12816:12821   */\n      dup3\n        /* \"#utility.yul\":12785:12822   */\n      tag_170\n      jump\t// in\n    tag_324:\n        /* \"#utility.yul\":12772:12822   */\n      swap1\n      pop\n        /* \"#utility.yul\":12702:12828   */\n      swap2\n      swap1\n      pop\n      jump\t// out\n        /* \"#utility.yul\":12834:12968   */\n    tag_172:\n        /* \"#utility.yul\":12892:12901   */\n      0x00\n        /* \"#utility.yul\":12925:12962   */\n      tag_326\n        /* \"#utility.yul\":12956:12961   */\n      dup3\n        /* \"#utility.yul\":12925:12962   */\n      tag_171\n      jump\t// in\n    tag_326:\n        /* \"#utility.yul\":12912:12962   */\n      swap1\n      pop\n        /* \"#utility.yul\":12834:12968   */\n      swap2\n      swap1\n      pop\n      jump\t// out\n        /* \"#utility.yul\":12974:13121   */\n    tag_173:\n        /* \"#utility.yul\":13069:13114   */\n      tag_328\n        /* \"#utility.yul\":13108:13113   */\n      dup2\n        /* \"#utility.yul\":13069:13114   */\n      tag_172\n      jump\t// in\n    tag_328:\n        /* \"#utility.yul\":13064:13067   */\n      dup3\n        /* \"#utility.yul\":13057:13115   */\n      mstore\n        /* \"#utility.yul\":12974:13121   */\n      pop\n      pop\n      jump\t// out\n        /* \"#utility.yul\":13127:13475   */\n    tag_85:\n        /* \"#utility.yul\":13256:13260   */\n      0x00\n        /* \"#utility.yul\":13294:13296   */\n      0x40\n        /* \"#utility.yul\":13283:13292   */\n      dup3\n        /* \"#utility.yul\":13279:13297   */\n      add\n        /* \"#utility.yul\":13271:13297   */\n      swap1\n      pop\n        /* \"#utility.yul\":13307:13378   */\n      tag_330\n        /* \"#utility.yul\":13375:13376   */\n      0x00\n        /* \"#utility.yul\":13364:13373   */\n      dup4\n        /* \"#utility.yul\":13360:13377   */\n      add\n        /* \"#utility.yul\":13351:13357   */\n      dup6\n        /* \"#utility.yul\":13307:13378   */\n      tag_150\n      jump\t// in\n    tag_330:\n        /* \"#utility.yul\":13388:13468   */\n      tag_331\n        /* \"#utility.yul\":13464:13466   */\n      0x20\n        /* \"#utility.yul\":13453:13462   */\n      dup4\n        /* \"#utility.yul\":13449:13467   */\n      add\n        /* \"#utility.yul\":13440:13446   */\n      dup5\n        /* \"#utility.yul\":13388:13468   */\n      tag_173\n      jump\t// in\n    tag_331:\n        /* \"#utility.yul\":13127:13475   */\n      swap4\n      swap3\n      pop\n      pop\n      pop\n      jump\t// out\n        /* \"#utility.yul\":13481:13661   */\n    tag_174:\n        /* \"#utility.yul\":13529:13606   */\n      0x4e487b7100000000000000000000000000000000000000000000000000000000\n        /* \"#utility.yul\":13526:13527   */\n      0x00\n        /* \"#utility.yul\":13519:13607   */\n      mstore\n        /* \"#utility.yul\":13626:13630   */\n      0x22\n        /* \"#utility.yul\":13623:13624   */\n      0x04\n        /* \"#utility.yul\":13616:13631   */\n      mstore\n        /* \"#utility.yul\":13650:13654   */\n      0x24\n        /* \"#utility.yul\":13647:13648   */\n      0x00\n        /* \"#utility.yul\":13640:13655   */\n      revert\n        /* \"#utility.yul\":13667:13987   */\n    tag_89:\n        /* \"#utility.yul\":13711:13717   */\n      0x00\n        /* \"#utility.yul\":13748:13749   */\n      0x02\n        /* \"#utility.yul\":13742:13746   */\n      dup3\n        /* \"#utility.yul\":13738:13750   */\n      div\n        /* \"#utility.yul\":13728:13750   */\n      swap1\n      pop\n        /* \"#utility.yul\":13795:13796   */\n      0x01\n        /* \"#utility.yul\":13789:13793   */\n      dup3\n        /* \"#utility.yul\":13785:13797   */\n      and\n        /* \"#utility.yul\":13816:13834   */\n      dup1\n        /* \"#utility.yul\":13806:13887   */\n      tag_334\n      jumpi\n        /* \"#utility.yul\":13872:13876   */\n      0x7f\n        /* \"#utility.yul\":13864:13870   */\n      dup3\n        /* \"#utility.yul\":13860:13877   */\n      and\n        /* \"#utility.yul\":13850:13877   */\n      swap2\n      pop\n        /* \"#utility.yul\":13806:13887   */\n    tag_334:\n        /* \"#utility.yul\":13934:13936   */\n      0x20\n        /* \"#utility.yul\":13926:13932   */\n      dup3\n        /* \"#utility.yul\":13923:13937   */\n      lt\n        /* \"#utility.yul\":13903:13921   */\n      dup2\n        /* \"#utility.yul\":13900:13938   */\n      sub\n        /* \"#utility.yul\":13897:13981   */\n      tag_335\n      jumpi\n        /* \"#utility.yul\":13953:13971   */\n      tag_336\n      tag_174\n      jump\t// in\n    tag_336:\n        /* \"#utility.yul\":13897:13981   */\n    tag_335:\n        /* \"#utility.yul\":13718:13987   */\n      pop\n        /* \"#utility.yul\":13667:13987   */\n      swap2\n      swap1\n      pop\n      jump\t// out\n        /* \"#utility.yul\":13993:14090   */\n    tag_175:\n        /* \"#utility.yul\":14052:14058   */\n      0x00\n        /* \"#utility.yul\":14080:14083   */\n      dup3\n        /* \"#utility.yul\":14070:14083   */\n      swap1\n      pop\n        /* \"#utility.yul\":13993:14090   */\n      swap3\n      swap2\n      pop\n      pop\n      jump\t// out\n        /* \"#utility.yul\":14096:14276   */\n    tag_176:\n        /* \"#utility.yul\":14144:14221   */\n      0x4e487b7100000000000000000000000000000000000000000000000000000000\n        /* \"#utility.yul\":14141:14142   */\n      0x00\n        /* \"#utility.yul\":14134:14222   */\n      mstore\n        /* \"#utility.yul\":14241:14245   */\n      0x41\n        /* \"#utility.yul\":14238:14239   */\n      0x04\n        /* \"#utility.yul\":14231:14246   */\n      mstore\n        /* \"#utility.yul\":14265:14269   */\n      0x24\n        /* \"#utility.yul\":14262:14263   */\n      0x00\n        /* \"#utility.yul\":14255:14270   */\n      revert\n        /* \"#utility.yul\":14282:14423   */\n    tag_177:\n        /* \"#utility.yul\":14331:14335   */\n      0x00\n        /* \"#utility.yul\":14354:14357   */\n      dup2\n        /* \"#utility.yul\":14346:14357   */\n      swap1\n      pop\n        /* \"#utility.yul\":14377:14380   */\n      dup2\n        /* \"#utility.yul\":14374:14375   */\n      0x00\n        /* \"#utility.yul\":14367:14381   */\n      mstore\n        /* \"#utility.yul\":14411:14415   */\n      0x20\n        /* \"#utility.yul\":14408:14409   */\n      0x00\n        /* \"#utility.yul\":14398:14416   */\n      keccak256\n        /* \"#utility.yul\":14390:14416   */\n      swap1\n      pop\n        /* \"#utility.yul\":14282:14423   */\n      swap2\n      swap1\n      pop\n      jump\t// out\n        /* \"#utility.yul\":14429:14522   */\n    tag_178:\n        /* \"#utility.yul\":14466:14472   */\n      0x00\n        /* \"#utility.yul\":14513:14515   */\n      0x20\n        /* \"#utility.yul\":14508:14510   */\n      0x1f\n        /* \"#utility.yul\":14501:14506   */\n      dup4\n        /* \"#utility.yul\":14497:14511   */\n      add\n        /* \"#utility.yul\":14493:14516   */\n      div\n        /* \"#utility.yul\":14483:14516   */\n      swap1\n      pop\n        /* \"#utility.yul\":14429:14522   */\n      swap2\n      swap1\n      pop\n      jump\t// out\n        /* \"#utility.yul\":14528:14635   */\n    tag_179:\n        /* \"#utility.yul\":14572:14580   */\n      0x00\n        /* \"#utility.yul\":14622:14627   */\n      dup3\n        /* \"#utility.yul\":14616:14620   */\n      dup3\n        /* \"#utility.yul\":14612:14628   */\n      shl\n        /* \"#utility.yul\":14591:14628   */\n      swap1\n      pop\n        /* \"#utility.yul\":14528:14635   */\n      swap3\n      swap2\n      pop\n      pop\n      jump\t// out\n        /* \"#utility.yul\":14641:15034   */\n    tag_180:\n        /* \"#utility.yul\":14710:14716   */\n      0x00\n        /* \"#utility.yul\":14760:14761   */\n      0x08\n        /* \"#utility.yul\":14748:14758   */\n      dup4\n        /* \"#utility.yul\":14744:14762   */\n      mul\n        /* \"#utility.yul\":14783:14880   */\n      tag_343\n        /* \"#utility.yul\":14813:14879   */\n      0xffffffffffffffffffffffffffffffffffffffffffffffffffffffffffffffff\n        /* \"#utility.yul\":14802:14811   */\n      dup3\n        /* \"#utility.yul\":14783:14880   */\n      tag_179\n      jump\t// in\n    tag_343:\n        /* \"#utility.yul\":14901:14940   */\n      tag_344\n        /* \"#utility.yul\":14931:14939   */\n      dup7\n        /* \"#utility.yul\":14920:14929   */\n      dup4\n        /* \"#utility.yul\":14901:14940   */\n      tag_179\n      jump\t// in\n    tag_344:\n        /* \"#utility.yul\":14889:14940   */\n      swap6\n      pop\n        /* \"#utility.yul\":14973:14977   */\n      dup1\n        /* \"#utility.yul\":14969:14978   */\n      not\n        /* \"#utility.yul\":14962:14967   */\n      dup5\n        /* \"#utility.yul\":14958:14979   */\n      and\n        /* \"#utility.yul\":14949:14979   */\n      swap4\n      pop\n        /* \"#utility.yul\":15022:15026   */\n      dup1\n        /* \"#utility.yul\":15012:15020   */\n      dup7\n        /* \"#utility.yul\":15008:15027   */\n      and\n        /* \"#utility.yul\":15001:15006   */\n      dup5\n        /* \"#utility.yul\":14998:15028   */\n      or\n        /* \"#utility.yul\":14988:15028   */\n      swap3\n      pop\n        /* \"#utility.yul\":14717:15034   */\n      pop\n      pop\n        /* \"#utility.yul\":14641:15034   */\n      swap4\n      swap3\n      pop\n      pop\n      pop\n      jump\t// out\n        /* \"#utility.yul\":15040:15182   */\n    tag_181:\n        /* \"#utility.yul\":15090:15099   */\n      0x00\n        /* \"#utility.yul\":15123:15176   */\n      tag_346\n        /* \"#utility.yul\":15141:15175   */\n      tag_347\n        /* \"#utility.yul\":15150:15174   */\n      tag_348\n        /* \"#utility.yul\":15168:15173   */\n      dup5\n        /* \"#utility.yul\":15150:15174   */\n      tag_135\n      jump\t// in\n    tag_348:\n        /* \"#utility.yul\":15141:15175   */\n      tag_169\n      jump\t// in\n    tag_347:\n        /* \"#utility.yul\":15123:15176   */\n      tag_135\n      jump\t// in\n    tag_346:\n        /* \"#utility.yul\":15110:15176   */\n      swap1\n      pop\n        /* \"#utility.yul\":15040:15182   */\n      swap2\n      swap1\n      pop\n      jump\t// out\n        /* \"#utility.yul\":15188:15263   */\n    tag_182:\n        /* \"#utility.yul\":15231:15234   */\n      0x00\n        /* \"#utility.yul\":15252:15257   */\n      dup2\n        /* \"#utility.yul\":15245:15257   */\n      swap1\n      pop\n        /* \"#utility.yul\":15188:15263   */\n      swap2\n      swap1\n      pop\n      jump\t// out\n        /* \"#utility.yul\":15269:15538   */\n    tag_183:\n        /* \"#utility.yul\":15379:15418   */\n      tag_351\n        /* \"#utility.yul\":15410:15417   */\n      dup4\n        /* \"#utility.yul\":15379:15418   */\n      tag_181\n      jump\t// in\n    tag_351:\n        /* \"#utility.yul\":15440:15531   */\n      tag_352\n        /* \"#utility.yul\":15489:15530   */\n      tag_353\n        /* \"#utility.yul\":15513:15529   */\n      dup3\n        /* \"#utility.yul\":15489:15530   */\n      tag_182\n      jump\t// in\n    tag_353:\n        /* \"#utility.yul\":15481:15487   */\n      dup5\n        /* \"#utility.yul\":15474:15478   */\n      dup5\n        /* \"#utility.yul\":15468:15479   */\n      sload\n        /* \"#utility.yul\":15440:15531   */\n      tag_180\n      jump\t// in\n    tag_352:\n        /* \"#utility.yul\":15434:15438   */\n      dup3\n        /* \"#utility.yul\":15427:15532   */\n      sstore\n        /* \"#utility.yul\":15345:15538   */\n      pop\n        /* \"#utility.yul\":15269:15538   */\n      pop\n      pop\n      pop\n      jump\t// out\n        /* \"#utility.yul\":15544:15617   */\n    tag_184:\n        /* \"#utility.yul\":15589:15592   */\n      0x00\n        /* \"#utility.yul\":15544:15617   */\n      swap1\n      jump\t// out\n        /* \"#utility.yul\":15623:15812   */\n    tag_185:\n        /* \"#utility.yul\":15700:15732   */\n      tag_356\n      tag_184\n      jump\t// in\n    tag_356:\n        /* \"#utility.yul\":15741:15806   */\n      tag_357\n        /* \"#utility.yul\":15799:15805   */\n      dup2\n        /* \"#utility.yul\":15791:15797   */\n      dup5\n        /* \"#utility.yul\":15785:15789   */\n      dup5\n        /* \"#utility.yul\":15741:15806   */\n      tag_183\n      jump\t// in\n    tag_357:\n        /* \"#utility.yul\":15676:15812   */\n      pop\n        /* \"#utility.yul\":15623:15812   */\n      pop\n      pop\n      jump\t// out\n        /* \"#utility.yul\":15818:16004   */\n    tag_186:\n        /* \"#utility.yul\":15878:15998   */\n    tag_359:\n        /* \"#utility.yul\":15895:15898   */\n      dup2\n        /* \"#utility.yul\":15888:15893   */\n      dup2\n        /* \"#utility.yul\":15885:15899   */\n      lt\n        /* \"#utility.yul\":15878:15998   */\n      iszero\n      tag_361\n      jumpi\n        /* \"#utility.yul\":15949:15988   */\n      tag_362\n        /* \"#utility.yul\":15986:15987   */\n      0x00\n        /* \"#utility.yul\":15979:15984   */\n      dup3\n        /* \"#utility.yul\":15949:15988   */\n      tag_185\n      jump\t// in\n    tag_362:\n        /* \"#utility.yul\":15922:15923   */\n      0x01\n        /* \"#utility.yul\":15915:15920   */\n      dup2\n        /* \"#utility.yul\":15911:15924   */\n      add\n        /* \"#utility.yul\":15902:15924   */\n      swap1\n      pop\n        /* \"#utility.yul\":15878:15998   */\n      jump(tag_359)\n    tag_361:\n        /* \"#utility.yul\":15818:16004   */\n      pop\n      pop\n      jump\t// out\n        /* \"#utility.yul\":16010:16553   */\n    tag_187:\n        /* \"#utility.yul\":16111:16113   */\n      0x1f\n        /* \"#utility.yul\":16106:16109   */\n      dup3\n        /* \"#utility.yul\":16103:16114   */\n      gt\n        /* \"#utility.yul\":16100:16546   */\n      iszero\n      tag_364\n      jumpi\n        /* \"#utility.yul\":16145:16183   */\n      tag_365\n        /* \"#utility.yul\":16177:16182   */\n      dup2\n        /* \"#utility.yul\":16145:16183   */\n      tag_177\n      jump\t// in\n    tag_365:\n        /* \"#utility.yul\":16229:16258   */\n      tag_366\n        /* \"#utility.yul\":16247:16257   */\n      dup5\n        /* \"#utility.yul\":16229:16258   */\n      tag_178\n      jump\t// in\n    tag_366:\n        /* \"#utility.yul\":16219:16227   */\n      dup2\n        /* \"#utility.yul\":16215:16259   */\n      add\n        /* \"#utility.yul\":16412:16414   */\n      0x20\n        /* \"#utility.yul\":16400:16410   */\n      dup6\n        /* \"#utility.yul\":16397:16415   */\n      lt\n        /* \"#utility.yul\":16394:16443   */\n      iszero\n      tag_367\n      jumpi\n        /* \"#utility.yul\":16433:16441   */\n      dup2\n        /* \"#utility.yul\":16418:16441   */\n      swap1\n      pop\n        /* \"#utility.yul\":16394:16443   */\n    tag_367:\n        /* \"#utility.yul\":16456:16536   */\n      tag_368\n        /* \"#utility.yul\":16512:16534   */\n      tag_369\n        /* \"#utility.yul\":16530:16533   */\n      dup6\n        /* \"#utility.yul\":16512:16534   */\n      tag_178\n      jump\t// in\n    tag_369:\n        /* \"#utility.yul\":16502:16510   */\n      dup4\n        /* \"#utility.yul\":16498:16535   */\n      add\n        /* \"#utility.yul\":16485:16496   */\n      dup3\n        /* \"#utility.yul\":16456:16536   */\n      tag_186\n      jump\t// in\n    tag_368:\n        /* \"#utility.yul\":16115:16546   */\n      pop\n      pop\n        /* \"#utility.yul\":16100:16546   */\n    tag_364:\n        /* \"#utility.yul\":16010:16553   */\n      pop\n      pop\n      pop\n      jump\t// out\n        /* \"#utility.yul\":16559:16676   */\n    tag_188:\n        /* \"#utility.yul\":16613:16621   */\n      0x00\n        /* \"#utility.yul\":16663:16668   */\n      dup3\n        /* \"#utility.yul\":16657:16661   */\n      dup3\n        /* \"#utility.yul\":16653:16669   */\n      shr\n        /* \"#utility.yul\":16632:16669   */\n      swap1\n      pop\n        /* \"#utility.yul\":16559:16676   */\n      swap3\n      swap2\n      pop\n      pop\n      jump\t// out\n        /* \"#utility.yul\":16682:16851   */\n    tag_189:\n        /* \"#utility.yul\":16726:16732   */\n      0x00\n        /* \"#utility.yul\":16759:16810   */\n      tag_372\n        /* \"#utility.yul\":16807:16808   */\n      0x00\n        /* \"#utility.yul\":16803:16809   */\n      not\n        /* \"#utility.yul\":16795:16800   */\n      dup5\n        /* \"#utility.yul\":16792:16793   */\n      0x08\n        /* \"#utility.yul\":16788:16801   */\n      mul\n        /* \"#utility.yul\":16759:16810   */\n      tag_188\n      jump\t// in\n    tag_372:\n        /* \"#utility.yul\":16755:16811   */\n      not\n        /* \"#utility.yul\":16840:16844   */\n      dup1\n        /* \"#utility.yul\":16834:16838   */\n      dup4\n        /* \"#utility.yul\":16830:16845   */\n      and\n        /* \"#utility.yul\":16820:16845   */\n      swap2\n      pop\n        /* \"#utility.yul\":16733:16851   */\n      pop\n        /* \"#utility.yul\":16682:16851   */\n      swap3\n      swap2\n      pop\n      pop\n      jump\t// out\n        /* \"#utility.yul\":16856:17151   */\n    tag_190:\n        /* \"#utility.yul\":16932:16936   */\n      0x00\n        /* \"#utility.yul\":17078:17107   */\n      tag_374\n        /* \"#utility.yul\":17103:17106   */\n      dup4\n        /* \"#utility.yul\":17097:17101   */\n      dup4\n        /* \"#utility.yul\":17078:17107   */\n      tag_189\n      jump\t// in\n    tag_374:\n        /* \"#utility.yul\":17070:17107   */\n      swap2\n      pop\n        /* \"#utility.yul\":17140:17143   */\n      dup3\n        /* \"#utility.yul\":17137:17138   */\n      0x02\n        /* \"#utility.yul\":17133:17144   */\n      mul\n        /* \"#utility.yul\":17127:17131   */\n      dup3\n        /* \"#utility.yul\":17124:17145   */\n      or\n        /* \"#utility.yul\":17116:17145   */\n      swap1\n      pop\n        /* \"#utility.yul\":16856:17151   */\n      swap3\n      swap2\n      pop\n      pop\n      jump\t// out\n        /* \"#utility.yul\":17156:18559   */\n    tag_100:\n        /* \"#utility.yul\":17280:17324   */\n      tag_376\n        /* \"#utility.yul\":17320:17323   */\n      dup4\n        /* \"#utility.yul\":17315:17318   */\n      dup4\n        /* \"#utility.yul\":17280:17324   */\n      tag_175\n      jump\t// in\n    tag_376:\n        /* \"#utility.yul\":17389:17407   */\n      0xffffffffffffffff\n        /* \"#utility.yul\":17381:17387   */\n      dup2\n        /* \"#utility.yul\":17378:17408   */\n      gt\n        /* \"#utility.yul\":17375:17431   */\n      iszero\n      tag_377\n      jumpi\n        /* \"#utility.yul\":17411:17429   */\n      tag_378\n      tag_176\n      jump\t// in\n    tag_378:\n        /* \"#utility.yul\":17375:17431   */\n    tag_377:\n        /* \"#utility.yul\":17455:17493   */\n      tag_379\n        /* \"#utility.yul\":17487:17491   */\n      dup3\n        /* \"#utility.yul\":17481:17492   */\n      sload\n        /* \"#utility.yul\":17455:17493   */\n      tag_89\n      jump\t// in\n    tag_379:\n        /* \"#utility.yul\":17540:17607   */\n      tag_380\n        /* \"#utility.yul\":17600:17606   */\n      dup3\n        /* \"#utility.yul\":17592:17598   */\n      dup3\n        /* \"#utility.yul\":17586:17590   */\n      dup6\n        /* \"#utility.yul\":17540:17607   */\n      tag_187\n      jump\t// in\n    tag_380:\n        /* \"#utility.yul\":17634:17635   */\n      0x00\n        /* \"#utility.yul\":17663:17665   */\n      0x1f\n        /* \"#utility.yul\":17655:17661   */\n      dup4\n        /* \"#utility.yul\":17652:17666   */\n      gt\n        /* \"#utility.yul\":17680:17681   */\n      0x01\n        /* \"#utility.yul\":17675:18307   */\n      dup2\n      eq\n      tag_382\n      jumpi\n        /* \"#utility.yul\":18351:18352   */\n      0x00\n        /* \"#utility.yul\":18368:18374   */\n      dup5\n        /* \"#utility.yul\":18365:18449   */\n      iszero\n      tag_383\n      jumpi\n        /* \"#utility.yul\":18424:18433   */\n      dup3\n        /* \"#utility.yul\":18419:18422   */\n      dup8\n        /* \"#utility.yul\":18415:18434   */\n      add\n        /* \"#utility.yul\":18402:18435   */\n      calldataload\n        /* \"#utility.yul\":18393:18435   */\n      swap1\n      pop\n        /* \"#utility.yul\":18365:18449   */\n    tag_383:\n        /* \"#utility.yul\":18475:18542   */\n      tag_384\n        /* \"#utility.yul\":18535:18541   */\n      dup6\n        /* \"#utility.yul\":18528:18533   */\n      dup3\n        /* \"#utility.yul\":18475:18542   */\n      tag_190\n      jump\t// in\n    tag_384:\n        /* \"#utility.yul\":18469:18473   */\n      dup7\n        /* \"#utility.yul\":18462:18543   */\n      sstore\n        /* \"#utility.yul\":18324:18553   */\n      pop\n        /* \"#utility.yul\":17645:18553   */\n      jump(tag_381)\n        /* \"#utility.yul\":17675:18307   */\n    tag_382:\n        /* \"#utility.yul\":17727:17731   */\n      0x1f\n        /* \"#utility.yul\":17723:17732   */\n      not\n        /* \"#utility.yul\":17715:17721   */\n      dup5\n        /* \"#utility.yul\":17711:17733   */\n      and\n        /* \"#utility.yul\":17761:17798   */\n      tag_385\n        /* \"#utility.yul\":17793:17797   */\n      dup7\n        /* \"#utility.yul\":17761:17798   */\n      tag_177\n      jump\t// in\n    tag_385:\n        /* \"#utility.yul\":17820:17821   */\n      0x00\n        /* \"#utility.yul\":17834:18049   */\n    tag_386:\n        /* \"#utility.yul\":17848:17855   */\n      dup3\n        /* \"#utility.yul\":17845:17846   */\n      dup2\n        /* \"#utility.yul\":17842:17856   */\n      lt\n        /* \"#utility.yul\":17834:18049   */\n      iszero\n      tag_388\n      jumpi\n        /* \"#utility.yul\":17934:17943   */\n      dup5\n        /* \"#utility.yul\":17929:17932   */\n      dup10\n        /* \"#utility.yul\":17925:17944   */\n      add\n        /* \"#utility.yul\":17912:17945   */\n      calldataload\n        /* \"#utility.yul\":17904:17910   */\n      dup3\n        /* \"#utility.yul\":17897:17946   */\n      sstore\n        /* \"#utility.yul\":17985:17986   */\n      0x01\n        /* \"#utility.yul\":17977:17983   */\n      dup3\n        /* \"#utility.yul\":17973:17987   */\n      add\n        /* \"#utility.yul\":17963:17987   */\n      swap2\n      pop\n        /* \"#utility.yul\":18032:18034   */\n      0x20\n        /* \"#utility.yul\":18021:18030   */\n      dup6\n        /* \"#utility.yul\":18017:18035   */\n      add\n        /* \"#utility.yul\":18004:18035   */\n      swap5\n      pop\n        /* \"#utility.yul\":17871:17875   */\n      0x20\n        /* \"#utility.yul\":17868:17869   */\n      dup2\n        /* \"#utility.yul\":17864:17876   */\n      add\n        /* \"#utility.yul\":17859:17876   */\n      swap1\n      pop\n        /* \"#utility.yul\":17834:18049   */\n      jump(tag_386)\n    tag_388:\n        /* \"#utility.yul\":18077:18083   */\n      dup7\n        /* \"#utility.yul\":18068:18075   */\n      dup4\n        /* \"#utility.yul\":18065:18084   */\n      lt\n        /* \"#utility.yul\":18062:18248   */\n      iszero\n      tag_389\n      jumpi\n        /* \"#utility.yul\":18142:18151   */\n      dup5\n        /* \"#utility.yul\":18137:18140   */\n      dup10\n        /* \"#utility.yul\":18133:18152   */\n      add\n        /* \"#utility.yul\":18120:18153   */\n      calldataload\n        /* \"#utility.yul\":18185:18233   */\n      tag_390\n        /* \"#utility.yul\":18227:18231   */\n      0x1f\n        /* \"#utility.yul\":18219:18225   */\n      dup10\n        /* \"#utility.yul\":18215:18232   */\n      and\n        /* \"#utility.yul\":18204:18213   */\n      dup3\n        /* \"#utility.yul\":18185:18233   */\n      tag_189\n      jump\t// in\n    tag_390:\n        /* \"#utility.yul\":18177:18183   */\n      dup4\n        /* \"#utility.yul\":18170:18234   */\n      sstore\n        /* \"#utility.yul\":18085:18248   */\n      pop\n        /* \"#utility.yul\":18062:18248   */\n    tag_389:\n        /* \"#utility.yul\":18294:18295   */\n      0x01\n        /* \"#utility.yul\":18290:18291   */\n      0x02\n        /* \"#utility.yul\":18282:18288   */\n      dup9\n        /* \"#utility.yul\":18278:18292   */\n      mul\n        /* \"#utility.yul\":18274:18296   */\n      add\n        /* \"#utility.yul\":18268:18272   */\n      dup9\n        /* \"#utility.yul\":18261:18297   */\n      sstore\n        /* \"#utility.yul\":17682:18307   */\n      pop\n      pop\n      pop\n        /* \"#utility.yul\":17645:18553   */\n    tag_381:\n      pop\n        /* \"#utility.yul\":17255:18559   */\n      pop\n      pop\n      pop\n        /* \"#utility.yul\":17156:18559   */\n      pop\n      pop\n      pop\n      jump\t// out\n        /* \"#utility.yul\":18565:18713   */\n    tag_191:\n        /* \"#utility.yul\":18663:18669   */\n      dup3\n        /* \"#utility.yul\":18658:18661   */\n      dup2\n        /* \"#utility.yul\":18653:18656   */\n      dup4\n        /* \"#utility.yul\":18640:18670   */\n      calldatacopy\n        /* \"#utility.yul\":18704:18705   */\n      0x00\n        /* \"#utility.yul\":18695:18701   */\n      dup4\n        /* \"#utility.yul\":18690:18693   */\n      dup4\n        /* \"#utility.yul\":18686:18702   */\n      add\n        /* \"#utility.yul\":18679:18706   */\n      mstore\n        /* \"#utility.yul\":18565:18713   */\n      pop\n      pop\n      pop\n      jump\t// out\n        /* \"#utility.yul\":18743:19060   */\n    tag_192:\n        /* \"#utility.yul\":18841:18844   */\n      0x00\n        /* \"#utility.yul\":18862:18933   */\n      tag_393\n        /* \"#utility.yul\":18926:18932   */\n      dup4\n        /* \"#utility.yul\":18921:18924   */\n      dup6\n        /* \"#utility.yul\":18862:18933   */\n      tag_146\n      jump\t// in\n    tag_393:\n        /* \"#utility.yul\":18855:18933   */\n      swap4\n      pop\n        /* \"#utility.yul\":18943:18999   */\n      tag_394\n        /* \"#utility.yul\":18992:18998   */\n      dup4\n        /* \"#utility.yul\":18987:18990   */\n      dup6\n        /* \"#utility.yul\":18980:18985   */\n      dup5\n        /* \"#utility.yul\":18943:18999   */\n      tag_191\n      jump\t// in\n    tag_394:\n        /* \"#utility.yul\":19024:19053   */\n      tag_395\n        /* \"#utility.yul\":19046:19052   */\n      dup4\n        /* \"#utility.yul\":19024:19053   */\n      tag_148\n      jump\t// in\n    tag_395:\n        /* \"#utility.yul\":19019:19022   */\n      dup5\n        /* \"#utility.yul\":19015:19054   */\n      add\n        /* \"#utility.yul\":19008:19054   */\n      swap1\n      pop\n        /* \"#utility.yul\":18743:19060   */\n      swap4\n      swap3\n      pop\n      pop\n      pop\n      jump\t// out\n        /* \"#utility.yul\":19066:19635   */\n    tag_102:\n        /* \"#utility.yul\":19253:19257   */\n      0x00\n        /* \"#utility.yul\":19291:19293   */\n      0x60\n        /* \"#utility.yul\":19280:19289   */\n      dup3\n        /* \"#utility.yul\":19276:19294   */\n      add\n        /* \"#utility.yul\":19268:19294   */\n      swap1\n      pop\n        /* \"#utility.yul\":19340:19349   */\n      dup2\n        /* \"#utility.yul\":19334:19338   */\n      dup2\n        /* \"#utility.yul\":19330:19350   */\n      sub\n        /* \"#utility.yul\":19326:19327   */\n      0x00\n        /* \"#utility.yul\":19315:19324   */\n      dup4\n        /* \"#utility.yul\":19311:19328   */\n      add\n        /* \"#utility.yul\":19304:19351   */\n      mstore\n        /* \"#utility.yul\":19368:19456   */\n      tag_397\n        /* \"#utility.yul\":19451:19455   */\n      dup2\n        /* \"#utility.yul\":19442:19448   */\n      dup7\n        /* \"#utility.yul\":19434:19440   */\n      dup9\n        /* \"#utility.yul\":19368:19456   */\n      tag_192\n      jump\t// in\n    tag_397:\n        /* \"#utility.yul\":19360:19456   */\n      swap1\n      pop\n        /* \"#utility.yul\":19466:19538   */\n      tag_398\n        /* \"#utility.yul\":19534:19536   */\n      0x20\n        /* \"#utility.yul\":19523:19532   */\n      dup4\n        /* \"#utility.yul\":19519:19537   */\n      add\n        /* \"#utility.yul\":19510:19516   */\n      dup6\n        /* \"#utility.yul\":19466:19538   */\n      tag_150\n      jump\t// in\n    tag_398:\n        /* \"#utility.yul\":19548:19628   */\n      tag_399\n        /* \"#utility.yul\":19624:19626   */\n      0x40\n        /* \"#utility.yul\":19613:19622   */\n      dup4\n        /* \"#utility.yul\":19609:19627   */\n      add\n        /* \"#utility.yul\":19600:19606   */\n      dup5\n        /* \"#utility.yul\":19548:19628   */\n      tag_173\n      jump\t// in\n    tag_399:\n        /* \"#utility.yul\":19066:19635   */\n      swap6\n      swap5\n      pop\n      pop\n      pop\n      pop\n      pop\n      jump\t// out\n        /* \"#utility.yul\":19641:19819   */\n    tag_193:\n        /* \"#utility.yul\":19781:19811   */\n      0x4d696e696d756d20636f6e747269627574696f6e206e6f74206d657400000000\n        /* \"#utility.yul\":19777:19778   */\n      0x00\n        /* \"#utility.yul\":19769:19775   */\n      dup3\n        /* \"#utility.yul\":19765:19779   */\n      add\n        /* \"#utility.yul\":19758:19812   */\n      mstore\n        /* \"#utility.yul\":19641:19819   */\n      pop\n      jump\t// out\n        /* \"#utility.yul\":19825:20191   */\n    tag_194:\n        /* \"#utility.yul\":19967:19970   */\n      0x00\n        /* \"#utility.yul\":19988:20055   */\n      tag_402\n        /* \"#utility.yul\":20052:20054   */\n      0x1c\n        /* \"#utility.yul\":20047:20050   */\n      dup4\n        /* \"#utility.yul\":19988:20055   */\n      tag_146\n      jump\t// in\n    tag_402:\n        /* \"#utility.yul\":19981:20055   */\n      swap2\n      pop\n        /* \"#utility.yul\":20064:20157   */\n      tag_403\n        /* \"#utility.yul\":20153:20156   */\n      dup3\n        /* \"#utility.yul\":20064:20157   */\n      tag_193\n      jump\t// in\n    tag_403:\n        /* \"#utility.yul\":20182:20184   */\n      0x20\n        /* \"#utility.yul\":20177:20180   */\n      dup3\n        /* \"#utility.yul\":20173:20185   */\n      add\n        /* \"#utility.yul\":20166:20185   */\n      swap1\n      pop\n        /* \"#utility.yul\":19825:20191   */\n      swap2\n      swap1\n      pop\n      jump\t// out\n        /* \"#utility.yul\":20197:20616   */\n    tag_115:\n        /* \"#utility.yul\":20363:20367   */\n      0x00\n        /* \"#utility.yul\":20401:20403   */\n      0x20\n        /* \"#utility.yul\":20390:20399   */\n      dup3\n        /* \"#utility.yul\":20386:20404   */\n      add\n        /* \"#utility.yul\":20378:20404   */\n      swap1\n      pop\n        /* \"#utility.yul\":20450:20459   */\n      dup2\n        /* \"#utility.yul\":20444:20448   */\n      dup2\n        /* \"#utility.yul\":20440:20460   */\n      sub\n        /* \"#utility.yul\":20436:20437   */\n      0x00\n        /* \"#utility.yul\":20425:20434   */\n      dup4\n        /* \"#utility.yul\":20421:20438   */\n      add\n        /* \"#utility.yul\":20414:20461   */\n      mstore\n        /* \"#utility.yul\":20478:20609   */\n      tag_405\n        /* \"#utility.yul\":20604:20608   */\n      dup2\n        /* \"#utility.yul\":20478:20609   */\n      tag_194\n      jump\t// in\n    tag_405:\n        /* \"#utility.yul\":20470:20609   */\n      swap1\n      pop\n        /* \"#utility.yul\":20197:20616   */\n      swap2\n      swap1\n      pop\n      jump\t// out\n        /* \"#utility.yul\":20622:20855   */\n    tag_118:\n        /* \"#utility.yul\":20661:20664   */\n      0x00\n        /* \"#utility.yul\":20684:20708   */\n      tag_407\n        /* \"#utility.yul\":20702:20707   */\n      dup3\n        /* \"#utility.yul\":20684:20708   */\n      tag_135\n      jump\t// in\n    tag_407:\n        /* \"#utility.yul\":20675:20708   */\n      swap2\n      pop\n        /* \"#utility.yul\":20730:20796   */\n      0xffffffffffffffffffffffffffffffffffffffffffffffffffffffffffffffff\n        /* \"#utility.yul\":20723:20728   */\n      dup3\n        /* \"#utility.yul\":20720:20797   */\n      sub\n        /* \"#utility.yul\":20717:20820   */\n      tag_408\n      jumpi\n        /* \"#utility.yul\":20800:20818   */\n      tag_409\n      tag_164\n      jump\t// in\n    tag_409:\n        /* \"#utility.yul\":20717:20820   */\n    tag_408:\n        /* \"#utility.yul\":20847:20848   */\n      0x01\n        /* \"#utility.yul\":20840:20845   */\n      dup3\n        /* \"#utility.yul\":20836:20849   */\n      add\n        /* \"#utility.yul\":20829:20849   */\n      swap1\n      pop\n        /* \"#utility.yul\":20622:20855   */\n      swap2\n      swap1\n      pop\n      jump\t// out\n        /* \"#utility.yul\":20861:21036   */\n    tag_195:\n        /* \"#utility.yul\":21001:21028   */\n      0x596f7520617265206e6f74206120636f6e7472696275746f7200000000000000\n        /* \"#utility.yul\":20997:20998   */\n      0x00\n        /* \"#utility.yul\":20989:20995   */\n      dup3\n        /* \"#utility.yul\":20985:20999   */\n      add\n        /* \"#utility.yul\":20978:21029   */\n      mstore\n        /* \"#utility.yul\":20861:21036   */\n      pop\n      jump\t// out\n        /* \"#utility.yul\":21042:21408   */\n    tag_196:\n        /* \"#utility.yul\":21184:21187   */\n      0x00\n        /* \"#utility.yul\":21205:21272   */\n      tag_412\n        /* \"#utility.yul\":21269:21271   */\n      0x19\n        /* \"#utility.yul\":21264:21267   */\n      dup4\n        /* \"#utility.yul\":21205:21272   */\n      tag_146\n      jump\t// in\n    tag_412:\n        /* \"#utility.yul\":21198:21272   */\n      swap2\n      pop\n        /* \"#utility.yul\":21281:21374   */\n      tag_413\n        /* \"#utility.yul\":21370:21373   */\n      dup3\n        /* \"#utility.yul\":21281:21374   */\n      tag_195\n      jump\t// in\n    tag_413:\n        /* \"#utility.yul\":21399:21401   */\n      0x20\n        /* \"#utility.yul\":21394:21397   */\n      dup3\n        /* \"#utility.yul\":21390:21402   */\n      add\n        /* \"#utility.yul\":21383:21402   */\n      swap1\n      pop\n        /* \"#utility.yul\":21042:21408   */\n      swap2\n      swap1\n      pop\n      jump\t// out\n        /* \"#utility.yul\":21414:21833   */\n    tag_125:\n        /* \"#utility.yul\":21580:21584   */\n      0x00\n        /* \"#utility.yul\":21618:21620   */\n      0x20\n        /* \"#utility.yul\":21607:21616   */\n      dup3\n        /* \"#utility.yul\":21603:21621   */\n      add\n        /* \"#utility.yul\":21595:21621   */\n      swap1\n      pop\n        /* \"#utility.yul\":21667:21676   */\n      dup2\n        /* \"#utility.yul\":21661:21665   */\n      dup2\n        /* \"#utility.yul\":21657:21677   */\n      sub\n        /* \"#utility.yul\":21653:21654   */\n      0x00\n        /* \"#utility.yul\":21642:21651   */\n      dup4\n        /* \"#utility.yul\":21638:21655   */\n      add\n        /* \"#utility.yul\":21631:21678   */\n      mstore\n        /* \"#utility.yul\":21695:21826   */\n      tag_415\n        /* \"#utility.yul\":21821:21825   */\n      dup2\n        /* \"#utility.yul\":21695:21826   */\n      tag_196\n      jump\t// in\n    tag_415:\n        /* \"#utility.yul\":21687:21826   */\n      swap1\n      pop\n        /* \"#utility.yul\":21414:21833   */\n      swap2\n      swap1\n      pop\n      jump\t// out\n        /* \"#utility.yul\":21839:22005   */\n    tag_197:\n        /* \"#utility.yul\":21979:21997   */\n      0x416c726561647920617070726f76656400000000000000000000000000000000\n        /* \"#utility.yul\":21975:21976   */\n      0x00\n        /* \"#utility.yul\":21967:21973   */\n      dup3\n        /* \"#utility.yul\":21963:21977   */\n      add\n        /* \"#utility.yul\":21956:21998   */\n      mstore\n        /* \"#utility.yul\":21839:22005   */\n      pop\n      jump\t// out\n        /* \"#utility.yul\":22011:22377   */\n    tag_198:\n        /* \"#utility.yul\":22153:22156   */\n      0x00\n        /* \"#utility.yul\":22174:22241   */\n      tag_418\n        /* \"#utility.yul\":22238:22240   */\n      0x10\n        /* \"#utility.yul\":22233:22236   */\n      dup4\n        /* \"#utility.yul\":22174:22241   */\n      tag_146\n      jump\t// in\n    tag_418:\n        /* \"#utility.yul\":22167:22241   */\n      swap2\n      pop\n        /* \"#utility.yul\":22250:22343   */\n      tag_419\n        /* \"#utility.yul\":22339:22342   */\n      dup3\n        /* \"#utility.yul\":22250:22343   */\n      tag_197\n      jump\t// in\n    tag_419:\n        /* \"#utility.yul\":22368:22370   */\n      0x20\n        /* \"#utility.yul\":22363:22366   */\n      dup3\n        /* \"#utility.yul\":22359:22371   */\n      add\n        /* \"#utility.yul\":22352:22371   */\n      swap1\n      pop\n        /* \"#utility.yul\":22011:22377   */\n      swap2\n      swap1\n      pop\n      jump\t// out\n        /* \"#utility.yul\":22383:22802   */\n    tag_128:\n        /* \"#utility.yul\":22549:22553   */\n      0x00\n        /* \"#utility.yul\":22587:22589   */\n      0x20\n        /* \"#utility.yul\":22576:22585   */\n      dup3\n        /* \"#utility.yul\":22572:22590   */\n      add\n        /* \"#utility.yul\":22564:22590   */\n      swap1\n      pop\n        /* \"#utility.yul\":22636:22645   */\n      dup2\n        /* \"#utility.yul\":22630:22634   */\n      dup2\n        /* \"#utility.yul\":22626:22646   */\n      sub\n        /* \"#utility.yul\":22622:22623   */\n      0x00\n        /* \"#utility.yul\":22611:22620   */\n      dup4\n        /* \"#utility.yul\":22607:22624   */\n      add\n        /* \"#utility.yul\":22600:22647   */\n      mstore\n        /* \"#utility.yul\":22664:22795   */\n      tag_421\n        /* \"#utility.yul\":22790:22794   */\n      dup2\n        /* \"#utility.yul\":22664:22795   */\n      tag_198\n      jump\t// in\n    tag_421:\n        /* \"#utility.yul\":22656:22795   */\n      swap1\n      pop\n        /* \"#utility.yul\":22383:22802   */\n      swap2\n      swap1\n      pop\n      jump\t// out\n        /* \"#utility.yul\":22808:23140   */\n    tag_131:\n        /* \"#utility.yul\":22929:22933   */\n      0x00\n        /* \"#utility.yul\":22967:22969   */\n      0x40\n        /* \"#utility.yul\":22956:22965   */\n      dup3\n        /* \"#utility.yul\":22952:22970   */\n      add\n        /* \"#utility.yul\":22944:22970   */\n      swap1\n      pop\n        /* \"#utility.yul\":22980:23051   */\n      tag_423\n        /* \"#utility.yul\":23048:23049   */\n      0x00\n        /* \"#utility.yul\":23037:23046   */\n      dup4\n        /* \"#utility.yul\":23033:23050   */\n      add\n        /* \"#utility.yul\":23024:23030   */\n      dup6\n        /* \"#utility.yul\":22980:23051   */\n      tag_150\n      jump\t// in\n    tag_423:\n        /* \"#utility.yul\":23061:23133   */\n      tag_424\n        /* \"#utility.yul\":23129:23131   */\n      0x20\n        /* \"#utility.yul\":23118:23127   */\n      dup4\n        /* \"#utility.yul\":23114:23132   */\n      add\n        /* \"#utility.yul\":23105:23111   */\n      dup5\n        /* \"#utility.yul\":23061:23133   */\n      tag_144\n      jump\t// in\n    tag_424:\n        /* \"#utility.yul\":22808:23140   */\n      swap4\n      swap3\n      pop\n      pop\n      pop\n      jump\t// out\n\n    auxdata: 0xa2646970667358221220181a39e298325bc2ecda9d7520cf2e7858eb7f019a4410d0be094ad54073279c64736f6c63430008190033\n}\n","bytecode":{"linkReferences":{},"object":"608060405234801561000f575f80fd5b506040516118c63803806118c68339818101604052810190610031919061010f565b805f806101000a81548173ffffffffffffffffffffffffffffffffffffffff021916908373ffffffffffffffffffffffffffffffffffffffff16021790555081600181905550505061014d565b5f80fd5b5f819050919050565b61009481610082565b811461009e575f80fd5b50565b5f815190506100af8161008b565b92915050565b5f73ffffffffffffffffffffffffffffffffffffffff82169050919050565b5f6100de826100b5565b9050919050565b6100ee816100d4565b81146100f8575f80fd5b50565b5f81519050610109816100e5565b92915050565b5f80604083850312156101255761012461007e565b5b5f610132858286016100a1565b9250506020610143858286016100fb565b9150509250929050565b61176c8061015a5f395ff3fe608060405260043610610090575f3560e01c80638a9cfd55116100585780638a9cfd551461018c578063937e09b1146101b4578063c58343ef146101de578063d7bb99ba1461021e578063d7d1bbdb1461022857610090565b806303441006146100945780630a144391146100bc578063481c6a75146100f857806381d12c581461012257806382fde09314610162575b5f80fd5b34801561009f575f80fd5b506100ba60048036038101906100b59190610bb5565b610250565b005b3480156100c7575f80fd5b506100e260048036038101906100dd9190610c3a565b6104d5565b6040516100ef9190610c7f565b60405180910390f35b348015610103575f80fd5b5061010c6104f2565b6040516101199190610ca7565b60405180910390f35b34801561012d575f80fd5b5061014860048036038101906101439190610bb5565b610515565b604051610159959493929190610d5f565b60405180910390f35b34801561016d575f80fd5b50610176610608565b6040516101839190610db7565b60405180910390f35b348015610197575f80fd5b506101b260048036038101906101ad9190610e5b565b61060e565b005b3480156101bf575f80fd5b506101c8610783565b6040516101d59190610db7565b60405180910390f35b3480156101e9575f80fd5b5061020460048036038101906101ff9190610bb5565b610789565b604051610215959493929190610ecc565b60405180910390f35b610226610893565b005b348015610233575f80fd5b5061024e60048036038101906102499190610bb5565b610995565b005b5f8054906101000a900473ffffffffffffffffffffffffffffffffffffffff1673ffffffffffffffffffffffffffffffffffffffff163373ffffffffffffffffffffffffffffffffffffffff16146102dd576040517f08c379a00000000000000000000000000000000000000000000000000000000081526004016102d490610f94565b60405180910390fd5b5f600382815481106102f2576102f1610fb2565b5b905f5260205f20906005020190508060020160149054906101000a900460ff1615610352576040517f08c379a000000000000000000000000000000000000000000000000000000000815260040161034990611029565b60405180910390fd5b600260045461036191906110a1565b8160030154116103a6576040517f08c379a000000000000000000000000000000000000000000000000000000000815260040161039d9061111b565b60405180910390fd5b80600101544710156103ed576040517f08c379a00000000000000000000000000000000000000000000000000000000081526004016103e490611183565b60405180910390fd5b60018160020160146101000a81548160ff021916908315150217905550806002015f9054906101000a900473ffffffffffffffffffffffffffffffffffffffff1673ffffffffffffffffffffffffffffffffffffffff166108fc826001015490811502906040515f60405180830381858888f19350505050158015610474573d5f803e3d5ffd5b507f9b7a7ab138570b3419ea6a5de03585eecb36f1f124c5d06628dc6a80c6bd090d82826002015f9054906101000a900473ffffffffffffffffffffffffffffffffffffffff166040516104c99291906111fc565b60405180910390a15050565b6002602052805f5260405f205f915054906101000a900460ff1681565b5f8054906101000a900473ffffffffffffffffffffffffffffffffffffffff1681565b60038181548110610524575f80fd5b905f5260205f2090600502015f91509050805f01805461054390611250565b80601f016020809104026020016040519081016040528092919081815260200182805461056f90611250565b80156105ba5780601f10610591576101008083540402835291602001916105ba565b820191905f5260205f20905b81548152906001019060200180831161059d57829003601f168201915b505050505090806001015490806002015f9054906101000a900473ffffffffffffffffffffffffffffffffffffffff16908060020160149054906101000a900460ff16908060030154905085565b60045481565b5f8054906101000a900473ffffffffffffffffffffffffffffffffffffffff1673ffffffffffffffffffffffffffffffffffffffff163373ffffffffffffffffffffffffffffffffffffffff161461069b576040517f08c379a000000000000000000000000000000000000000000000000000000000815260040161069290610f94565b60405180910390fd5b5f600360018160018154018082558091505003905f5260205f20906005020190508484825f0191826106ce92919061144b565b5082816001018190555081816002015f6101000a81548173ffffffffffffffffffffffffffffffffffffffff021916908373ffffffffffffffffffffffffffffffffffffffff1602179055505f8160020160146101000a81548160ff0219169083151502179055505f81600301819055507f7c8193f35c0be0f0de85a76806a85eb113857a95308e004a23313fa4dda3293e858585856040516107749493929190611552565b60405180910390a15050505050565b60015481565b60605f805f805f600387815481106107a4576107a3610fb2565b5b905f5260205f2090600502019050805f018160010154826002015f9054906101000a900473ffffffffffffffffffffffffffffffffffffffff168360020160149054906101000a900460ff16846003015484805461080190611250565b80601f016020809104026020016040519081016040528092919081815260200182805461082d90611250565b80156108785780601f1061084f57610100808354040283529160200191610878565b820191905f5260205f20905b81548152906001019060200180831161085b57829003601f168201915b50505050509450955095509550955095505091939590929450565b6001543410156108d8576040517f08c379a00000000000000000000000000000000000000000000000000000000081526004016108cf906115da565b60405180910390fd5b60025f3373ffffffffffffffffffffffffffffffffffffffff1673ffffffffffffffffffffffffffffffffffffffff1681526020019081526020015f205f9054906101000a900460ff1661099357600160025f3373ffffffffffffffffffffffffffffffffffffffff1673ffffffffffffffffffffffffffffffffffffffff1681526020019081526020015f205f6101000a81548160ff02191690831515021790555060045f81548092919061098d906115f8565b91905055505b565b5f600382815481106109aa576109a9610fb2565b5b905f5260205f209060050201905060025f3373ffffffffffffffffffffffffffffffffffffffff1673ffffffffffffffffffffffffffffffffffffffff1681526020019081526020015f205f9054906101000a900460ff16610a41576040517f08c379a0000000000000000000000000000000000000000000000000000000008152600401610a3890611689565b60405180910390fd5b806004015f3373ffffffffffffffffffffffffffffffffffffffff1673ffffffffffffffffffffffffffffffffffffffff1681526020019081526020015f205f9054906101000a900460ff1615610acd576040517f08c379a0000000000000000000000000000000000000000000000000000000008152600401610ac4906116f1565b60405180910390fd5b6001816004015f3373ffffffffffffffffffffffffffffffffffffffff1673ffffffffffffffffffffffffffffffffffffffff1681526020019081526020015f205f6101000a81548160ff021916908315150217905550806003015f815480929190610b38906115f8565b91905055507ff3dc904660a0ea05aba8dfa1e21fbc4fb2914be2a3029da7b0fdd3e5eee20ddb8233604051610b6e92919061170f565b60405180910390a15050565b5f80fd5b5f80fd5b5f819050919050565b610b9481610b82565b8114610b9e575f80fd5b50565b5f81359050610baf81610b8b565b92915050565b5f60208284031215610bca57610bc9610b7a565b5b5f610bd784828501610ba1565b91505092915050565b5f73ffffffffffffffffffffffffffffffffffffffff82169050919050565b5f610c0982610be0565b9050919050565b610c1981610bff565b8114610c23575f80fd5b50565b5f81359050610c3481610c10565b92915050565b5f60208284031215610c4f57610c4e610b7a565b5b5f610c5c84828501610c26565b91505092915050565b5f8115159050919050565b610c7981610c65565b82525050565b5f602082019050610c925f830184610c70565b92915050565b610ca181610bff565b82525050565b5f602082019050610cba5f830184610c98565b92915050565b5f81519050919050565b5f82825260208201905092915050565b8281835e5f83830152505050565b5f601f19601f8301169050919050565b5f610d0282610cc0565b610d0c8185610cca565b9350610d1c818560208601610cda565b610d2581610ce8565b840191505092915050565b610d3981610b82565b82525050565b5f610d4982610be0565b9050919050565b610d5981610d3f565b82525050565b5f60a0820190508181035f830152610d778188610cf8565b9050610d866020830187610d30565b610d936040830186610d50565b610da06060830185610c70565b610dad6080830184610d30565b9695505050505050565b5f602082019050610dca5f830184610d30565b92915050565b5f80fd5b5f80fd5b5f80fd5b5f8083601f840112610df157610df0610dd0565b5b8235905067ffffffffffffffff811115610e0e57610e0d610dd4565b5b602083019150836001820283011115610e2a57610e29610dd8565b5b9250929050565b610e3a81610d3f565b8114610e44575f80fd5b50565b5f81359050610e5581610e31565b92915050565b5f805f8060608587031215610e7357610e72610b7a565b5b5f85013567ffffffffffffffff811115610e9057610e8f610b7e565b5b610e9c87828801610ddc565b94509450506020610eaf87828801610ba1565b9250506040610ec087828801610e47565b91505092959194509250565b5f60a0820190508181035f830152610ee48188610cf8565b9050610ef36020830187610d30565b610f006040830186610c98565b610f0d6060830185610c70565b610f1a6080830184610d30565b9695505050505050565b7f4f6e6c7920746865206d616e616765722063616e2063616c6c207468697320665f8201527f756e6374696f6e00000000000000000000000000000000000000000000000000602082015250565b5f610f7e602783610cca565b9150610f8982610f24565b604082019050919050565b5f6020820190508181035f830152610fab81610f72565b9050919050565b7f4e487b71000000000000000000000000000000000000000000000000000000005f52603260045260245ffd5b7f5265717565737420697320616c726561647920636f6d706c65746564000000005f82015250565b5f611013601c83610cca565b915061101e82610fdf565b602082019050919050565b5f6020820190508181035f83015261104081611007565b9050919050565b7f4e487b71000000000000000000000000000000000000000000000000000000005f52601260045260245ffd5b7f4e487b71000000000000000000000000000000000000000000000000000000005f52601160045260245ffd5b5f6110ab82610b82565b91506110b683610b82565b9250826110c6576110c5611047565b5b828204905092915050565b7f4e656564206d6f726520617070726f76616c73000000000000000000000000005f82015250565b5f611105601383610cca565b9150611110826110d1565b602082019050919050565b5f6020820190508181035f830152611132816110f9565b9050919050565b7f4e6f7420656e6f756768204554480000000000000000000000000000000000005f82015250565b5f61116d600e83610cca565b915061117882611139565b602082019050919050565b5f6020820190508181035f83015261119a81611161565b9050919050565b5f819050919050565b5f6111c46111bf6111ba84610be0565b6111a1565b610be0565b9050919050565b5f6111d5826111aa565b9050919050565b5f6111e6826111cb565b9050919050565b6111f6816111dc565b82525050565b5f60408201905061120f5f830185610d30565b61121c60208301846111ed565b9392505050565b7f4e487b71000000000000000000000000000000000000000000000000000000005f52602260045260245ffd5b5f600282049050600182168061126757607f821691505b60208210810361127a57611279611223565b5b50919050565b5f82905092915050565b7f4e487b71000000000000000000000000000000000000000000000000000000005f52604160045260245ffd5b5f819050815f5260205f209050919050565b5f6020601f8301049050919050565b5f82821b905092915050565b5f600883026113137fffffffffffffffffffffffffffffffffffffffffffffffffffffffffffffffff826112d8565b61131d86836112d8565b95508019841693508086168417925050509392505050565b5f61134f61134a61134584610b82565b6111a1565b610b82565b9050919050565b5f819050919050565b61136883611335565b61137c61137482611356565b8484546112e4565b825550505050565b5f90565b611390611384565b61139b81848461135f565b505050565b5b818110156113be576113b35f82611388565b6001810190506113a1565b5050565b601f821115611403576113d4816112b7565b6113dd846112c9565b810160208510156113ec578190505b6114006113f8856112c9565b8301826113a0565b50505b505050565b5f82821c905092915050565b5f6114235f1984600802611408565b1980831691505092915050565b5f61143b8383611414565b9150826002028217905092915050565b6114558383611280565b67ffffffffffffffff81111561146e5761146d61128a565b5b6114788254611250565b6114838282856113c2565b5f601f8311600181146114b0575f841561149e578287013590505b6114a88582611430565b86555061150f565b601f1984166114be866112b7565b5f5b828110156114e5578489013582556001820191506020850194506020810190506114c0565b8683101561150257848901356114fe601f891682611414565b8355505b6001600288020188555050505b50505050505050565b828183375f83830152505050565b5f6115318385610cca565b935061153e838584611518565b61154783610ce8565b840190509392505050565b5f6060820190508181035f83015261156b818688611526565b905061157a6020830185610d30565b61158760408301846111ed565b95945050505050565b7f4d696e696d756d20636f6e747269627574696f6e206e6f74206d6574000000005f82015250565b5f6115c4601c83610cca565b91506115cf82611590565b602082019050919050565b5f6020820190508181035f8301526115f1816115b8565b9050919050565b5f61160282610b82565b91507fffffffffffffffffffffffffffffffffffffffffffffffffffffffffffffffff820361163457611633611074565b5b600182019050919050565b7f596f7520617265206e6f74206120636f6e7472696275746f72000000000000005f82015250565b5f611673601983610cca565b915061167e8261163f565b602082019050919050565b5f6020820190508181035f8301526116a081611667565b9050919050565b7f416c726561647920617070726f766564000000000000000000000000000000005f82015250565b5f6116db601083610cca565b91506116e6826116a7565b602082019050919050565b5f6020820190508181035f830152611708816116cf565b9050919050565b5f6040820190506117225f830185610d30565b61172f6020830184610c98565b939250505056fea2646970667358221220181a39e298325bc2ecda9d7520cf2e7858eb7f019a4410d0be094ad54073279c64736f6c63430008190033","opcodes":"PUSH1 0x80 PUSH1 0x40 MSTORE CALLVALUE DUP1 ISZERO PUSH2 0xF JUMPI PUSH0 DUP1 REVERT JUMPDEST POP PUSH1 0x40 MLOAD PUSH2 0x18C6 CODESIZE SUB DUP1 PUSH2 0x18C6 DUP4 CODECOPY DUP2 DUP2 ADD PUSH1 0x40 MSTORE DUP2 ADD SWAP1 PUSH2 0x31 SWAP2 SWAP1 PUSH2 0x10F JUMP JUMPDEST DUP1 PUSH0 DUP1 PUSH2 0x100 EXP DUP2 SLOAD DUP2 PUSH20 0xFFFFFFFFFFFFFFFFFFFFFFFFFFFFFFFFFFFFFFFF MUL NOT AND SWAP1 DUP4 PUSH20 0xFFFFFFFFFFFFFFFFFFFFFFFFFFFFFFFFFFFFFFFF AND MUL OR SWAP1 SSTORE POP DUP2 PUSH1 0x1 DUP2 SWAP1 SSTORE POP POP POP PUSH2 0x14D JUMP JUMPDEST PUSH0 DUP1 REVERT JUMPDEST PUSH0 DUP2 SWAP1 POP SWAP2 SWAP1 POP JUMP JUMPDEST PUSH2 0x94 DUP2 PUSH2 0x82 JUMP JUMPDEST DUP2 EQ PUSH2 0x9E JUMPI PUSH0 DUP1 REVERT JUMPDEST POP JUMP JUMPDEST PUSH0 DUP2 MLOAD SWAP1 POP PUSH2 0xAF DUP2 PUSH2 0x8B JUMP JUMPDEST SWAP3 SWAP2 POP POP JUMP JUMPDEST PUSH0 PUSH20 0xFFFFFFFFFFFFFFFFFFFFFFFFFFFFFFFFFFFFFFFF DUP3 AND SWAP1 POP SWAP2 SWAP1 POP JUMP JUMPDEST PUSH0 PUSH2 0xDE DUP3 PUSH2 0xB5 JUMP JUMPDEST SWAP1 POP SWAP2 SWAP1 POP JUMP JUMPDEST PUSH2 0xEE DUP2 PUSH2 0xD4 JUMP JUMPDEST DUP2 EQ PUSH2 0xF8 JUMPI PUSH0 DUP1 REVERT JUMPDEST POP JUMP JUMPDEST PUSH0 DUP2 MLOAD SWAP1 POP PUSH2 0x109 DUP2 PUSH2 0xE5 JUMP JUMPDEST SWAP3 SWAP2 POP POP JUMP JUMPDEST PUSH0 DUP1 PUSH1 0x40 DUP4 DUP6 SUB SLT ISZERO PUSH2 0x125 JUMPI PUSH2 0x124 PUSH2 0x7E JUMP JUMPDEST JUMPDEST PUSH0 PUSH2 0x132 DUP6 DUP3 DUP7 ADD PUSH2 0xA1 JUMP JUMPDEST SWAP3 POP POP PUSH1 0x20 PUSH2 0x143 DUP6 DUP3 DUP7 ADD PUSH2 0xFB JUMP JUMPDEST SWAP2 POP POP SWAP3 POP SWAP3 SWAP1 POP JUMP JUMPDEST PUSH2 0x176C DUP1 PUSH2 0x15A PUSH0 CODECOPY PUSH0 RETURN INVALID PUSH1 0x80 PUSH1 0x40 MSTORE PUSH1 0x4 CALLDATASIZE LT PUSH2 0x90 JUMPI PUSH0 CALLDATALOAD PUSH1 0xE0 SHR DUP1 PUSH4 0x8A9CFD55 GT PUSH2 0x58 JUMPI DUP1 PUSH4 0x8A9CFD55 EQ PUSH2 0x18C JUMPI DUP1 PUSH4 0x937E09B1 EQ PUSH2 0x1B4 JUMPI DUP1 PUSH4 0xC58343EF EQ PUSH2 0x1DE JUMPI DUP1 PUSH4 0xD7BB99BA EQ PUSH2 0x21E JUMPI DUP1 PUSH4 0xD7D1BBDB EQ PUSH2 0x228 JUMPI PUSH2 0x90 JUMP JUMPDEST DUP1 PUSH4 0x3441006 EQ PUSH2 0x94 JUMPI DUP1 PUSH4 0xA144391 EQ PUSH2 0xBC JUMPI DUP1 PUSH4 0x481C6A75 EQ PUSH2 0xF8 JUMPI DUP1 PUSH4 0x81D12C58 EQ PUSH2 0x122 JUMPI DUP1 PUSH4 0x82FDE093 EQ PUSH2 0x162 JUMPI JUMPDEST PUSH0 DUP1 REVERT JUMPDEST CALLVALUE DUP1 ISZERO PUSH2 0x9F JUMPI PUSH0 DUP1 REVERT JUMPDEST POP PUSH2 0xBA PUSH1 0x4 DUP1 CALLDATASIZE SUB DUP2 ADD SWAP1 PUSH2 0xB5 SWAP2 SWAP1 PUSH2 0xBB5 JUMP JUMPDEST PUSH2 0x250 JUMP JUMPDEST STOP JUMPDEST CALLVALUE DUP1 ISZERO PUSH2 0xC7 JUMPI PUSH0 DUP1 REVERT JUMPDEST POP PUSH2 0xE2 PUSH1 0x4 DUP1 CALLDATASIZE SUB DUP2 ADD SWAP1 PUSH2 0xDD SWAP2 SWAP1 PUSH2 0xC3A JUMP JUMPDEST PUSH2 0x4D5 JUMP JUMPDEST PUSH1 0x40 MLOAD PUSH2 0xEF SWAP2 SWAP1 PUSH2 0xC7F JUMP JUMPDEST PUSH1 0x40 MLOAD DUP1 SWAP2 SUB SWAP1 RETURN JUMPDEST CALLVALUE DUP1 ISZERO PUSH2 0x103 JUMPI PUSH0 DUP1 REVERT JUMPDEST POP PUSH2 0x10C PUSH2 0x4F2 JUMP JUMPDEST PUSH1 0x40 MLOAD PUSH2 0x119 SWAP2 SWAP1 PUSH2 0xCA7 JUMP JUMPDEST PUSH1 0x40 MLOAD DUP1 SWAP2 SUB SWAP1 RETURN JUMPDEST CALLVALUE DUP1 ISZERO PUSH2 0x12D JUMPI PUSH0 DUP1 REVERT JUMPDEST POP PUSH2 0x148 PUSH1 0x4 DUP1 CALLDATASIZE SUB DUP2 ADD SWAP1 PUSH2 0x143 SWAP2 SWAP1 PUSH2 0xBB5 JUMP JUMPDEST PUSH2 0x515 JUMP JUMPDEST PUSH1 0x40 MLOAD PUSH2 0x159 SWAP6 SWAP5 SWAP4 SWAP3 SWAP2 SWAP1 PUSH2 0xD5F JUMP JUMPDEST PUSH1 0x40 MLOAD DUP1 SWAP2 SUB SWAP1 RETURN JUMPDEST CALLVALUE DUP1 ISZERO PUSH2 0x16D JUMPI PUSH0 DUP1 REVERT JUMPDEST POP PUSH2 0x176 PUSH2 0x608 JUMP JUMPDEST PUSH1 0x40 MLOAD PUSH2 0x183 SWAP2 SWAP1 PUSH2 0xDB7 JUMP JUMPDEST PUSH1 0x40 MLOAD DUP1 SWAP2 SUB SWAP1 RETURN JUMPDEST CALLVALUE DUP1 ISZERO PUSH2 0x197 JUMPI PUSH0 DUP1 REVERT JUMPDEST POP PUSH2 0x1B2 PUSH1 0x4 DUP1 CALLDATASIZE SUB DUP2 ADD SWAP1 PUSH2 0x1AD SWAP2 SWAP1 PUSH2 0xE5B JUMP JUMPDEST PUSH2 0x60E JUMP JUMPDEST STOP JUMPDEST CALLVALUE DUP1 ISZERO PUSH2 0x1BF JUMPI PUSH0 DUP1 REVERT JUMPDEST POP PUSH2 0x1C8 PUSH2 0x783 JUMP JUMPDEST PUSH1 0x40 MLOAD PUSH2 0x1D5 SWAP2 SWAP1 PUSH2 0xDB7 JUMP JUMPDEST PUSH1 0x40 MLOAD DUP1 SWAP2 SUB SWAP1 RETURN JUMPDEST CALLVALUE DUP1 ISZERO PUSH2 0x1E9 JUMPI PUSH0 DUP1 REVERT JUMPDEST POP PUSH2 0x204 PUSH1 0x4 DUP1 CALLDATASIZE SUB DUP2 ADD SWAP1 PUSH2 0x1FF SWAP2 SWAP1 PUSH2 0xBB5 JUMP JUMPDEST PUSH2 0x789 JUMP JUMPDEST PUSH1 0x40 MLOAD PUSH2 0x215 SWAP6 SWAP5 SWAP4 SWAP3 SWAP2 SWAP1 PUSH2 0xECC JUMP JUMPDEST PUSH1 0x40 MLOAD DUP1 SWAP2 SUB SWAP1 RETURN JUMPDEST PUSH2 0x226 PUSH2 0x893 JUMP JUMPDEST STOP JUMPDEST CALLVALUE DUP1 ISZERO PUSH2 0x233 JUMPI PUSH0 DUP1 REVERT JUMPDEST POP PUSH2 0x24E PUSH1 0x4 DUP1 CALLDATASIZE SUB DUP2 ADD SWAP1 PUSH2 0x249 SWAP2 SWAP1 PUSH2 0xBB5 JUMP JUMPDEST PUSH2 0x995 JUMP JUMPDEST STOP JUMPDEST PUSH0 DUP1 SLOAD SWAP1 PUSH2 0x100 EXP SWAP1 DIV PUSH20 0xFFFFFFFFFFFFFFFFFFFFFFFFFFFFFFFFFFFFFFFF AND PUSH20 0xFFFFFFFFFFFFFFFFFFFFFFFFFFFFFFFFFFFFFFFF AND CALLER PUSH20 0xFFFFFFFFFFFFFFFFFFFFFFFFFFFFFFFFFFFFFFFF AND EQ PUSH2 0x2DD JUMPI PUSH1 0x40 MLOAD PUSH32 0x8C379A000000000000000000000000000000000000000000000000000000000 DUP2 MSTORE PUSH1 0x4 ADD PUSH2 0x2D4 SWAP1 PUSH2 0xF94 JUMP JUMPDEST PUSH1 0x40 MLOAD DUP1 SWAP2 SUB SWAP1 REVERT JUMPDEST PUSH0 PUSH1 0x3 DUP3 DUP2 SLOAD DUP2 LT PUSH2 0x2F2 JUMPI PUSH2 0x2F1 PUSH2 0xFB2 JUMP JUMPDEST JUMPDEST SWAP1 PUSH0 MSTORE PUSH1 0x20 PUSH0 KECCAK256 SWAP1 PUSH1 0x5 MUL ADD SWAP1 POP DUP1 PUSH1 0x2 ADD PUSH1 0x14 SWAP1 SLOAD SWAP1 PUSH2 0x100 EXP SWAP1 DIV PUSH1 0xFF AND ISZERO PUSH2 0x352 JUMPI PUSH1 0x40 MLOAD PUSH32 0x8C379A000000000000000000000000000000000000000000000000000000000 DUP2 MSTORE PUSH1 0x4 ADD PUSH2 0x349 SWAP1 PUSH2 0x1029 JUMP JUMPDEST PUSH1 0x40 MLOAD DUP1 SWAP2 SUB SWAP1 REVERT JUMPDEST PUSH1 0x2 PUSH1 0x4 SLOAD PUSH2 0x361 SWAP2 SWAP1 PUSH2 0x10A1 JUMP JUMPDEST DUP2 PUSH1 0x3 ADD SLOAD GT PUSH2 0x3A6 JUMPI PUSH1 0x40 MLOAD PUSH32 0x8C379A000000000000000000000000000000000000000000000000000000000 DUP2 MSTORE PUSH1 0x4 ADD PUSH2 0x39D SWAP1 PUSH2 0x111B JUMP JUMPDEST PUSH1 0x40 MLOAD DUP1 SWAP2 SUB SWAP1 REVERT JUMPDEST DUP1 PUSH1 0x1 ADD SLOAD SELFBALANCE LT ISZERO PUSH2 0x3ED JUMPI PUSH1 0x40 MLOAD PUSH32 0x8C379A000000000000000000000000000000000000000000000000000000000 DUP2 MSTORE PUSH1 0x4 ADD PUSH2 0x3E4 SWAP1 PUSH2 0x1183 JUMP JUMPDEST PUSH1 0x40 MLOAD DUP1 SWAP2 SUB SWAP1 REVERT JUMPDEST PUSH1 0x1 DUP2 PUSH1 0x2 ADD PUSH1 0x14 PUSH2 0x100 EXP DUP2 SLOAD DUP2 PUSH1 0xFF MUL NOT AND SWAP1 DUP4 ISZERO ISZERO MUL OR SWAP1 SSTORE POP DUP1 PUSH1 0x2 ADD PUSH0 SWAP1 SLOAD SWAP1 PUSH2 0x100 EXP SWAP1 DIV PUSH20 0xFFFFFFFFFFFFFFFFFFFFFFFFFFFFFFFFFFFFFFFF AND PUSH20 0xFFFFFFFFFFFFFFFFFFFFFFFFFFFFFFFFFFFFFFFF AND PUSH2 0x8FC DUP3 PUSH1 0x1 ADD SLOAD SWAP1 DUP2 ISZERO MUL SWAP1 PUSH1 0x40 MLOAD PUSH0 PUSH1 0x40 MLOAD DUP1 DUP4 SUB DUP2 DUP6 DUP9 DUP9 CALL SWAP4 POP POP POP POP ISZERO DUP1 ISZERO PUSH2 0x474 JUMPI RETURNDATASIZE PUSH0 DUP1 RETURNDATACOPY RETURNDATASIZE PUSH0 REVERT JUMPDEST POP PUSH32 0x9B7A7AB138570B3419EA6A5DE03585EECB36F1F124C5D06628DC6A80C6BD090D DUP3 DUP3 PUSH1 0x2 ADD PUSH0 SWAP1 SLOAD SWAP1 PUSH2 0x100 EXP SWAP1 DIV PUSH20 0xFFFFFFFFFFFFFFFFFFFFFFFFFFFFFFFFFFFFFFFF AND PUSH1 0x40 MLOAD PUSH2 0x4C9 SWAP3 SWAP2 SWAP1 PUSH2 0x11FC JUMP JUMPDEST PUSH1 0x40 MLOAD DUP1 SWAP2 SUB SWAP1 LOG1 POP POP JUMP JUMPDEST PUSH1 0x2 PUSH1 0x20 MSTORE DUP1 PUSH0 MSTORE PUSH1 0x40 PUSH0 KECCAK256 PUSH0 SWAP2 POP SLOAD SWAP1 PUSH2 0x100 EXP SWAP1 DIV PUSH1 0xFF AND DUP2 JUMP JUMPDEST PUSH0 DUP1 SLOAD SWAP1 PUSH2 0x100 EXP SWAP1 DIV PUSH20 0xFFFFFFFFFFFFFFFFFFFFFFFFFFFFFFFFFFFFFFFF AND DUP2 JUMP JUMPDEST PUSH1 0x3 DUP2 DUP2 SLOAD DUP2 LT PUSH2 0x524 JUMPI PUSH0 DUP1 REVERT JUMPDEST SWAP1 PUSH0 MSTORE PUSH1 0x20 PUSH0 KECCAK256 SWAP1 PUSH1 0x5 MUL ADD PUSH0 SWAP2 POP SWAP1 POP DUP1 PUSH0 ADD DUP1 SLOAD PUSH2 0x543 SWAP1 PUSH2 0x1250 JUMP JUMPDEST DUP1 PUSH1 0x1F ADD PUSH1 0x20 DUP1 SWAP2 DIV MUL PUSH1 0x20 ADD PUSH1 0x40 MLOAD SWAP1 DUP2 ADD PUSH1 0x40 MSTORE DUP1 SWAP3 SWAP2 SWAP1 DUP2 DUP2 MSTORE PUSH1 0x20 ADD DUP3 DUP1 SLOAD PUSH2 0x56F SWAP1 PUSH2 0x1250 JUMP JUMPDEST DUP1 ISZERO PUSH2 0x5BA JUMPI DUP1 PUSH1 0x1F LT PUSH2 0x591 JUMPI PUSH2 0x100 DUP1 DUP4 SLOAD DIV MUL DUP4 MSTORE SWAP2 PUSH1 0x20 ADD SWAP2 PUSH2 0x5BA JUMP JUMPDEST DUP3 ADD SWAP2 SWAP1 PUSH0 MSTORE PUSH1 0x20 PUSH0 KECCAK256 SWAP1 JUMPDEST DUP2 SLOAD DUP2 MSTORE SWAP1 PUSH1 0x1 ADD SWAP1 PUSH1 0x20 ADD DUP1 DUP4 GT PUSH2 0x59D JUMPI DUP3 SWAP1 SUB PUSH1 0x1F AND DUP3 ADD SWAP2 JUMPDEST POP POP POP POP POP SWAP1 DUP1 PUSH1 0x1 ADD SLOAD SWAP1 DUP1 PUSH1 0x2 ADD PUSH0 SWAP1 SLOAD SWAP1 PUSH2 0x100 EXP SWAP1 DIV PUSH20 0xFFFFFFFFFFFFFFFFFFFFFFFFFFFFFFFFFFFFFFFF AND SWAP1 DUP1 PUSH1 0x2 ADD PUSH1 0x14 SWAP1 SLOAD SWAP1 PUSH2 0x100 EXP SWAP1 DIV PUSH1 0xFF AND SWAP1 DUP1 PUSH1 0x3 ADD SLOAD SWAP1 POP DUP6 JUMP JUMPDEST PUSH1 0x4 SLOAD DUP2 JUMP JUMPDEST PUSH0 DUP1 SLOAD SWAP1 PUSH2 0x100 EXP SWAP1 DIV PUSH20 0xFFFFFFFFFFFFFFFFFFFFFFFFFFFFFFFFFFFFFFFF AND PUSH20 0xFFFFFFFFFFFFFFFFFFFFFFFFFFFFFFFFFFFFFFFF AND CALLER PUSH20 0xFFFFFFFFFFFFFFFFFFFFFFFFFFFFFFFFFFFFFFFF AND EQ PUSH2 0x69B JUMPI PUSH1 0x40 MLOAD PUSH32 0x8C379A000000000000000000000000000000000000000000000000000000000 DUP2 MSTORE PUSH1 0x4 ADD PUSH2 0x692 SWAP1 PUSH2 0xF94 JUMP JUMPDEST PUSH1 0x40 MLOAD DUP1 SWAP2 SUB SWAP1 REVERT JUMPDEST PUSH0 PUSH1 0x3 PUSH1 0x1 DUP2 PUSH1 0x1 DUP2 SLOAD ADD DUP1 DUP3 SSTORE DUP1 SWAP2 POP POP SUB SWAP1 PUSH0 MSTORE PUSH1 0x20 PUSH0 KECCAK256 SWAP1 PUSH1 0x5 MUL ADD SWAP1 POP DUP5 DUP5 DUP3 PUSH0 ADD SWAP2 DUP3 PUSH2 0x6CE SWAP3 SWAP2 SWAP1 PUSH2 0x144B JUMP JUMPDEST POP DUP3 DUP2 PUSH1 0x1 ADD DUP2 SWAP1 SSTORE POP DUP2 DUP2 PUSH1 0x2 ADD PUSH0 PUSH2 0x100 EXP DUP2 SLOAD DUP2 PUSH20 0xFFFFFFFFFFFFFFFFFFFFFFFFFFFFFFFFFFFFFFFF MUL NOT AND SWAP1 DUP4 PUSH20 0xFFFFFFFFFFFFFFFFFFFFFFFFFFFFFFFFFFFFFFFF AND MUL OR SWAP1 SSTORE POP PUSH0 DUP2 PUSH1 0x2 ADD PUSH1 0x14 PUSH2 0x100 EXP DUP2 SLOAD DUP2 PUSH1 0xFF MUL NOT AND SWAP1 DUP4 ISZERO ISZERO MUL OR SWAP1 SSTORE POP PUSH0 DUP2 PUSH1 0x3 ADD DUP2 SWAP1 SSTORE POP PUSH32 0x7C8193F35C0BE0F0DE85A76806A85EB113857A95308E004A23313FA4DDA3293E DUP6 DUP6 DUP6 DUP6 PUSH1 0x40 MLOAD PUSH2 0x774 SWAP5 SWAP4 SWAP3 SWAP2 SWAP1 PUSH2 0x1552 JUMP JUMPDEST PUSH1 0x40 MLOAD DUP1 SWAP2 SUB SWAP1 LOG1 POP POP POP POP POP JUMP JUMPDEST PUSH1 0x1 SLOAD DUP2 JUMP JUMPDEST PUSH1 0x60 PUSH0 DUP1 PUSH0 DUP1 PUSH0 PUSH1 0x3 DUP8 DUP2 SLOAD DUP2 LT PUSH2 0x7A4 JUMPI PUSH2 0x7A3 PUSH2 0xFB2 JUMP JUMPDEST JUMPDEST SWAP1 PUSH0 MSTORE PUSH1 0x20 PUSH0 KECCAK256 SWAP1 PUSH1 0x5 MUL ADD SWAP1 POP DUP1 PUSH0 ADD DUP2 PUSH1 0x1 ADD SLOAD DUP3 PUSH1 0x2 ADD PUSH0 SWAP1 SLOAD SWAP1 PUSH2 0x100 EXP SWAP1 DIV PUSH20 0xFFFFFFFFFFFFFFFFFFFFFFFFFFFFFFFFFFFFFFFF AND DUP4 PUSH1 0x2 ADD PUSH1 0x14 SWAP1 SLOAD SWAP1 PUSH2 0x100 EXP SWAP1 DIV PUSH1 0xFF AND DUP5 PUSH1 0x3 ADD SLOAD DUP5 DUP1 SLOAD PUSH2 0x801 SWAP1 PUSH2 0x1250 JUMP JUMPDEST DUP1 PUSH1 0x1F ADD PUSH1 0x20 DUP1 SWAP2 DIV MUL PUSH1 0x20 ADD PUSH1 0x40 MLOAD SWAP1 DUP2 ADD PUSH1 0x40 MSTORE DUP1 SWAP3 SWAP2 SWAP1 DUP2 DUP2 MSTORE PUSH1 0x20 ADD DUP3 DUP1 SLOAD PUSH2 0x82D SWAP1 PUSH2 0x1250 JUMP JUMPDEST DUP1 ISZERO PUSH2 0x878 JUMPI DUP1 PUSH1 0x1F LT PUSH2 0x84F JUMPI PUSH2 0x100 DUP1 DUP4 SLOAD DIV MUL DUP4 MSTORE SWAP2 PUSH1 0x20 ADD SWAP2 PUSH2 0x878 JUMP JUMPDEST DUP3 ADD SWAP2 SWAP1 PUSH0 MSTORE PUSH1 0x20 PUSH0 KECCAK256 SWAP1 JUMPDEST DUP2 SLOAD DUP2 MSTORE SWAP1 PUSH1 0x1 ADD SWAP1 PUSH1 0x20 ADD DUP1 DUP4 GT PUSH2 0x85B JUMPI DUP3 SWAP1 SUB PUSH1 0x1F AND DUP3 ADD SWAP2 JUMPDEST POP POP POP POP POP SWAP5 POP SWAP6 POP SWAP6 POP SWAP6 POP SWAP6 POP SWAP6 POP POP SWAP2 SWAP4 SWAP6 SWAP1 SWAP3 SWAP5 POP JUMP JUMPDEST PUSH1 0x1 SLOAD CALLVALUE LT ISZERO PUSH2 0x8D8 JUMPI PUSH1 0x40 MLOAD PUSH32 0x8C379A000000000000000000000000000000000000000000000000000000000 DUP2 MSTORE PUSH1 0x4 ADD PUSH2 0x8CF SWAP1 PUSH2 0x15DA JUMP JUMPDEST PUSH1 0x40 MLOAD DUP1 SWAP2 SUB SWAP1 REVERT JUMPDEST PUSH1 0x2 PUSH0 CALLER PUSH20 0xFFFFFFFFFFFFFFFFFFFFFFFFFFFFFFFFFFFFFFFF AND PUSH20 0xFFFFFFFFFFFFFFFFFFFFFFFFFFFFFFFFFFFFFFFF AND DUP2 MSTORE PUSH1 0x20 ADD SWAP1 DUP2 MSTORE PUSH1 0x20 ADD PUSH0 KECCAK256 PUSH0 SWAP1 SLOAD SWAP1 PUSH2 0x100 EXP SWAP1 DIV PUSH1 0xFF AND PUSH2 0x993 JUMPI PUSH1 0x1 PUSH1 0x2 PUSH0 CALLER PUSH20 0xFFFFFFFFFFFFFFFFFFFFFFFFFFFFFFFFFFFFFFFF AND PUSH20 0xFFFFFFFFFFFFFFFFFFFFFFFFFFFFFFFFFFFFFFFF AND DUP2 MSTORE PUSH1 0x20 ADD SWAP1 DUP2 MSTORE PUSH1 0x20 ADD PUSH0 KECCAK256 PUSH0 PUSH2 0x100 EXP DUP2 SLOAD DUP2 PUSH1 0xFF MUL NOT AND SWAP1 DUP4 ISZERO ISZERO MUL OR SWAP1 SSTORE POP PUSH1 0x4 PUSH0 DUP2 SLOAD DUP1 SWAP3 SWAP2 SWAP1 PUSH2 0x98D SWAP1 PUSH2 0x15F8 JUMP JUMPDEST SWAP2 SWAP1 POP SSTORE POP JUMPDEST JUMP JUMPDEST PUSH0 PUSH1 0x3 DUP3 DUP2 SLOAD DUP2 LT PUSH2 0x9AA JUMPI PUSH2 0x9A9 PUSH2 0xFB2 JUMP JUMPDEST JUMPDEST SWAP1 PUSH0 MSTORE PUSH1 0x20 PUSH0 KECCAK256 SWAP1 PUSH1 0x5 MUL ADD SWAP1 POP PUSH1 0x2 PUSH0 CALLER PUSH20 0xFFFFFFFFFFFFFFFFFFFFFFFFFFFFFFFFFFFFFFFF AND PUSH20 0xFFFFFFFFFFFFFFFFFFFFFFFFFFFFFFFFFFFFFFFF AND DUP2 MSTORE PUSH1 0x20 ADD SWAP1 DUP2 MSTORE PUSH1 0x20 ADD PUSH0 KECCAK256 PUSH0 SWAP1 SLOAD SWAP1 PUSH2 0x100 EXP SWAP1 DIV PUSH1 0xFF AND PUSH2 0xA41 JUMPI PUSH1 0x40 MLOAD PUSH32 0x8C379A000000000000000000000000000000000000000000000000000000000 DUP2 MSTORE PUSH1 0x4 ADD PUSH2 0xA38 SWAP1 PUSH2 0x1689 JUMP JUMPDEST PUSH1 0x40 MLOAD DUP1 SWAP2 SUB SWAP1 REVERT JUMPDEST DUP1 PUSH1 0x4 ADD PUSH0 CALLER PUSH20 0xFFFFFFFFFFFFFFFFFFFFFFFFFFFFFFFFFFFFFFFF AND PUSH20 0xFFFFFFFFFFFFFFFFFFFFFFFFFFFFFFFFFFFFFFFF AND DUP2 MSTORE PUSH1 0x20 ADD SWAP1 DUP2 MSTORE PUSH1 0x20 ADD PUSH0 KECCAK256 PUSH0 SWAP1 SLOAD SWAP1 PUSH2 0x100 EXP SWAP1 DIV PUSH1 0xFF AND ISZERO PUSH2 0xACD JUMPI PUSH1 0x40 MLOAD PUSH32 0x8C379A000000000000000000000000000000000000000000000000000000000 DUP2 MSTORE PUSH1 0x4 ADD PUSH2 0xAC4 SWAP1 PUSH2 0x16F1 JUMP JUMPDEST PUSH1 0x40 MLOAD DUP1 SWAP2 SUB SWAP1 REVERT JUMPDEST PUSH1 0x1 DUP2 PUSH1 0x4 ADD PUSH0 CALLER PUSH20 0xFFFFFFFFFFFFFFFFFFFFFFFFFFFFFFFFFFFFFFFF AND PUSH20 0xFFFFFFFFFFFFFFFFFFFFFFFFFFFFFFFFFFFFFFFF AND DUP2 MSTORE PUSH1 0x20 ADD SWAP1 DUP2 MSTORE PUSH1 0x20 ADD PUSH0 KECCAK256 PUSH0 PUSH2 0x100 EXP DUP2 SLOAD DUP2 PUSH1 0xFF MUL NOT AND SWAP1 DUP4 ISZERO ISZERO MUL OR SWAP1 SSTORE POP DUP1 PUSH1 0x3 ADD PUSH0 DUP2 SLOAD DUP1 SWAP3 SWAP2 SWAP1 PUSH2 0xB38 SWAP1 PUSH2 0x15F8 JUMP JUMPDEST SWAP2 SWAP1 POP SSTORE POP PUSH32 0xF3DC904660A0EA05ABA8DFA1E21FBC4FB2914BE2A3029DA7B0FDD3E5EEE20DDB DUP3 CALLER PUSH1 0x40 MLOAD PUSH2 0xB6E SWAP3 SWAP2 SWAP1 PUSH2 0x170F JUMP JUMPDEST PUSH1 0x40 MLOAD DUP1 SWAP2 SUB SWAP1 LOG1 POP POP JUMP JUMPDEST PUSH0 DUP1 REVERT JUMPDEST PUSH0 DUP1 REVERT JUMPDEST PUSH0 DUP2 SWAP1 POP SWAP2 SWAP1 POP JUMP JUMPDEST PUSH2 0xB94 DUP2 PUSH2 0xB82 JUMP JUMPDEST DUP2 EQ PUSH2 0xB9E JUMPI PUSH0 DUP1 REVERT JUMPDEST POP JUMP JUMPDEST PUSH0 DUP2 CALLDATALOAD SWAP1 POP PUSH2 0xBAF DUP2 PUSH2 0xB8B JUMP JUMPDEST SWAP3 SWAP2 POP POP JUMP JUMPDEST PUSH0 PUSH1 0x20 DUP3 DUP5 SUB SLT ISZERO PUSH2 0xBCA JUMPI PUSH2 0xBC9 PUSH2 0xB7A JUMP JUMPDEST JUMPDEST PUSH0 PUSH2 0xBD7 DUP5 DUP3 DUP6 ADD PUSH2 0xBA1 JUMP JUMPDEST SWAP2 POP POP SWAP3 SWAP2 POP POP JUMP JUMPDEST PUSH0 PUSH20 0xFFFFFFFFFFFFFFFFFFFFFFFFFFFFFFFFFFFFFFFF DUP3 AND SWAP1 POP SWAP2 SWAP1 POP JUMP JUMPDEST PUSH0 PUSH2 0xC09 DUP3 PUSH2 0xBE0 JUMP JUMPDEST SWAP1 POP SWAP2 SWAP1 POP JUMP JUMPDEST PUSH2 0xC19 DUP2 PUSH2 0xBFF JUMP JUMPDEST DUP2 EQ PUSH2 0xC23 JUMPI PUSH0 DUP1 REVERT JUMPDEST POP JUMP JUMPDEST PUSH0 DUP2 CALLDATALOAD SWAP1 POP PUSH2 0xC34 DUP2 PUSH2 0xC10 JUMP JUMPDEST SWAP3 SWAP2 POP POP JUMP JUMPDEST PUSH0 PUSH1 0x20 DUP3 DUP5 SUB SLT ISZERO PUSH2 0xC4F JUMPI PUSH2 0xC4E PUSH2 0xB7A JUMP JUMPDEST JUMPDEST PUSH0 PUSH2 0xC5C DUP5 DUP3 DUP6 ADD PUSH2 0xC26 JUMP JUMPDEST SWAP2 POP POP SWAP3 SWAP2 POP POP JUMP JUMPDEST PUSH0 DUP2 ISZERO ISZERO SWAP1 POP SWAP2 SWAP1 POP JUMP JUMPDEST PUSH2 0xC79 DUP2 PUSH2 0xC65 JUMP JUMPDEST DUP3 MSTORE POP POP JUMP JUMPDEST PUSH0 PUSH1 0x20 DUP3 ADD SWAP1 POP PUSH2 0xC92 PUSH0 DUP4 ADD DUP5 PUSH2 0xC70 JUMP JUMPDEST SWAP3 SWAP2 POP POP JUMP JUMPDEST PUSH2 0xCA1 DUP2 PUSH2 0xBFF JUMP JUMPDEST DUP3 MSTORE POP POP JUMP JUMPDEST PUSH0 PUSH1 0x20 DUP3 ADD SWAP1 POP PUSH2 0xCBA PUSH0 DUP4 ADD DUP5 PUSH2 0xC98 JUMP JUMPDEST SWAP3 SWAP2 POP POP JUMP JUMPDEST PUSH0 DUP2 MLOAD SWAP1 POP SWAP2 SWAP1 POP JUMP JUMPDEST PUSH0 DUP3 DUP3 MSTORE PUSH1 0x20 DUP3 ADD SWAP1 POP SWAP3 SWAP2 POP POP JUMP JUMPDEST DUP3 DUP2 DUP4 MCOPY PUSH0 DUP4 DUP4 ADD MSTORE POP POP POP JUMP JUMPDEST PUSH0 PUSH1 0x1F NOT PUSH1 0x1F DUP4 ADD AND SWAP1 POP SWAP2 SWAP1 POP JUMP JUMPDEST PUSH0 PUSH2 0xD02 DUP3 PUSH2 0xCC0 JUMP JUMPDEST PUSH2 0xD0C DUP2 DUP6 PUSH2 0xCCA JUMP JUMPDEST SWAP4 POP PUSH2 0xD1C DUP2 DUP6 PUSH1 0x20 DUP7 ADD PUSH2 0xCDA JUMP JUMPDEST PUSH2 0xD25 DUP2 PUSH2 0xCE8 JUMP JUMPDEST DUP5 ADD SWAP2 POP POP SWAP3 SWAP2 POP POP JUMP JUMPDEST PUSH2 0xD39 DUP2 PUSH2 0xB82 JUMP JUMPDEST DUP3 MSTORE POP POP JUMP JUMPDEST PUSH0 PUSH2 0xD49 DUP3 PUSH2 0xBE0 JUMP JUMPDEST SWAP1 POP SWAP2 SWAP1 POP JUMP JUMPDEST PUSH2 0xD59 DUP2 PUSH2 0xD3F JUMP JUMPDEST DUP3 MSTORE POP POP JUMP JUMPDEST PUSH0 PUSH1 0xA0 DUP3 ADD SWAP1 POP DUP2 DUP2 SUB PUSH0 DUP4 ADD MSTORE PUSH2 0xD77 DUP2 DUP9 PUSH2 0xCF8 JUMP JUMPDEST SWAP1 POP PUSH2 0xD86 PUSH1 0x20 DUP4 ADD DUP8 PUSH2 0xD30 JUMP JUMPDEST PUSH2 0xD93 PUSH1 0x40 DUP4 ADD DUP7 PUSH2 0xD50 JUMP JUMPDEST PUSH2 0xDA0 PUSH1 0x60 DUP4 ADD DUP6 PUSH2 0xC70 JUMP JUMPDEST PUSH2 0xDAD PUSH1 0x80 DUP4 ADD DUP5 PUSH2 0xD30 JUMP JUMPDEST SWAP7 SWAP6 POP POP POP POP POP POP JUMP JUMPDEST PUSH0 PUSH1 0x20 DUP3 ADD SWAP1 POP PUSH2 0xDCA PUSH0 DUP4 ADD DUP5 PUSH2 0xD30 JUMP JUMPDEST SWAP3 SWAP2 POP POP JUMP JUMPDEST PUSH0 DUP1 REVERT JUMPDEST PUSH0 DUP1 REVERT JUMPDEST PUSH0 DUP1 REVERT JUMPDEST PUSH0 DUP1 DUP4 PUSH1 0x1F DUP5 ADD SLT PUSH2 0xDF1 JUMPI PUSH2 0xDF0 PUSH2 0xDD0 JUMP JUMPDEST JUMPDEST DUP3 CALLDATALOAD SWAP1 POP PUSH8 0xFFFFFFFFFFFFFFFF DUP2 GT ISZERO PUSH2 0xE0E JUMPI PUSH2 0xE0D PUSH2 0xDD4 JUMP JUMPDEST JUMPDEST PUSH1 0x20 DUP4 ADD SWAP2 POP DUP4 PUSH1 0x1 DUP3 MUL DUP4 ADD GT ISZERO PUSH2 0xE2A JUMPI PUSH2 0xE29 PUSH2 0xDD8 JUMP JUMPDEST JUMPDEST SWAP3 POP SWAP3 SWAP1 POP JUMP JUMPDEST PUSH2 0xE3A DUP2 PUSH2 0xD3F JUMP JUMPDEST DUP2 EQ PUSH2 0xE44 JUMPI PUSH0 DUP1 REVERT JUMPDEST POP JUMP JUMPDEST PUSH0 DUP2 CALLDATALOAD SWAP1 POP PUSH2 0xE55 DUP2 PUSH2 0xE31 JUMP JUMPDEST SWAP3 SWAP2 POP POP JUMP JUMPDEST PUSH0 DUP1 PUSH0 DUP1 PUSH1 0x60 DUP6 DUP8 SUB SLT ISZERO PUSH2 0xE73 JUMPI PUSH2 0xE72 PUSH2 0xB7A JUMP JUMPDEST JUMPDEST PUSH0 DUP6 ADD CALLDATALOAD PUSH8 0xFFFFFFFFFFFFFFFF DUP2 GT ISZERO PUSH2 0xE90 JUMPI PUSH2 0xE8F PUSH2 0xB7E JUMP JUMPDEST JUMPDEST PUSH2 0xE9C DUP8 DUP3 DUP9 ADD PUSH2 0xDDC JUMP JUMPDEST SWAP5 POP SWAP5 POP POP PUSH1 0x20 PUSH2 0xEAF DUP8 DUP3 DUP9 ADD PUSH2 0xBA1 JUMP JUMPDEST SWAP3 POP POP PUSH1 0x40 PUSH2 0xEC0 DUP8 DUP3 DUP9 ADD PUSH2 0xE47 JUMP JUMPDEST SWAP2 POP POP SWAP3 SWAP6 SWAP2 SWAP5 POP SWAP3 POP JUMP JUMPDEST PUSH0 PUSH1 0xA0 DUP3 ADD SWAP1 POP DUP2 DUP2 SUB PUSH0 DUP4 ADD MSTORE PUSH2 0xEE4 DUP2 DUP9 PUSH2 0xCF8 JUMP JUMPDEST SWAP1 POP PUSH2 0xEF3 PUSH1 0x20 DUP4 ADD DUP8 PUSH2 0xD30 JUMP JUMPDEST PUSH2 0xF00 PUSH1 0x40 DUP4 ADD DUP7 PUSH2 0xC98 JUMP JUMPDEST PUSH2 0xF0D PUSH1 0x60 DUP4 ADD DUP6 PUSH2 0xC70 JUMP JUMPDEST PUSH2 0xF1A PUSH1 0x80 DUP4 ADD DUP5 PUSH2 0xD30 JUMP JUMPDEST SWAP7 SWAP6 POP POP POP POP POP POP JUMP JUMPDEST PUSH32 0x4F6E6C7920746865206D616E616765722063616E2063616C6C20746869732066 PUSH0 DUP3 ADD MSTORE PUSH32 0x756E6374696F6E00000000000000000000000000000000000000000000000000 PUSH1 0x20 DUP3 ADD MSTORE POP JUMP JUMPDEST PUSH0 PUSH2 0xF7E PUSH1 0x27 DUP4 PUSH2 0xCCA JUMP JUMPDEST SWAP2 POP PUSH2 0xF89 DUP3 PUSH2 0xF24 JUMP JUMPDEST PUSH1 0x40 DUP3 ADD SWAP1 POP SWAP2 SWAP1 POP JUMP JUMPDEST PUSH0 PUSH1 0x20 DUP3 ADD SWAP1 POP DUP2 DUP2 SUB PUSH0 DUP4 ADD MSTORE PUSH2 0xFAB DUP2 PUSH2 0xF72 JUMP JUMPDEST SWAP1 POP SWAP2 SWAP1 POP JUMP JUMPDEST PUSH32 0x4E487B7100000000000000000000000000000000000000000000000000000000 PUSH0 MSTORE PUSH1 0x32 PUSH1 0x4 MSTORE PUSH1 0x24 PUSH0 REVERT JUMPDEST PUSH32 0x5265717565737420697320616C726561647920636F6D706C6574656400000000 PUSH0 DUP3 ADD MSTORE POP JUMP JUMPDEST PUSH0 PUSH2 0x1013 PUSH1 0x1C DUP4 PUSH2 0xCCA JUMP JUMPDEST SWAP2 POP PUSH2 0x101E DUP3 PUSH2 0xFDF JUMP JUMPDEST PUSH1 0x20 DUP3 ADD SWAP1 POP SWAP2 SWAP1 POP JUMP JUMPDEST PUSH0 PUSH1 0x20 DUP3 ADD SWAP1 POP DUP2 DUP2 SUB PUSH0 DUP4 ADD MSTORE PUSH2 0x1040 DUP2 PUSH2 0x1007 JUMP JUMPDEST SWAP1 POP SWAP2 SWAP1 POP JUMP JUMPDEST PUSH32 0x4E487B7100000000000000000000000000000000000000000000000000000000 PUSH0 MSTORE PUSH1 0x12 PUSH1 0x4 MSTORE PUSH1 0x24 PUSH0 REVERT JUMPDEST PUSH32 0x4E487B7100000000000000000000000000000000000000000000000000000000 PUSH0 MSTORE PUSH1 0x11 PUSH1 0x4 MSTORE PUSH1 0x24 PUSH0 REVERT JUMPDEST PUSH0 PUSH2 0x10AB DUP3 PUSH2 0xB82 JUMP JUMPDEST SWAP2 POP PUSH2 0x10B6 DUP4 PUSH2 0xB82 JUMP JUMPDEST SWAP3 POP DUP3 PUSH2 0x10C6 JUMPI PUSH2 0x10C5 PUSH2 0x1047 JUMP JUMPDEST JUMPDEST DUP3 DUP3 DIV SWAP1 POP SWAP3 SWAP2 POP POP JUMP JUMPDEST PUSH32 0x4E656564206D6F726520617070726F76616C7300000000000000000000000000 PUSH0 DUP3 ADD MSTORE POP JUMP JUMPDEST PUSH0 PUSH2 0x1105 PUSH1 0x13 DUP4 PUSH2 0xCCA JUMP JUMPDEST SWAP2 POP PUSH2 0x1110 DUP3 PUSH2 0x10D1 JUMP JUMPDEST PUSH1 0x20 DUP3 ADD SWAP1 POP SWAP2 SWAP1 POP JUMP JUMPDEST PUSH0 PUSH1 0x20 DUP3 ADD SWAP1 POP DUP2 DUP2 SUB PUSH0 DUP4 ADD MSTORE PUSH2 0x1132 DUP2 PUSH2 0x10F9 JUMP JUMPDEST SWAP1 POP SWAP2 SWAP1 POP JUMP JUMPDEST PUSH32 0x4E6F7420656E6F75676820455448000000000000000000000000000000000000 PUSH0 DUP3 ADD MSTORE POP JUMP JUMPDEST PUSH0 PUSH2 0x116D PUSH1 0xE DUP4 PUSH2 0xCCA JUMP JUMPDEST SWAP2 POP PUSH2 0x1178 DUP3 PUSH2 0x1139 JUMP JUMPDEST PUSH1 0x20 DUP3 ADD SWAP1 POP SWAP2 SWAP1 POP JUMP JUMPDEST PUSH0 PUSH1 0x20 DUP3 ADD SWAP1 POP DUP2 DUP2 SUB PUSH0 DUP4 ADD MSTORE PUSH2 0x119A DUP2 PUSH2 0x1161 JUMP JUMPDEST SWAP1 POP SWAP2 SWAP1 POP JUMP JUMPDEST PUSH0 DUP2 SWAP1 POP SWAP2 SWAP1 POP JUMP JUMPDEST PUSH0 PUSH2 0x11C4 PUSH2 0x11BF PUSH2 0x11BA DUP5 PUSH2 0xBE0 JUMP JUMPDEST PUSH2 0x11A1 JUMP JUMPDEST PUSH2 0xBE0 JUMP JUMPDEST SWAP1 POP SWAP2 SWAP1 POP JUMP JUMPDEST PUSH0 PUSH2 0x11D5 DUP3 PUSH2 0x11AA JUMP JUMPDEST SWAP1 POP SWAP2 SWAP1 POP JUMP JUMPDEST PUSH0 PUSH2 0x11E6 DUP3 PUSH2 0x11CB JUMP JUMPDEST SWAP1 POP SWAP2 SWAP1 POP JUMP JUMPDEST PUSH2 0x11F6 DUP2 PUSH2 0x11DC JUMP JUMPDEST DUP3 MSTORE POP POP JUMP JUMPDEST PUSH0 PUSH1 0x40 DUP3 ADD SWAP1 POP PUSH2 0x120F PUSH0 DUP4 ADD DUP6 PUSH2 0xD30 JUMP JUMPDEST PUSH2 0x121C PUSH1 0x20 DUP4 ADD DUP5 PUSH2 0x11ED JUMP JUMPDEST SWAP4 SWAP3 POP POP POP JUMP JUMPDEST PUSH32 0x4E487B7100000000000000000000000000000000000000000000000000000000 PUSH0 MSTORE PUSH1 0x22 PUSH1 0x4 MSTORE PUSH1 0x24 PUSH0 REVERT JUMPDEST PUSH0 PUSH1 0x2 DUP3 DIV SWAP1 POP PUSH1 0x1 DUP3 AND DUP1 PUSH2 0x1267 JUMPI PUSH1 0x7F DUP3 AND SWAP2 POP JUMPDEST PUSH1 0x20 DUP3 LT DUP2 SUB PUSH2 0x127A JUMPI PUSH2 0x1279 PUSH2 0x1223 JUMP JUMPDEST JUMPDEST POP SWAP2 SWAP1 POP JUMP JUMPDEST PUSH0 DUP3 SWAP1 POP SWAP3 SWAP2 POP POP JUMP JUMPDEST PUSH32 0x4E487B7100000000000000000000000000000000000000000000000000000000 PUSH0 MSTORE PUSH1 0x41 PUSH1 0x4 MSTORE PUSH1 0x24 PUSH0 REVERT JUMPDEST PUSH0 DUP2 SWAP1 POP DUP2 PUSH0 MSTORE PUSH1 0x20 PUSH0 KECCAK256 SWAP1 POP SWAP2 SWAP1 POP JUMP JUMPDEST PUSH0 PUSH1 0x20 PUSH1 0x1F DUP4 ADD DIV SWAP1 POP SWAP2 SWAP1 POP JUMP JUMPDEST PUSH0 DUP3 DUP3 SHL SWAP1 POP SWAP3 SWAP2 POP POP JUMP JUMPDEST PUSH0 PUSH1 0x8 DUP4 MUL PUSH2 0x1313 PUSH32 0xFFFFFFFFFFFFFFFFFFFFFFFFFFFFFFFFFFFFFFFFFFFFFFFFFFFFFFFFFFFFFFFF DUP3 PUSH2 0x12D8 JUMP JUMPDEST PUSH2 0x131D DUP7 DUP4 PUSH2 0x12D8 JUMP JUMPDEST SWAP6 POP DUP1 NOT DUP5 AND SWAP4 POP DUP1 DUP7 AND DUP5 OR SWAP3 POP POP POP SWAP4 SWAP3 POP POP POP JUMP JUMPDEST PUSH0 PUSH2 0x134F PUSH2 0x134A PUSH2 0x1345 DUP5 PUSH2 0xB82 JUMP JUMPDEST PUSH2 0x11A1 JUMP JUMPDEST PUSH2 0xB82 JUMP JUMPDEST SWAP1 POP SWAP2 SWAP1 POP JUMP JUMPDEST PUSH0 DUP2 SWAP1 POP SWAP2 SWAP1 POP JUMP JUMPDEST PUSH2 0x1368 DUP4 PUSH2 0x1335 JUMP JUMPDEST PUSH2 0x137C PUSH2 0x1374 DUP3 PUSH2 0x1356 JUMP JUMPDEST DUP5 DUP5 SLOAD PUSH2 0x12E4 JUMP JUMPDEST DUP3 SSTORE POP POP POP POP JUMP JUMPDEST PUSH0 SWAP1 JUMP JUMPDEST PUSH2 0x1390 PUSH2 0x1384 JUMP JUMPDEST PUSH2 0x139B DUP2 DUP5 DUP5 PUSH2 0x135F JUMP JUMPDEST POP POP POP JUMP JUMPDEST JUMPDEST DUP2 DUP2 LT ISZERO PUSH2 0x13BE JUMPI PUSH2 0x13B3 PUSH0 DUP3 PUSH2 0x1388 JUMP JUMPDEST PUSH1 0x1 DUP2 ADD SWAP1 POP PUSH2 0x13A1 JUMP JUMPDEST POP POP JUMP JUMPDEST PUSH1 0x1F DUP3 GT ISZERO PUSH2 0x1403 JUMPI PUSH2 0x13D4 DUP2 PUSH2 0x12B7 JUMP JUMPDEST PUSH2 0x13DD DUP5 PUSH2 0x12C9 JUMP JUMPDEST DUP2 ADD PUSH1 0x20 DUP6 LT ISZERO PUSH2 0x13EC JUMPI DUP2 SWAP1 POP JUMPDEST PUSH2 0x1400 PUSH2 0x13F8 DUP6 PUSH2 0x12C9 JUMP JUMPDEST DUP4 ADD DUP3 PUSH2 0x13A0 JUMP JUMPDEST POP POP JUMPDEST POP POP POP JUMP JUMPDEST PUSH0 DUP3 DUP3 SHR SWAP1 POP SWAP3 SWAP2 POP POP JUMP JUMPDEST PUSH0 PUSH2 0x1423 PUSH0 NOT DUP5 PUSH1 0x8 MUL PUSH2 0x1408 JUMP JUMPDEST NOT DUP1 DUP4 AND SWAP2 POP POP SWAP3 SWAP2 POP POP JUMP JUMPDEST PUSH0 PUSH2 0x143B DUP4 DUP4 PUSH2 0x1414 JUMP JUMPDEST SWAP2 POP DUP3 PUSH1 0x2 MUL DUP3 OR SWAP1 POP SWAP3 SWAP2 POP POP JUMP JUMPDEST PUSH2 0x1455 DUP4 DUP4 PUSH2 0x1280 JUMP JUMPDEST PUSH8 0xFFFFFFFFFFFFFFFF DUP2 GT ISZERO PUSH2 0x146E JUMPI PUSH2 0x146D PUSH2 0x128A JUMP JUMPDEST JUMPDEST PUSH2 0x1478 DUP3 SLOAD PUSH2 0x1250 JUMP JUMPDEST PUSH2 0x1483 DUP3 DUP3 DUP6 PUSH2 0x13C2 JUMP JUMPDEST PUSH0 PUSH1 0x1F DUP4 GT PUSH1 0x1 DUP2 EQ PUSH2 0x14B0 JUMPI PUSH0 DUP5 ISZERO PUSH2 0x149E JUMPI DUP3 DUP8 ADD CALLDATALOAD SWAP1 POP JUMPDEST PUSH2 0x14A8 DUP6 DUP3 PUSH2 0x1430 JUMP JUMPDEST DUP7 SSTORE POP PUSH2 0x150F JUMP JUMPDEST PUSH1 0x1F NOT DUP5 AND PUSH2 0x14BE DUP7 PUSH2 0x12B7 JUMP JUMPDEST PUSH0 JUMPDEST DUP3 DUP2 LT ISZERO PUSH2 0x14E5 JUMPI DUP5 DUP10 ADD CALLDATALOAD DUP3 SSTORE PUSH1 0x1 DUP3 ADD SWAP2 POP PUSH1 0x20 DUP6 ADD SWAP5 POP PUSH1 0x20 DUP2 ADD SWAP1 POP PUSH2 0x14C0 JUMP JUMPDEST DUP7 DUP4 LT ISZERO PUSH2 0x1502 JUMPI DUP5 DUP10 ADD CALLDATALOAD PUSH2 0x14FE PUSH1 0x1F DUP10 AND DUP3 PUSH2 0x1414 JUMP JUMPDEST DUP4 SSTORE POP JUMPDEST PUSH1 0x1 PUSH1 0x2 DUP9 MUL ADD DUP9 SSTORE POP POP POP JUMPDEST POP POP POP POP POP POP POP JUMP JUMPDEST DUP3 DUP2 DUP4 CALLDATACOPY PUSH0 DUP4 DUP4 ADD MSTORE POP POP POP JUMP JUMPDEST PUSH0 PUSH2 0x1531 DUP4 DUP6 PUSH2 0xCCA JUMP JUMPDEST SWAP4 POP PUSH2 0x153E DUP4 DUP6 DUP5 PUSH2 0x1518 JUMP JUMPDEST PUSH2 0x1547 DUP4 PUSH2 0xCE8 JUMP JUMPDEST DUP5 ADD SWAP1 POP SWAP4 SWAP3 POP POP POP JUMP JUMPDEST PUSH0 PUSH1 0x60 DUP3 ADD SWAP1 POP DUP2 DUP2 SUB PUSH0 DUP4 ADD MSTORE PUSH2 0x156B DUP2 DUP7 DUP9 PUSH2 0x1526 JUMP JUMPDEST SWAP1 POP PUSH2 0x157A PUSH1 0x20 DUP4 ADD DUP6 PUSH2 0xD30 JUMP JUMPDEST PUSH2 0x1587 PUSH1 0x40 DUP4 ADD DUP5 PUSH2 0x11ED JUMP JUMPDEST SWAP6 SWAP5 POP POP POP POP POP JUMP JUMPDEST PUSH32 0x4D696E696D756D20636F6E747269627574696F6E206E6F74206D657400000000 PUSH0 DUP3 ADD MSTORE POP JUMP JUMPDEST PUSH0 PUSH2 0x15C4 PUSH1 0x1C DUP4 PUSH2 0xCCA JUMP JUMPDEST SWAP2 POP PUSH2 0x15CF DUP3 PUSH2 0x1590 JUMP JUMPDEST PUSH1 0x20 DUP3 ADD SWAP1 POP SWAP2 SWAP1 POP JUMP JUMPDEST PUSH0 PUSH1 0x20 DUP3 ADD SWAP1 POP DUP2 DUP2 SUB PUSH0 DUP4 ADD MSTORE PUSH2 0x15F1 DUP2 PUSH2 0x15B8 JUMP JUMPDEST SWAP1 POP SWAP2 SWAP1 POP JUMP JUMPDEST PUSH0 PUSH2 0x1602 DUP3 PUSH2 0xB82 JUMP JUMPDEST SWAP2 POP PUSH32 0xFFFFFFFFFFFFFFFFFFFFFFFFFFFFFFFFFFFFFFFFFFFFFFFFFFFFFFFFFFFFFFFF DUP3 SUB PUSH2 0x1634 JUMPI PUSH2 0x1633 PUSH2 0x1074 JUMP JUMPDEST JUMPDEST PUSH1 0x1 DUP3 ADD SWAP1 POP SWAP2 SWAP1 POP JUMP JUMPDEST PUSH32 0x596F7520617265206E6F74206120636F6E7472696275746F7200000000000000 PUSH0 DUP3 ADD MSTORE POP JUMP JUMPDEST PUSH0 PUSH2 0x1673 PUSH1 0x19 DUP4 PUSH2 0xCCA JUMP JUMPDEST SWAP2 POP PUSH2 0x167E DUP3 PUSH2 0x163F JUMP JUMPDEST PUSH1 0x20 DUP3 ADD SWAP1 POP SWAP2 SWAP1 POP JUMP JUMPDEST PUSH0 PUSH1 0x20 DUP3 ADD SWAP1 POP DUP2 DUP2 SUB PUSH0 DUP4 ADD MSTORE PUSH2 0x16A0 DUP2 PUSH2 0x1667 JUMP JUMPDEST SWAP1 POP SWAP2 SWAP1 POP JUMP JUMPDEST PUSH32 0x416C726561647920617070726F76656400000000000000000000000000000000 PUSH0 DUP3 ADD MSTORE POP JUMP JUMPDEST PUSH0 PUSH2 0x16DB PUSH1 0x10 DUP4 PUSH2 0xCCA JUMP JUMPDEST SWAP2 POP PUSH2 0x16E6 DUP3 PUSH2 0x16A7 JUMP JUMPDEST PUSH1 0x20 DUP3 ADD SWAP1 POP SWAP2 SWAP1 POP JUMP JUMPDEST PUSH0 PUSH1 0x20 DUP3 ADD SWAP1 POP DUP2 DUP2 SUB PUSH0 DUP4 ADD MSTORE PUSH2 0x1708 DUP2 PUSH2 0x16CF JUMP JUMPDEST SWAP1 POP SWAP2 SWAP1 POP JUMP JUMPDEST PUSH0 PUSH1 0x40 DUP3 ADD SWAP1 POP PUSH2 0x1722 PUSH0 DUP4 ADD DUP6 PUSH2 0xD30 JUMP JUMPDEST PUSH2 0x172F PUSH1 0x20 DUP4 ADD DUP5 PUSH2 0xC98 JUMP JUMPDEST SWAP4 SWAP3 POP POP POP JUMP INVALID LOG2 PUSH5 0x6970667358 0x22 SLT KECCAK256 XOR BYTE CODECOPY 0xE2 SWAP9 ORIGIN JUMPDEST 0xC2 0xEC 0xDA SWAP14 PUSH22 0x20CF2E7858EB7F019A4410D0BE094AD54073279C6473 PUSH16 0x6C634300081900330000000000000000 "},"gasEstimates":{"creation":{"codeDepositCost":"1199200","executionCost":"infinite","totalCost":"infinite"},"external":{"approveRequest(uint256)":"infinite","approvers(address)":"2856","approversCount()":"2514","contribute()":"53256","createRequest(string,uint256,address)":"infinite","finalizeRequest(uint256)":"infinite","getRequest(uint256)":"infinite","manager()":"2550","minimumContribution()":"2447","requests(uint256)":"infinite"}},"methodIdentifiers":{"approveRequest(uint256)":"d7d1bbdb","approvers(address)":"0a144391","approversCount()":"82fde093","contribute()":"d7bb99ba","createRequest(string,uint256,address)":"8a9cfd55","finalizeRequest(uint256)":"03441006","getRequest(uint256)":"c58343ef","manager()":"481c6a75","minimumContribution()":"937e09b1","requests(uint256)":"81d12c58"}},"storageLayout":{"storage":[{"astId":18,"contract":"Campaign.sol:Campaign","label":"manager","offset":0,"slot":"0","type":"t_address"},{"astId":20,"contract":"Campaign.sol:Campaign","label":"minimumContribution","offset":0,"slot":"1","type":"t_uint256"},{"astId":24,"contract":"Campaign.sol:Campaign","label":"approvers","offset":0,"slot":"2","type":"t_mapping(t_address,t_bool)"},{"astId":28,"contract":"Campaign.sol:Campaign","label":"requests","offset":0,"slot":"3","type":"t_array(t_struct(Request)16_storage)dyn_storage"},{"astId":30,"contract":"Campaign.sol:Campaign","label":"approversCount","offset":0,"slot":"4","type":"t_uint256"}],"types":{"t_address":{"encoding":"inplace","label":"address","numberOfBytes":"20"},"t_address_payable":{"encoding":"inplace","label":"address payable","numberOfBytes":"20"},"t_array(t_struct(Request)16_storage)dyn_storage":{"base":"t_struct(Request)16_storage","encoding":"dynamic_array","label":"struct Campaign.Request[]","numberOfBytes":"32"},"t_bool":{"encoding":"inplace","label":"bool","numberOfBytes":"1"},"t_mapping(t_address,t_bool)":{"encoding":"mapping","key":"t_address","label":"mapping(address => bool)","numberOfBytes":"32","value":"t_bool"},"t_string_storage":{"encoding":"bytes","label":"string","numberOfBytes":"32"},"t_struct(Request)16_storage":{"encoding":"inplace","label":"struct Campaign.Request","members":[{"astId":3,"contract":"Campaign.sol:Campaign","label":"description","offset":0,"slot":"0","type":"t_string_storage"},{"astId":5,"contract":"Campaign.sol:Campaign","label":"value","offset":0,"slot":"1","type":"t_uint256"},{"astId":7,"contract":"Campaign.sol:Campaign","label":"recipient","offset":0,"slot":"2","type":"t_address_payable"},{"astId":9,"contract":"Campaign.sol:Campaign","label":"complete","offset":20,"slot":"2","type":"t_bool"},{"astId":11,"contract":"Campaign.sol:Campaign","label":"approvalCount","offset":0,"slot":"3","type":"t_uint256"},{"astId":15,"contract":"Campaign.sol:Campaign","label":"approvals","offset":0,"slot":"4","type":"t_mapping(t_address,t_bool)"}],"numberOfBytes":"160"},"t_uint256":{"encoding":"inplace","label":"uint256","numberOfBytes":"32"}}},"userdoc":{"kind":"user","methods":{},"version":1}}